:100000000C9434000C9451000C9451000C94510049
:100010000C9451000C9451000C9451000C9451001C
:100020000C9451000C9451000C9451000C9451000C
:100030000C9451000C9451000C9493000C945100BA
:100040000C9451000C9451000C9451000C945100EC
:100050000C9451000C9451000C9451000C945100DC
:100060000C9451000C94510011241FBECFEFD8E026
:10007000DEBFCDBF11E0A0E0B1E0E4E1FFE002C0EF
:1000800005900D92A235B107D9F721E0A2E5B1E0C4
:1000900001C01D92A137B207E1F70E94D0020C9473
:1000A00088070C9400000000000000000000000021
:1000B0000000000000000000000000000000000040
:1000C0000000000000000895EF92FF920F931F932D
:1000D000CF937C0100E010E009C00E945300CF5F85
:1000E00001C0C0E0C430C8F30F5F1F4F0E151F05DD
:1000F000C0F3CF911F910F91FF90EF9008950F9350
:100100001F93CF938C01C0E005C088EE93E00E945E
:100110006400CF5F8C2F90E080179107B0F3CF91F0
:100120001F910F9108951F920F920FB60F921124F5
:100130008F939F9381E080936F01809170018F5F17
:1001400080937001809170018A3F30F09BB180E410
:1001500089278BB91092700180916E018F5F809317
:100160006E019F918F910F900FBE0F901F90189569
:10017000ECEBF0E08081846080831092B90088E429
:100180008093B80087B18F7C87B988B1806388B9C4
:10019000089584EA8093BC008091BC008823E4F732
:1001A000089584E98093BC0008958093BB0084E89F
:1001B0008093BC008091BC008823E4F70895CF931E
:1001C000C82F0E94C90080E40E94D5008C2F0E9495
:1001D000D5000E94D100CF910895CF9383FD02C036
:1001E000C0E001C0C1E082FDC26081FDC46080FD4D
:1001F000C8606111C7608C2F86600E94DF0088ECA8
:1002000090E00E9464008C2F897F0E94DF0088ECC0
:1002100090E00E946400CF910895CF93DF93D82F90
:10022000C62F82958F700E94ED006C2F8D2F8F70DE
:100230000E94ED00CC2329F084E690E00E94640047
:1002400004C082E090E00E947F00DF91CF9108958A
:1002500060E081E00E940D0182E090E00E947F005A
:100260000895811103C080E8860F02C080EC860FDC
:1002700060E00E940D010895CF93DF93EC0104C06C
:10028000219661E00E940D0188818111F9CFDF91F3
:10029000CF91089582E390E00E947F0060E083E0C8
:1002A0000E94ED0085E090E00E947F0060E083E026
:1002B0000E94ED0084E690E00E94640060E083E02C
:1002C0000E94ED0084E690E00E94640060E082E01D
:1002D0000E94ED0084E690E00E94640060E088E205
:1002E0000E940D0160E08CE00E940D0160E081E061
:1002F0000E940D0182E090E00E947F0060E086E0B5
:100300000E940D01089584EC8093BC008091BC0094
:100310008823E4F78091BB00089584E88093BC00B3
:100320008091BC008823E4F78091BB000895809100
:10033000B900887F0895CF93DF93D82FC62F0E94EE
:10034000C9008D2F880F0E94D5008C2F0E94D500E8
:100350000E94D1008AE090E00E947F0081E0DF915E
:10036000CF910895CF93DF93C82F0E94C9000E94B8
:100370009701883029F00E94D10080E090E02AC0E7
:100380008C2F90E0880F991F81600E94D5000E94F9
:100390009701803429F00E94D10080E090E01AC0DB
:1003A0000E948301C82F0E948D01D82F0E94D10086
:1003B0006C2F70E0762F66276D2B80E090E00E9416
:1003C000C6032AE939E949E95FE30E9425030E944F
:1003D0009703CB01DF91CF91089561E083E20E9402
:1003E0009B01882341F061E183E20E949B01882305
:1003F00021F081E003C080E001C080E080936A01C9
:100400000E94530061E08CE50E949B01882341F02B
:1004100061E18CE50E949B01882321F081E003C00B
:1004200080E001C080E08093690190916A01890FAA
:1004300080936B0188EC90E00E947F000895CF9339
:10044000DF9380916A01882329F083E20E94B20140
:10045000EC0102C0C0E0D0E080916901882321F066
:100460008CE50E94B20102C080E090E020916B0117
:10047000213021F4209759F0CE0109C0223029F40F
:100480008C0F9D1F9695879502C080E090E0DF91CC
:10049000CF9108950E94ED0108952091540130E01C
:1004A000F901EE0FFF1FEB5AFE4F91838083C901C4
:1004B00001966AE070E00E9454048093540180E049
:1004C00040E050E0BA010DC0E82FF0E0EE0FFF1F52
:1004D000EB5AFE4F20813181420F531F611D711D68
:1004E0008F5F8A3088F3CB01BA012AE030E040E028
:1004F00050E00E946804C90108958AB180648AB9F5
:100500008BB18F7B8BB982E084BD95E095BD9FE177
:1005100097BD80936E00789408950E947D020E949A
:10052000B8000E944A010E94280160E080E00E9419
:10053000310180E091E00E943C018CED95E00E9449
:100540007F000E9428010E944A0260E080E00E9431
:10055000310180916B01811109C08FE091E00E940F
:100560003C018CED95E00E947F0013C0813049F47E
:1005700089E191E00E943C018CED95E00E947F00B2
:1005800008C088E291E00E943C018CED95E00E9459
:100590007F008CED95E00E947F000E942801089565
:1005A000CF93DF93CDB7DEB7A0970FB6F894DEBF39
:1005B0000FBECDBF0E948D0280916F018823E1F3B1
:1005C00010926F0180916E018436B0F310926E012B
:1005D0000E941F0290936D0180936C010E944D0256
:1005E000909353018093520160E080E00E943101BA
:1005F000809153018F93809152018F9388E391E012
:100600009F938F938E010F5F1F4F1F930F930E9435
:100610009E04C8010E943C0160E081E00E9431011B
:1006200080916B011F928F9385E491E09F938F934C
:100630001F930F930E949E04C8010E943C010FB6B5
:10064000F894DEBF0FBECDBFB7CF0E9439030C9424
:100650001A040E94130458F00E940C0440F029F47C
:100660005F3F29F00C94030451110C944E040C9438
:1006700009040E942B0468F39923B1F3552391F3E5
:10068000951B550BBB27AA2762177307840738F001
:100690009F5F5F4F220F331F441FAA1FA9F335D05E
:1006A0000E2E3AF0E0E832D091505040E695001C12
:1006B000CAF72BD0FE2F29D0660F771F881FBB1FCC
:1006C000261737074807AB07B0E809F0BB0B802DAA
:1006D000BF01FF2793585F4F3AF09E3F510578F0D6
:1006E0000C9403040C944E045F3FE4F3983ED4F35F
:1006F000869577956795B795F7959F5FC9F7880FAA
:10070000911D9695879597F90895E1E0660F771FFB
:10071000881FBB1F621773078407BA0720F0621B8C
:10072000730B840BBA0BEE1F88F7E09508950E94B7
:10073000330488F09F5798F0B92F9927B751B0F03C
:10074000E1F0660F771F881F991F1AF0BA95C9F755
:1007500014C0B13091F00E944D04B1E008950C94A2
:100760004D04672F782F8827B85F39F0B93FCCF355
:10077000869577956795B395D9F73EF490958095D2
:10078000709561957F4F8F4F9F4F0895E89409C0F2
:1007900097FB3EF490958095709561957F4F8F4FB4
:1007A0009F4F9923A9F0F92F96E9BB279395F695CA
:1007B000879577956795B795F111F8CFFAF4BB0F48
:1007C00011F460FF1BC06F5F7F4F8F4F9F4F16C0AC
:1007D000882311F096E911C0772321F09EE8872F36
:1007E000762F05C0662371F096E8862F70E060E0F2
:1007F0002AF09A95660F771F881FDAF7880F96956B
:10080000879597F9089597F99F6780E870E060E011
:1008100008959FEF80EC089500240A941616170699
:1008200018060906089500240A94121613061406E1
:1008300005060895092E0394000C11F4882352F044
:10084000BB0F40F4BF2B11F460FF04C06F5F7F4FFC
:100850008F4F9F4F089557FD9058440F551F59F0E3
:100860005F3F71F04795880F97FB991F61F09F3F9D
:1008700079F087950895121613061406551FF2CFC6
:100880004695F1DF08C0161617061806991FF1CF16
:1008900086957105610508940895E894BB2766273D
:1008A0007727CB0197F9089597FB072E16F400944C
:1008B00007D077FD09D00E948A0407FC05D03EF4DA
:1008C000909581959F4F0895709561957F4F0895FC
:1008D000A1E21A2EAA1BBB1BFD010DC0AA1FBB1F44
:1008E000EE1FFF1FA217B307E407F50720F0A21BB6
:1008F000B30BE40BF50B661F771F881F991F1A9423
:1009000069F760957095809590959B01AC01BD014C
:10091000CF010895AA1BBB1B51E107C0AA1FBB1F33
:10092000A617B70710F0A61BB70B881F991F5A957B
:10093000A9F780959095BC01CD010895AEE0B0E097
:10094000E4EAF4E00C945F070D891E8986E08C834D
:100950001A8309838FEF9FE79E838D83AE01475EE5
:100960005F4F6F89788DCE0101960E94C004EF81A0
:10097000F885E00FF11F10822E96E4E00C947B07BF
:10098000ABE0B0E0E6ECF4E00C9451076C017B01C5
:100990008A01FC0117821682838181FFCCC1CE01BE
:1009A00001963C01F6019381F70193FD859193FF38
:1009B00081917F01882309F4BAC1853239F493FD0E
:1009C000859193FF81917F01853229F4B60190E0F2
:1009D0000E94B706E7CF912C212C312CFFE1F315B3
:1009E000D8F08B3279F038F4803279F08332A1F488
:1009F000232D20611DC08D3261F0803369F4232DD9
:100A0000216016C0832D8260382EE32DE4603E2ED7
:100A10002AC0F32DF8601DC037FC2DC020ED280F33
:100A20002A3040F08E32B9F436FC81C1232D206487
:100A3000322E19C036FE06C08AE0989E200D112481
:100A4000922E11C0EAE02E9E200D1124222EF32DAD
:100A5000F0623F2E08C08C3621F4832D8068382E3A
:100A600002C0883641F4F70193FD859193FF81918F
:100A70007F018111B3CF982F9F7D9554933028F437
:100A80000C5F1F4F9FE399830DC0833631F083378E
:100A900071F0833509F059C021C0F8018081898344
:100AA0000E5F1F4F88248394912C530113C028019B
:100AB000F2E04F0E511CF801A080B18036FE03C059
:100AC000692D70E002C06FEF7FEFC5010E94AC0698
:100AD0004C018201F32DFF773F2E16C0280122E042
:100AE000420E511CF801A080B18036FE03C0692D72
:100AF00070E002C06FEF7FEFC5010E94A1064C01BC
:100B0000F32DF0683F2E820133FC1BC0822D90E054
:100B100088169906B0F4B60180E290E00E94B7060C
:100B20002A94F4CFF50137FC859137FE81915F015E
:100B3000B60190E00E94B70621102A9421E0821AA3
:100B400091088114910471F7E8C0843611F0893658
:100B500041F5F80137FE07C0608171818281938180
:100B60000C5F1F4F08C060817181072E000C880B3D
:100B7000990B0E5F1F4FF32DFF763F2E97FF09C095
:100B800090958095709561957F4F8F4F9F4FF0683E
:100B90003F2E2AE030E0A3010E94F306882E86183B
:100BA00045C0853731F4232D2F7EB22E2AE030E068
:100BB00025C0932D997FB92E8F36C1F018F4883552
:100BC00079F0B5C0803719F0883721F0B0C0E92F2F
:100BD000E061BE2EB4FE0DC0FB2DF460BF2E09C037
:100BE00034FE0AC0292F2660B22E06C028E030E06D
:100BF00005C020E130E002C020E132E0F801B7FE9C
:100C000007C060817181828193810C5F1F4F06C094
:100C10006081718180E090E00E5F1F4FA3010E9410
:100C2000F306882E8618FB2DFF773F2E36FE0DC06B
:100C3000232D2E7FA22E891458F434FE0BC032FCD3
:100C400009C0832D8E7EA82E05C0B82CA32C03C00E
:100C5000B82C01C0B92CA4FE0FC0FE01E80DF11D97
:100C60008081803321F49A2D997EA92E09C0A2FE9D
:100C700006C0B394B39404C08A2D867809F0B39467
:100C8000A3FC11C0A0FE06C0B21488F4280C922C5C
:100C90009B180EC0B21460F4B60180E290E00E948E
:100CA000B706B394F7CFB21418F42B1802C0982CDF
:100CB000212CA4FE10C0B60180E390E00E94B7068C
:100CC000A2FE17C0A1FC03C088E790E002C088E53F
:100CD00090E0B6010CC08A2D867859F0A1FE02C0C2
:100CE0008BE201C080E2A7FC8DE2B60190E00E9499
:100CF000B706891438F4B60180E390E00E94B70685
:100D00009A94F7CF8A94F301E80DF11D8081B60122
:100D100090E00E94B7068110F5CF222009F442CE60
:100D2000B60180E290E00E94B7062A94F6CFF60161
:100D30008681978102C08FEF9FEF2B96E2E10C94A2
:100D40006D07FC010590615070400110D8F7809547
:100D500090958E0F9F1F0895FC0161507040019087
:100D60000110D8F7809590958E0F9F1F08950F93CF
:100D70001F93CF93DF93FB01238121FD03C08FEFEE
:100D80009FEF2CC022FF16C04681578124813581F8
:100D90004217530744F4A081B1819D012F5F3F4F5B
:100DA000318320838C93268137812F5F3F4F378398
:100DB000268314C08B01EC01FB010084F185E02D3A
:100DC0000995892BE1F6D80116968D919C9117977C
:100DD000019617969C938E931697CE01DF91CF9133
:100DE0001F910F910895FA01AA27283051F120315F
:100DF00081F1E8946F936E7F6E5F7F4F8F4F9F4FAF
:100E0000AF4FB1E03ED0B4E03CD0670F781F891FF0
:100E10009A1FA11D680F791F8A1F911DA11D6A0FBE
:100E2000711D811D911DA11D20D009F468943F9171
:100E30002AE0269F11243019305D3193DEF6CF0170
:100E40000895462F4770405D4193B3E00FD0C9F736
:100E5000F6CF462F4F70405D4A3318F0495D31FDA3
:100E60004052419302D0A9F7EACFB4E0A6959795F6
:100E7000879577956795BA95C9F7009761057105CC
:100E800008959B01AC010A2E069457954795379516
:100E90002795BA95C9F7620F731F841F951FA01D70
:100EA00008952F923F924F925F926F927F928F920E
:100EB0009F92AF92BF92CF92DF92EF92FF920F93E9
:100EC0001F93CF93DF93CDB7DEB7CA1BDB0B0FB6F3
:100ED000F894DEBF0FBECDBF09942A8839884888B0
:100EE0005F846E847D848C849B84AA84B984C88446
:100EF000DF80EE80FD800C811B81AA81B981CE0F3D
:100F0000D11D0FB6F894DEBF0FBECDBFED01089521
:040F1000F894FFCF83
:100F14004C7578204D657465722056312E30004E24
:100F24006F2053656E736F7200312053656E736F5B
:100F34007220526561647900322053656E736F725A
:100F440073205265616479004C75783A20253475B4
:100F5400202020200053656E736F72733A2025643D
:020F640000008B
:00000001FF
