:020000040000FA
:100000000C9434000C9451000C9451000C94510049
:100010000C9409020C9451000C9451000C94510062
:100020000C9451000C9451000C9451000C9451000C
:100030000C9451000C9451000C9469020C945100E2
:100040000C9451000C9451000C9451000C945100EC
:100050000C9451000C9451000C9451000C945100DC
:100060000C9451000C94510011241FBECFEFD8E026
:10007000DEBFCDBF14E0A0E0B1E0E2ECFBE102C0E6
:1000800005900D92A031B107D9F724E0A0E1B4E0CA
:1000900001C01D92AC3AB207E1F70E94C2020C9473
:1000A000DF0D0C9400008093BB0084E88093BC00BB
:1000B00081ED97E02091BC0027FD02C00197D1F7A8
:1000C000089584EA8093BC0081ED97E02091BC0004
:1000D00027FD02C00197D1F70895CF93C82F0E9442
:1000E00061008091B900887F883039F084E980937D
:1000F000BC0090E080E0CF9108958C2F880F816044
:100100000E9453008091B900887F803479F784EC95
:100110008093BC0081ED97E02091BC0027FD02C0D8
:100120000197D1F76091BB0084E88093BC0081ED1A
:1001300097E02091BC0027FD02C00197D1F7809184
:10014000BB0094E99093BC00762F682F90E080E08C
:100150000E940D0A2AE939E949E95FE30E946C0926
:100160000E94DE09CB016D3D7F4F28F28CED9FEFA1
:10017000C2CFCF93DF93D82FC62F0E9461008D2F5F
:10018000880F0E9453008091B900887F883139F030
:1001900084E98093BC0080E0DF91CF9108958C2F9B
:1001A0000E9453008091B900887F883289F784E9E2
:1001B0008093BC0081E0F0CFCF93C82F0E946100F4
:1001C00088E70E94530080E40E9453008C2F0E9415
:1001D000530084E98093BC00CF910895EF92FF9281
:1001E0000F931F93CF93DF937C01F701C1917F01A0
:1001F000CC23B9F0C0320CF4CFE3F6E0CF02E0013B
:10020000112410E000E0F801EC0FFD1FE55BFF4F4B
:1002100080810E94DC000F5F1F4F0630110599F7A7
:10022000E4CFDF91CF911F910F91FF90EF90089550
:10023000CF93C82F0E94610088E70E94530080E09E
:100240000E9453008C2F0E94530084E98093BC00CD
:10025000CF91089580550E94180180E00E941801F6
:1002600080E10C941801CF93DF93C0EB8C2F0E9498
:10027000180180E00E94180180E10E941801D0E07E
:1002800080E00E94DC00DF5FD038D1F7CF5FC83B51
:1002900069F7DF91CF91089590919B04911106C069
:1002A00098EC899F802D112480939B0408950F93CF
:1002B0001F93813011F500911C0410911D042091B1
:1002C0001E0430911F04E7E1F4E0ACE1B4E092E0F9
:1002D000409112045091130460911404709115041C
:1002E000401B510B620B730B4C33510561057105BB
:1002F00090F480811F910F9108950091180410913E
:10030000190420911A0430911B04E6E1F4E0A8E1FD
:10031000B4E093E0DDCF409112045091130460915A
:100320001404709115044D935D936D937C93139712
:1003300028B141E050E002C0440F551F9A95E2F702
:10034000342F3095232328B99AE09A95F1F700C00D
:1003500028B1242B28B995E39A95F1F7000098B1BC
:10036000932398B961E87EE329B130E02423352353
:10037000232B21F461507109B9F7BBCF30E020E0A5
:1003800069B170E064237523672B59F02F5F3F4FED
:10039000213197E23907A1F730934E0420934D04A1
:1003A00005C08130C9F325363105B0F72353310933
:1003B00081E0253B334008F080E080839BCFEF92C3
:1003C000FF921F93CF93DF93182FEB017A01BA01AD
:1003D000CE010E94F70A892BB1F0BE01C7010E942D
:1003E000000B812F0E942A018BEC93E00E94EE000B
:1003F000812F0E942A01CE01DF91CF911F91FF90A2
:10040000EF900C94EE00DF91CF911F91FF90EF9051
:1004100008951F920F920FB60F9211242F933F93BE
:100420004F935F936F937F938F939F93AF93BF93FC
:10043000CF93DF93EF93FF93C6B1C2708091110405
:100440008C1708F03FC080911004811123C0809167
:100450000A01811134C081E080930A01D1E0D09378
:10046000010121E030E030930501209304018CEB81
:1004700090E090938B0080938A0030930301209347
:100480000201909389008093880081E00E944C01D2
:10049000D0931004C0931104FF91EF91DF91CF919D
:1004A000BF91AF919F918F917F916F915F914F918C
:1004B0003F912F910F900FBE0F901F9018951092A3
:1004C0000A01CCCF80911104C81720F710921004B4
:1004D000E1CF1F920F920FB60F9211248F939F932B
:1004E000AF93BF9381E080939E048091120490911A
:1004F0001304A0911404B09115040296A11DB11D1E
:100500008093120490931304A0931404B0931504E1
:100510008091200490912104892B49F0809120043E
:10052000909121040197909321048093200480915D
:10053000A704823079F480918B0490918C04892BEC
:1005400049F080918B0490918C04019790938C04D6
:1005500080938B048091980490919904892B49F0A1
:1005600080919804909199040197909399048093B5
:100570009804BF91AF919F918F910F900FBE0F90F4
:100580001F901895CF93DF93CDB7DEB7A8970FB61E
:10059000F894DEBF0FBECDBF1092C50087E68093F2
:1005A000C40088E18093C10086E08093C200569A1F
:1005B0005E9882E084BD95E095BD9FE197BD8093F4
:1005C0006E00239A2B9881E88093B00083E080939B
:1005D000B1001092B30084B1866084B9809180002C
:1005E000826A80938000809181008369809381007A
:1005F00084EC99E090938700809386008CEB90E0E8
:10060000909389008093880090938B0080938A0058
:10061000399841988AB18F768AB98BB18F768BB928
:10062000389A409887B18C6087B98AB1837F8AB93C
:100630008BB1837F8BB98091680082608093680062
:1006400080916C00826080936C007894EE24E39437
:10065000F12C0CEB10E062E0862E912C74EF672EEB
:10066000772473949E012F5F3F4F69018091AB0403
:100670008111C6C080919104813091F1B8F082302F
:1006800009F479C0833091F780912004909121047E
:10069000892B61F70E94330181E08093AB048FEFD7
:1006A0008093910483E00E944C01E0CF8091BC00D4
:1006B00084608093BC001092B9008CE08093B800F5
:1006C00087B18F7C87B988B1806388B986E090E074
:1006D000909321048093200481E080939104C6CFFD
:1006E0008091200490912104892B09F0BFCF8EEADC
:1006F0000E94180180E20E94180182E00E94180105
:1007000080EB0E94180188EC0E94180180E00E9492
:10071000180180E10E94180180E40E94180181E81C
:100720000E9418018FEC0E94180181EA0E941801B2
:1007300086EA0E94180188EA0E9418018FE30E944D
:1007400018018DE80E94180184E10E9418018FEAC7
:100750000E9418010E94330180E00E942A0188E56E
:1007600093E00E94EE008FEE92E09093210480933C
:10077000200482E0B2CF8091200490912104892B43
:1007800009F074CF61E083E20E94B900882341F050
:1007900061E183E20E94B900BB24B394811101C0DE
:1007A000B12CB092230461E08CE50E94B90088234B
:1007B00039F061E18CE50E94B90091E0811101C03E
:1007C00090E090932204B90EB09292040E943301FB
:1007D00080E00E942A0186E693E0BB2039F031E0F8
:1007E00083E793E0B31611F083E893E00E94EE00F4
:1007F0008FEE92E0909321048093200483E06DCFEC
:100800008091AA04882309F46FC11092AA048091F0
:100810002304B12CA12C882321F083E20E946D00D7
:100820005C0180912204882309F479C08CE50E9440
:100830006D0020919204213009F074C0A114B1041C
:1008400009F45C018091380490E0FC01EE0FFF1F79
:10085000EC5DFB4FB182A08201966AE070E00E94DD
:10086000A70A80933804E4E2F4E048E354E060E04F
:1008700070E0CB0121913191620F731F811D911D99
:100880004E175F07B9F72AE030E040E050E00E94E1
:10089000BB0A2093A8043093A9048091060190918B
:1008A00007019F938F933F932F9386E993E09F9344
:1008B0008F93DF92CF920E94070B47E754E0B60177
:1008C00080E00E94DF0180910A010FB6F894DEBF3C
:1008D0000FBECDBF43E654E06BEA73E0882311F00E
:1008E0006CEB73E081E00E94DF0180910201909146
:1008F00003012BE433E0009731F025E433E0029765
:1009000011F022E533E080910401909105010097F8
:1009100099F0029709F4DCC082E593E00FC090E003
:1009200080E087CF223029F4A80EB91EB694A79490
:1009300089CFB12CA12C86CF8BE493E03F932F93EA
:100940009F938F938DEC93E09F938F93DF92CF9241
:100950000E94070B4FE454E0B60182E00E94DF01E1
:1009600083E00E942A0189ED93E00E94EE006091ED
:10097000A8047091A90490E080E027E0660F771F3B
:10098000881F991F2A95D1F70FB6F894DEBF0FBEC6
:10099000CDBF28EE33E040E050E00E94BB0AB22E0B
:1009A00027FF02C08FE7B82E809100018B1589F0D8
:1009B000B092000184E00E942A01A12C81E0AB14D6
:1009C00008F080E081950E94DC00A39430E8A31237
:1009D000F5CF80914E048F9380914D048F938AEED2
:1009E00093E09F938F93DF92CF920E94070B49E38E
:1009F00054E0B60185E00E94DF0180910A010F906A
:100A00000F900F900F900F900F904DE4811101C047
:100A100041E48091A704882309F45DC08091080116
:100A20009091090120910401309105012230310596
:100A300009F456C0232B09F455C020E5609102014A
:100A40007091030131E46230710521F030E5672BCC
:100A500009F436E45091A6045F935091A5045F9386
:100A60005091A4045F935091A3045F935091A2040A
:100A70005F935091A1045F935091A0045F935091B4
:100A80009F045F931F923F931F922F932091A9047D
:100A90002F932091A8042F939F938F931F924F938E
:100AA00086EF93E09F938F93DF92CF920E94070B84
:100AB000F6010FB6F894DEBF0FBECDBF819188233B
:100AC00099F09091C00095FFFCCF8093C600F6CFBF
:100AD00085E493E033CF8091060190910701A2CF86
:100AE00021E4ACCF26E4AACF80919E04882309F4A8
:100AF000BDCD10929E0480919D048F5F80939D04D4
:100B000080919D048A3F30F08BB190E489278BB9A6
:100B100010929D0480919C048F5F80939C0480912F
:100B20009C04893128F081E08093AA0410929C04EF
:100B300080919B04882309F47DC080919B0481509F
:100B400080939B0480919B0469E10E949B0A911110
:100B500004C088B191E0892788B9809104019091FF
:100B600005018230910509F067C080919F04909142
:100B7000A004A091A104B091A204883223E29207BC
:100B8000A105B1055CF40396A11DB11D80939F04DE
:100B90009093A004A093A104B093A20480910201B9
:100BA000909103018230910509F05BC08091A3040C
:100BB0009091A404A091A504B091A60488353BE1CE
:100BC0009307A105B1055CF40396A11DB11D8093A7
:100BD000A3049093A404A093A504B093A6048091C9
:100BE000C00087FFACC08091C00087FFFCCFE091C0
:100BF000C600E154E83108F0A2C0F0E0EE5FF94F22
:100C00000C94DD0A46069F0663073B079F06910783
:100C10009F069F069F069F069F069F0663069F06E8
:100C20005307A1079F069F0673079F0683069F062B
:100C30009F068107409891CF892B09F0AFCF809113
:100C40009F049091A004A091A104B091A204181651
:100C500019061A061B060CF0A1CF0297A109B109CB
:100C600095CF892B09F0BBCF8091A3049091A40468
:100C7000A091A504B091A604181619061A061B0621
:100C80000CF0ADCF0297A109B109A1CF80910A0163
:100C9000882309F454C010920A0181E08093010175
:100CA0000E944C01F0920501E092040110938B0028
:100CB00000938A00F0920301E092020110938900F0
:100CC000009388003CC080910A018130C1F181E02D
:100CD00080930A01809301010E944C01F09205016A
:100CE000E092040110938B0000938A00F0920301BC
:100CF000E092020110938900009388001092B300E3
:100D0000109293041CC080910A018111AAC08091A5
:100D1000060190910701883E934048F480910601B6
:100D200090910701C29690930701809306018091EC
:100D30000601909107019093090180930801809129
:100D40000A01811111C24C9B02C180918E048B302B
:100D500018F48F5F80938E0480918E048A30F1F4B2
:100D60008BE080938E048091A7048230B9F080914B
:100D7000080190910901883E934048F48091080150
:100D800090910901C2969093090180930801809186
:100D9000A704811103C081E08093A7044F9BDAC0B0
:100DA00080918D048B3018F48F5F80938D04809137
:100DB0008D048A30E9F48BE080938D048091A70440
:100DC0008230B1F08091080190910901892B49F09E
:100DD0008091080190910901C29790930901809335
:100DE00008018091A704811103C081E08093A704CA
:100DF0008091A704813009F0B0C04C990BC04F9985
:100E000009C088EE93E090938C0480938B0482E079
:100E10008093A704209106013091070180919204EC
:100E2000882309F423CC809191048F3F09F01ECCD4
:100E30004091A8045091A90420909F043090A004F0
:100E40004090A1045090A20498E2291693E239063A
:100E5000410451040CF4A1C010938B0000938A004C
:100E6000A2C0809193048F3F09F0865F8093B30006
:100E70008093930464CF80910A0181110DC0809109
:100E8000060190910701892B09F451CF8091060149
:100E900090910701C29747CF809193048A3108F45B
:100EA0002DCF8A50E3CF80910A01813009F047CFDE
:100EB000909205018092040188EA90E090938B0063
:100EC00080938A003CCF80910A01813009F037CFAE
:100ED000109205011092040126EC30E030938B0053
:100EE00020938A002CCF80910A01813009F027CF0E
:100EF000F0920501E092040110938B0000938A00A8
:100F00001ECF80910A01813009F019CF9092030120
:100F10008092020187EA90E0909389008093880094
:100F20000ECF80910A01813009F009CF10920301A0
:100F30001092020129EC30E0309389002093880060
:100F4000FECE80910A01813009F0F9CEB3CE109225
:100F50008E0402CF10928D042ACF8091A704823094
:100F600009F058CF4C9917C04F9915C080918B0448
:100F700090918C04892B09F04DCF809108019091BC
:100F80000901909307018093060182E00E944C01C1
:100F90001092A7043FCF81E03BCF12141304140436
:100FA00015040CF059CF8091A3049091A404A09152
:100FB000A504B091A60488356BE19607A105B1059B
:100FC0002CF0109389000093880005C018161906AC
:100FD0001A061B06B4F7241B350BA901485D5F4FA9
:100FE0004135510548F4F0920501E0920401109357
:100FF0008B0000938A0096C0293231050CF45AC048
:1010000028E2221623E2320641045104BCF49092F5
:1010100005018092040188EA90E090938B00809310
:101020008A00F0920301E09202011093890000937C
:1010300088001092B3001092930418CBF09205012F
:10104000E092040110938B0000938A0088359B4145
:10105000A105B1055CF4909203018092020187EA38
:1010600090E09093890080938800E3CFF092030191
:10107000E0920201109389000093880080918F0410
:101080009091900401968436910528F490939004F1
:1010900080938F04EBCA1092900410928F04809179
:1010A00093048F3F09F4E2CA865F8093B300809374
:1010B0009304DCCA20919304222329F1F0920501C4
:1010C000E092040110938B0000938A00F0920301D8
:1010D000E0920201109389000093880080918F04B0
:1010E0009091900401968436910580F210929004BC
:1010F00010928F042A3008F49CCF2A502093B3001A
:1011000020939304B3CA12141304140415049CF41A
:10111000109205011092040126EC30E030938B0010
:1011200020938A00F0920301E0920201109389005B
:10113000009388009BCA181619061A061B060CF0A5
:1011400052CFF0920501E092040110938B000093BE
:101150008A00109203011092020189EC90E09093B2
:1011600089008093880082CA80919404882359F072
:1011700081508093940480919A048F5F823340F56C
:1011800080939A0473CA4C9B0CC0809193048F3F48
:10119000A9F08B5F8093B3008093930483E08093E6
:1011A00094044F9BE8CF80919304882361F085508D
:1011B0008093B3008093930483E0DBCF8093B300EC
:1011C00080939304EECF1092B30010929304D3CF88
:1011D00010929A0481E00E945701B82E82E00E948A
:1011E00057012091980430919904232BF9F0209114
:1011F0009804309199042150310930939904209337
:1012000098042091980430919904232B79F49091BB
:101210009704992359F090919704933039F01092E4
:101220009704B09296048093950420CA90919704F5
:10123000913031F178F09230D9F1933091F7B110CB
:10124000F0CF8111EECF1092970410929904109272
:101250009804E7CFBB2061F090919604911108C0EB
:1012600091E0909397047092990460929804D9CF7A
:101270008823B9F2909195049111D3CF92E0F1CFE8
:10128000882379F2109205011092040126EC30E0D7
:1012900030938B0020938A00109203011092020178
:1012A00029EC30E0309389002093880093E0D9CF77
:1012B000BB2009F4B6CF909205018092040128EA80
:1012C00030E030938B0020938A009092030180924B
:1012D000020127EA30E0E6CF0E9480090C94610AFF
:1012E0000E945A0A58F00E94530A40F029F45F3FC6
:1012F00029F00C944A0A51110C94950A0C94500A46
:101300000E94720A68F39923B1F3552391F3951B58
:10131000550BBB27AA2762177307840738F09F5F16
:101320005F4F220F331F441FAA1FA9F335D00E2E83
:101330003AF0E0E832D091505040E695001CCAF7F0
:101340002BD0FE2F29D0660F771F881FBB1F2617B3
:1013500037074807AB07B0E809F0BB0B802DBF018A
:10136000FF2793585F4F3AF09E3F510578F00C9459
:101370004A0A0C94950A5F3FE4F3983ED4F38695AD
:1013800077956795B795F7959F5FC9F7880F911D7A
:101390009695879597F90895E1E0660F771F881F66
:1013A000BB1F621773078407BA0720F0621B730B19
:1013B000840BBA0BEE1F88F7E09508950E947A0A15
:1013C00088F09F5798F0B92F9927B751B0F0E1F006
:1013D000660F771F881F991F1AF0BA95C9F714C0B6
:1013E000B13091F00E94940AB1E008950C94940AEF
:1013F000672F782F8827B85F39F0B93FCCF38695EF
:1014000077956795B395D9F73EF49095809570954B
:1014100061957F4F8F4F9F4F0895E89409C097FBC8
:101420003EF490958095709561957F4F8F4F9F4FBB
:101430009923A9F0F92F96E9BB279395F6958795FF
:1014400077956795B795F111F8CFFAF4BB0F11F4C2
:1014500060FF1BC06F5F7F4F8F4F9F4F16C0882369
:1014600011F096E911C0772321F09EE8872F762F9F
:1014700005C0662371F096E8862F70E060E02AF0E0
:101480009A95660F771F881FDAF7880F96958795CC
:1014900097F9089597F99F6780E870E060E00895F4
:1014A0009FEF80EC089500240A941616170618067C
:1014B0000906089500240A94121613061406050658
:1014C0000895092E0394000C11F4882352F0BB0FE9
:1014D00040F4BF2B11F460FF04C06F5F7F4F8F4F4C
:1014E0009F4F089557FD9058440F551F59F05F3F87
:1014F00071F04795880F97FB991F61F09F3F79F036
:1015000087950895121613061406551FF2CF4695B7
:10151000F1DF08C0161617061806991FF1CF869539
:101520007105610508940895E894BB27662777271D
:10153000CB0197F90895991B79E004C0991F96177C
:1015400008F0961B881F7A95C9F78095089597FB38
:10155000072E16F4009407D077FD09D00E94E30A05
:1015600007FC05D03EF4909581959F4F08957095A6
:1015700061957F4F0895A1E21A2EAA1BBB1BFD01A6
:101580000DC0AA1FBB1FEE1FFF1FA217B307E40762
:10159000F50720F0A21BB30BE40BF50B661F771FBA
:1015A000881F991F1A9469F760957095809590959A
:1015B0009B01AC01BD01CF010895EE0FFF1F059007
:1015C000F491E02D0994AA1BBB1B51E107C0AA1F8F
:1015D000BB1FA617B70710F0A61BB70B881F991FD4
:1015E0005A95A9F780959095BC01CD010895FB010E
:1015F000DC018D91019080190110D9F3990B0895A8
:10160000FB01DC0101900D920020E1F70895AEE0AE
:10161000B0E0EDE0FBE00C94B60D0D891E8986E08C
:101620008C831A8309838FEF9FE79E838D83AE019E
:10163000475E5F4F6F89788DCE0101960E942A0B1D
:101640002F813885020F131FF80110822E96E4E0D7
:101650000C94D20DABE0B0E0E0E3FBE00C94A80DFD
:101660007C013B018A01FC0117821682838181FF84
:10167000C8C1CE0101965C01F7019381F30193FD8E
:10168000859193FF81913F01882309F453C18532ED
:1016900039F493FD859193FF81913F01853229F4BF
:1016A000B70190E00E941A0DE7CF912C212C312C2C
:1016B000FFE1F31538F08B3211F190F4803209F12B
:1016C000833229F137FC3CC020ED280F2A3050F539
:1016D00036FE20C08AE0989E200D1124922E06C06E
:1016E0008D3291F0803371F7689430F8F30193FDF7
:1016F000859193FF81913F018111DACF21C06894D8
:1017000031F8689432F8F2CF689433F8EFCF6894E8
:1017100034F8ECCFEAE02E9E200D1124222E68949E
:1017200035F8E4CF8E3229F436FC04C1689436F8DB
:10173000DDCF8C3619F4689437F8D8CF8836B1F2FB
:10174000982F9F7D95549330E0F08336A1F1833735
:10175000C1F1833509F063C02801F2E04F0E511C3E
:10176000F801C080D180692D70E036FC02C06FEFB7
:101770007FEFC6010E94040D4C01689437F8820186
:101780000AC00C5F1F4FFFE3F98388248394912CD8
:101790006501E89437F833FE2DC0522C8114910472
:1017A00071F5552009F468CFB70180E290E00E94FE
:1017B0001A0D5A94F6CFF801808189830E5F1F4F6E
:1017C000E4CF2801F2E04F0E511CF801C080D18017
:1017D000692D70E036FC02C06FEF7FEFC6010E94FA
:1017E0000F0D4C018201D5CFB70180E290E00E943D
:1017F0001A0D2A942814190409F0B0F7CECFF60177
:1018000037FC859137FE81916F01B70190E00E940E
:101810001A0D51105A94F1E08F1A9108BFCF8436F7
:1018200019F0893609F077C0F80137FE6BC0608186
:101830007181828193810C5F1F4FF32DFF763F2EC4
:1018400097FF09C090958095709561957F4F8F4F58
:101850009F4F689437F82AE030E0A5010E944A0DB6
:10186000C82ECA188C2C432C36FE0CC0E89440F8C5
:10187000C91440F434FE05C032FC03C0F32DFE7ED3
:101880004F2E892C44FE95C0FE01EC0DF11D808188
:10189000803309F087C0242D297E422E842D887044
:1018A000582E43FC95C040FE8FC09C2C821418F427
:1018B0002C0C922C981844FE91C0B70180E390E064
:1018C0000E941A0D42FE09C088E790E041FE02C066
:1018D00088E590E0B7010E941A0DC91408F48AC087
:1018E000CA94D12C9FEFC91AD90ACA0CDB1CF60185
:1018F00082916F01B70190E00E941A0DAC14BD04F3
:10190000B1F74FCF60817181072E000C880B990BC6
:101910000E5F1F4F92CFD32CE894D4F82AE030E02A
:10192000853739F1232D297FD22E8F3601F148F4E6
:101930008835A9F0F701868197812B96E2E10C9416
:10194000C40D803749F08837A9F7D4FE02C06894E7
:10195000D2F820E130E00DC06894D4F8F6CF34FE20
:1019600003C0822F8660D82E20E132E002C028E03A
:1019700030E0F801D7FE0FC06081718182819381D0
:101980000C5F1F4FA5010E944A0DC82ECA183D2C9E
:10199000E89437F867CF6081718190E080E00E5F56
:1019A0001F4FF0CF42FC02C0839478CF839483947E
:1019B00075CF842D867809F471CFF6CFB70180E218
:1019C00090E00E941A0D83948214C0F3512C73CFBF
:1019D000522C5818821408F46ECFF8CF842D8678D4
:1019E00009F47BCF8BE241FE80E247FC8DE2B70138
:1019F00090E071CFB70180E390E00E941A0D9A94B5
:101A00006CCF8FEF9FEF99CFFC0105906150704034
:101A10000110D8F7809590958E0F9F1F0895FC01B7
:101A20006150704001900110D8F7809590958E0F0D
:101A30009F1F08950F931F93CF93DF93182F092FA4
:101A4000EB018B8181FD09C01FEF0FEF812F902FDC
:101A5000DF91CF911F910F91089582FF14C02E81C5
:101A60003F818C819D81281739073CF4E881F981F9
:101A7000CF0101969983888310838E819F8101967F
:101A80009F838E83E3CFE885F985812F0995892B84
:101A9000A1F3DACFFA01AA27283051F1203181F1E0
:101AA000E8946F936E7F6E5F7F4F8F4F9F4FAF4F66
:101AB000B1E03ED0B4E03CD0670F781F891F9A1F79
:101AC000A11D680F791F8A1F911DA11D6A0F711D2D
:101AD000811D911DA11D20D009F468943F912AE039
:101AE000269F11243019305D3193DEF6CF01089521
:101AF000462F4770405D4193B3E00FD0C9F7F6CF52
:101B0000462F4F70405D4A3318F0495D31FD405219
:101B1000419302D0A9F7EACFB4E0A69597958795AF
:101B200077956795BA95C9F700976105710508958E
:101B30009B01AC010A2E069457954795379527953A
:101B4000BA95C9F7620F731F841F951FA01D0895D2
:101B50002F923F924F925F926F927F928F929F92BD
:101B6000AF92BF92CF92DF92EF92FF920F931F93AB
:101B7000CF93DF93CDB7DEB7CA1BDB0B0FB6F8945C
:101B8000DEBF0FBECDBF09942A88398848885F849C
:101B90006E847D848C849B84AA84B984C884DF800D
:101BA000EE80FD800C811B81AA81B981CE0FD11DF1
:101BB0000FB6F894DEBF0FBECDBFED010895F894C7
:101BC000FFCFFF01010001003200640001000000AE
:101BD00000000000005F0000000007000700001484
:101BE0007F147F1400242A7F2A12002313086462C2
:101BF00000364955225000000503000000001C2259
:101C00004100000041221C000014083E0814000896
:101C1000083E0808000050300000000808080808C6
:101C2000000060600000002010080402003E5149DE
:101C3000453E0000427F400000426151494600217C
:101C400041454B31001814127F1000274545453996
:101C5000003C4A49493000017109050300364949F1
:101C6000493600064949291E0000363600000000AA
:101C700056360000000814224100001414141414F5
:101C8000000041221408000201510906003E415D96
:101C9000594E007E1111117E007F49494936003EA0
:101CA00041414122007F4141221C007F4949494175
:101CB000007F09090901003E4149497A007F08086F
:101CC000087F0000417F4100002040413F01007F2C
:101CD00008142241007F40404040007F020C027FF8
:101CE000007F0408107F003E4141413E007F09090A
:101CF0000906003E4151215E007F09192946004630
:101D0000494949310001017F0101003F4040403F06
:101D1000001F2040201F007F2018207F0063140830
:101D2000146300070870080700615149454300002B
:101D30007F414100000204081020000041417F0063
:101D400000040201020400808080808000000305FE
:101D50000000002054545478007F48444438003830
:101D60004444442000384444487F003854545418B4
:101D700000087E090102000C5252523E007F080406
:101D800004780000447D4000002040443D00007F76
:101D9000102844000000417F4000007C0418047CAF
:101DA000007C08040478003844444438007C14144F
:101DB000140800081414147C007C0804040800486B
:101DC0005454542000043F444020003C4040207CB8
:101DD000001C2040201C003C4030403C00442810A7
:101DE0002844000C5050503C004464544C440000C3
:101DF000083641000000007F000000004136080066
:101E00000008040810080041425249520046454368
:101E10004841520050415241520050726F6A6574FD
:101E20006F204C414253490053656D2053656E73DA
:101E30006F72657300312053656E736F722050723C
:101E40006F6E746F00322053656E736F726573200E
:101E500050726F6E746F73004C555A3A202533756B
:101E6000206C787C5345543A20253375004D4F44FF
:101E70004F3A204155544F4D415449434F004D4F27
:101E8000444F3A204D414E55414C20202020004DDA
:101E9000313A2573204D323A2573002D2D2D2D2DED
:101EA0002D2D2D2D2D2D2D2D2D2D2D004369636CC8
:101EB0006F733A2025347500443A25632C25752C20
:101EC00025752C25632C25632C256C642C256C64CE
:021ED0000A0006
:107E8000112424B614BE80E079D021FEEBC08EE030
:107E900075D0E0ECF0E0AFE7BFEF4899FECF9096E9
:107EA000489BFDCFB4831197F1F7B2E0B083B8E1FE
:107EB000B18352D0C82F823569F466D0E0E0FEE786
:107EC000A89583E093D091D0E058F109C8F787E7EF
:107ED0003CD0EFCF8D7FD9F44CD0D82FA0E0B1E0CB
:107EE0003BD08D93DA13FCCFA0E0B1E04DD0C111AF
:107EF0000CC0F2BDE1BD8D9180BDFA9AF99A319620
:107F0000F999FECFD150A9F7E2CF48D0E0CFC330E6
:107F100041F42FD0C82F38D0859117D0C150E1F748
:107F2000D6CFC13061F425D0C82F2ED0F2BDE1BD2F
:107F3000F89A80B50AD03196C150C1F7C8CFC13583
:107F400011F488E01BD020D0C2CF9091C00095FFE3
:107F5000FCCF8093C60008952D9A259A8091C00089
:107F600087FFFCCF84FD13C0A8958091C6002D9893
:107F70000895F2DFE82FF0DFF82FEECF98E190932D
:107F80006000809360000895E7DF803219F088E098
:107F9000F5DFFFCF80EAD9CFFB01DC01E07870E8A4
:107FA0007A0F9F01E0388EE7F80728F5309629F41C
:107FB0008FE38D938FEC8C93119790E045915D91B9
:107FC00045139160A713FACFF901A058B10990FFAA
:107FD00012C083E00BD081E00D901D9007D0329647
:107FE000A713FACFF90185E001D081E187BFE895B9
:107FF00017B610FCFDCF112408950319CDCFE7402B
:00000001FF
