:020000040000FA
:100000000C9434000C9451000C9451000C94510049
:100010000C94A7010C9451000C9451000C945100C5
:100020000C9451000C9451000C9451000C9451000C
:100030000C9451000C9451000C94EB010C94510061
:100040000C9451000C9451000C9451000C945100EC
:100050000C9451000C9451000C9451000C945100DC
:100060000C9451000C94510011241FBECFEFD8E026
:10007000DEBFCDBF11E0A0E0B1E0E0E2F4E102C0FC
:1000800005900D92AC36B107D9F721E0ACE6B1E0AE
:1000900001C01D92AE39B207E1F70E945B020C94D9
:1000A0000E0A0C9400008093BB0084E88093BC008F
:1000B00081E29EE42091BC0027FD02C00197D1F7A8
:1000C000089584EA8093BC0081E29EE42091BC0004
:1000D00027FD02C00197D1F70895CF93C82F0E9442
:1000E00061008091B900887F883039F084E980937D
:1000F000BC0090E080E0CF9108958C2F880F816044
:100100000E9453008091B900887F803479F784EC95
:100110008093BC0081E29EE42091BC0027FD02C0D8
:100120000197D1F76091BB0084E88093BC0081E225
:100130009EE42091BC0027FD02C00197D1F7809179
:10014000BB0094E99093BC00762F682F90E080E08C
:100150000E944C062AE939E949E95FE30E94AB05B0
:100160000E941D06CB016D3D7F4F28F28CED9FEF65
:10017000C2CFCF93DF93D82FC62F0E9461008D2F5F
:10018000880F0E9453008091B900887F883139F030
:1001900084E98093BC0080E0DF91CF9108958C2F9B
:1001A0000E9453008091B900887F883289F784E9E2
:1001B0008093BC0081E0F0CF20916F0130917001FD
:1001C00081E0232B09F080E00895AC0130E020E0CD
:1001D00094E00000000000000000000000000000AB
:1001E000000000000000000000000000000000000F
:1001F0000000915071F72F5F3F4F4217530741F7AF
:1002000008951F93CF93DF93509A509892E08130D6
:1002100009F093E08BB1C1E0D0E002C0CC0FDD1F4C
:100220009A95E2F71C2F109581238BB982E090E01C
:100230000E94E5008BB18C2B8BB98AE090E00E9484
:10024000E5008BB181238BB930E020E089B190E0EB
:100250008C239D23892B39F4283883E1380749F111
:100260002F5F3F4FF3CF2838334119F1409184007D
:100270005091850029E833E189B190E08C239D23DA
:10028000892B19F021503109B9F7809184009091A0
:1002900085009C018417950730F4209186003091E9
:1002A0008700280F391F241B350B81E02C32314089
:1002B00008F080E0DF91CF911F910895CF93DF93F5
:1002C00083FBCC27C0F982FDC26081FDC46080FD44
:1002D000C8606111C0680E94610080E40E94530000
:1002E0008C2F80640E945300D4E9D093BC0088EC2A
:1002F00090E00E94E5000E94610080E40E945300AB
:100300008C2F0E945300D093BC0088EC90E0DF91CA
:10031000CF910C94E500CF93DF93C82FD62F829511
:100320008F700E945E016D2F8C2F8F70DF91CF91A7
:100330000C945E01CF93DF93EC018991882321F027
:1003400061E00E948B01F9CFDF91CF9108951F9258
:100350000F920FB60F9211242F933F938F939F9379
:1003600086B1827090916E01981770F590916D0131
:1003700091111CC090919901911123C091E090932B
:10038000990191E090930001909397012CEB30E05C
:10039000309389002093880090918801911103C0C7
:1003A00098EC9093880191E090936D0180936E0199
:1003B0009F918F913F912F910F900FBE0F901F90A3
:1003C000189510929901DDCF90916E01891770F701
:1003D00010926D01EBCF1F920F920FB60F92112466
:1003E0006F937F938F939F9381E080939C01809183
:1003F0006F0190917001892B49F080916F0190916C
:10040000700101979093700180936F018091950125
:10041000823079F48091890190918A01892B49F089
:100420008091890190918A01019790938A0180932C
:1004300089018091930190919401892B49F08091D9
:10044000930190919401019790939401809393016B
:1004500080918801882369F180918801815080937F
:1004600088018091880169E10E94DA06911104C037
:1004700088B191E0892788B980916C018F5F809362
:100480006C0180916C018A3F30F08BB190E4892738
:100490008BB910926C01809196018F5F80939601C9
:1004A0009F918F917F916F910F900FBE0F901F9032
:1004B00018954098E1CFCF93DF93CDB7DEB7A197E2
:1004C0000FB6F894DEBF0FBECDBF569A5E9882E09D
:1004D00084BD95E095BD9FE197BD80936E00239A02
:1004E0002B9881E88093B00083E08093B100109254
:1004F000B300219A8091800082688093800080916F
:10050000810083698093810084EC99E09093870057
:10051000809386008CEB90E0909389008093880014
:10052000399841988AB18F768AB98BB18F768BB919
:10053000389A40988AB18C608AB98AB1837F8AB927
:100540008BB1837F8BB98091680082608093680053
:1005500080916C00826080936C0078946AE0C62E73
:10056000D12C7AE0272E312C412C512C9E012F5F6B
:100570003F4F7901EDE7AE2EB12CFAEF8F2E912C83
:10058000A4EF6A2E7724739480919D018111EFC0AE
:10059000E0918D01E830C0F7F0E0EF52FD4F0C9490
:1005A0001C07D902F3020303140325034E0380033F
:1005B000A9038091BC0084608093BC001092B900B4
:1005C00088E48093B80087B18F7C87B988B1806355
:1005D00088B98AE190E09093700180936F0181E087
:1005E00080938D01D1CF0E94DC00813069F660E0FC
:1005F00083E00E945E0183E090E09093700180931D
:100600006F0182E0EDCF0E94DC00813009F0BCCFA9
:1006100060E083E00E945E0181E090E090937001D1
:1006200080936F0183E0DCCF0E94DC00813009F011
:10063000ABCF60E083E00E945E0181E090E09093A8
:10064000700180936F0184E0CBCF0E94DC00813089
:1006500009F09ACF60E082E00E945E0160E088E2EB
:100660000E948B0160E08CE00E948B0160E081E0E1
:100670000E948B0160E086E00E948B0160E080E8D0
:100680000E948B018CE091E00E949A018FEE92E033
:100690009093700180936F0185E0A2CF0E94DC00EF
:1006A000813009F071CF60E00E948B0161E083E24C
:1006B0000E94B900882339F061E183E20E94B90009
:1006C00011E0811101C010E01093720161E08CE52E
:1006D0000E94B900882339F061E18CE50E94B900DD
:1006E00091E0811101C090E090937101190F109376
:1006F0008E0186E090E09093700180936F0170CF3F
:100700000E94DC00813009F03FCF60E080E80E9469
:100710008B0180918E0181110CC08AE191E00E94D1
:100720009A018FEE92E09093700180936F0187E0C1
:1007300057CF813019F487E291E0F1CF87E391E060
:100740000E949A0160E080EC0E948B0182E491E0BB
:10075000E6CF0E94DC00182F813009F015CF60E051
:1007600081E00E948B0110939D018FEF39CF809122
:100770009C01882309F408CF10929C01809172019A
:1007800010E000E0882321F083E20E946D008C01DC
:1007900080917101882309F414C18CE50E946D00D9
:1007A00030918E0139A3313009F00EC101151105C8
:1007B00009F0C8012091870130E0F901EE0FFF1F19
:1007C000ED58FE4F91838083C9010196B6010E94C6
:1007D000E60680938701E3E7F1E060E070E0CB019B
:1007E00021913191620F731F811D911D27E831E026
:1007F0002E173F07A9F7A20191010E94FA06309334
:100800009B0120939A018091990181112BC14C9BEE
:10081000E6C080918C018B3018F48F5F80938C013F
:1008200080918C018A30F1F48BE080938C0180916F
:1008300095018230B9F08091010190910201883ECA
:10084000934048F48091010190910201C2969093E7
:1008500002018093010180919501811103C081E023
:10086000809395014F9BBEC080918B018B3018F413
:100870008F5F80938B0180918B018A30E9F48BE04C
:1008800080938B01809195018230B1F080910101BC
:1008900090910201892B49F0809101019091020110
:1008A000C29790930201809301018091950181117B
:1008B00003C081E08093950180919501813009F01A
:1008C00094C04C990BC04F9909C088EE93E0909367
:1008D0008A018093890182E08093950180910301D0
:1008E0009091040169A16623B1F060918D016F3F81
:1008F00091F4821B930B9C01225E3F4F2D333105F7
:1009000008F097C081E0809397018CEB90E0909382
:10091000890080938800E091970115E4E33020F48A
:10092000F0E0EB5FFE4F108180919601843608F471
:100930002BCE1092960120910301309104018091F9
:100940009501882321F020910101309102018091CD
:1009500099018111FDC088E091E03F932F939F930F
:100960008F932AE431E03F932F93FF92EF920E94FE
:10097000360760E080E80E948B01C7010E949A015F
:10098000812F012E000C990B9F931F9380919B0147
:100990008F9380919A018F938AE591E09F938F9333
:1009A000FF92EF920E94360760E080EC0E948B017C
:1009B000C7010E949A010FB6F894DEBF0FBECDBFEB
:1009C000E3CD90E080E0ECCE69A1623029F4800FA5
:1009D000911F96958795EECE90E080E0EBCE109239
:1009E0008C011ECF10928B0146CF809195018230F1
:1009F00009F074CF4C991BC04F9919C0809189019F
:100A000090918A01892B09F069CF80910101909121
:100A10000201909304018093030180918801811168
:100A200003C080E9809388011092950157CF81E03F
:100A300053CFE09197014F975CF0E23009F470CF0B
:100A400082E080939701909289008092880063CF22
:100A5000EE2309F465CF10929701B0928900A0921D
:100A6000880059CF4C9B09C080918F018F3F09F0BE
:100A70008B5F8093B30080938F014F9B09C080915F
:100A80008F01882369F085508093B30080938F0194
:100A9000809198018F5F893140F4809398013BCF1A
:100AA0001092B30010928F01F3CF1092980181E061
:100AB0000E940101182F82E00E9401012091930100
:100AC00030919401232B29F490919201911110926D
:100AD00092019091920191111AC0112381F090918D
:100AE000910191110CC091E0909392017092940148
:100AF0006092930110939101809390010CCF882311
:100B0000C9F3909190019111F5CF92E0EDCF9091C2
:100B10009201913081F4882369F392E090939701D8
:100B20009092890080928800109292011092940114
:100B300010929301DFCF909192019230D9F6112358
:100B4000C9F210929701B0928900A0928800ECCF70
:100B50008AE091E002CF0E94BF050C94A0060E949B
:100B6000990658F00E94920640F029F45F3F29F060
:100B70000C94890651110C94D4060C948F060E9493
:100B8000B10668F39923B1F3552391F3951B550BE7
:100B9000BB27AA2762177307840738F09F5F5F4F50
:100BA000220F331F441FAA1FA9F335D00E2E3AF08F
:100BB000E0E832D091505040E695001CCAF72BD0A7
:100BC000FE2F29D0660F771F881FBB1F26173707F8
:100BD0004807AB07B0E809F0BB0B802DBF01FF272A
:100BE00093585F4F3AF09E3F510578F00C94890678
:100BF0000C94D4065F3FE4F3983ED4F38695779542
:100C00006795B795F7959F5FC9F7880F911D9695E2
:100C1000879597F90895E1E0660F771F881FBB1F3E
:100C2000621773078407BA0720F0621B730B840BEB
:100C3000BA0BEE1F88F7E09508950E94B90688F078
:100C40009F5798F0B92F9927B751B0F0E1F0660F90
:100C5000771F881F991F1AF0BA95C9F714C0B130D1
:100C600091F00E94D306B1E008950C94D306672F4B
:100C7000782F8827B85F39F0B93FCCF38695779500
:100C80006795B395D9F73EF49095809570956195E9
:100C90007F4F8F4F9F4F0895E89409C097FB3EF414
:100CA00090958095709561957F4F8F4F9F4F9923B9
:100CB000A9F0F92F96E9BB279395F6958795779537
:100CC0006795B795F111F8CFFAF4BB0F11F460FFF7
:100CD0001BC06F5F7F4F8F4F9F4F16C0882311F04F
:100CE00096E911C0772321F09EE8872F762F05C063
:100CF000662371F096E8862F70E060E02AF09A95FE
:100D0000660F771F881FDAF7880F9695879597F9F2
:100D1000089597F99F6780E870E060E008959FEF7D
:100D200080EC089500240A94161617061806090682
:100D3000089500240A941216130614060506089551
:100D4000092E0394000C11F4882352F0BB0F40F4D9
:100D5000BF2B11F460FF04C06F5F7F4F8F4F9F4F19
:100D6000089557FD9058440F551F59F05F3F71F09B
:100D70004795880F97FB991F61F09F3F79F0879502
:100D80000895121613061406551FF2CF4695F1DF8B
:100D900008C0161617061806991FF1CF869571051B
:100DA000610508940895E894BB2766277727CB014F
:100DB00097F90895991B79E004C0991F961708F0D8
:100DC000961B881F7A95C9F78095089597FB072E83
:100DD00016F4009407D077FD09D00E94220707FC83
:100DE00005D03EF4909581959F4F0895709561953B
:100DF0007F4F0895A1E21A2EAA1BBB1BFD010DC057
:100E0000AA1FBB1FEE1FFF1FA217B307E407F507BA
:100E100020F0A21BB30BE40BF50B661F771F881F96
:100E2000991F1A9469F760957095809590959B012C
:100E3000AC01BD01CF010895EE0FFF1F0590F491A5
:100E4000E02D0994AA1BBB1B51E107C0AA1FBB1FC1
:100E5000A617B70710F0A61BB70B881F991F5A9546
:100E6000A9F780959095BC01CD010895AEE0B0E062
:100E7000ECE3F7E00C94E5090D891E8986E08C838C
:100E80001A8309838FEF9FE79E838D83AE01475EB0
:100E90005F4F6F89788DCE0101960E9459072F818F
:100EA0003885020F131FF80110822E96E4E00C948F
:100EB000010AABE0B0E0EFE5F7E00C94D7097C0164
:100EC0003B018A01FC0117821682838181FFC8C120
:100ED000CE0101965C01F7019381F30193FD8591A9
:100EE00093FF81913F01882309F453C1853239F47E
:100EF00093FD859193FF81913F01853229F4B701DC
:100F000090E00E944909E7CF912C212C312CFFE180
:100F1000F31538F08B3211F190F4803209F18332FD
:100F200029F137FC3CC020ED280F2A3050F536FE61
:100F300020C08AE0989E200D1124922E06C08D328A
:100F400091F0803371F7689430F8F30193FD859147
:100F500093FF81913F018111DACF21C0689431F86C
:100F6000689432F8F2CF689433F8EFCF689434F88D
:100F7000ECCFEAE02E9E200D1124222E689435F845
:100F8000E4CF8E3229F436FC04C1689436F8DDCF04
:100F90008C3619F4689437F8D8CF8836B1F2982F88
:100FA0009F7D95549330E0F08336A1F18337C1F1F2
:100FB000833509F063C02801F2E04F0E511CF8019F
:100FC000C080D180692D70E036FC02C06FEF7FEFEA
:100FD000C6010E9433094C01689437F882010AC0A7
:100FE0000C5F1F4FFFE3F98388248394912C6501E4
:100FF000E89437F833FE2DC0522C8114910471F51A
:10100000552009F468CFB70180E290E00E944909B9
:101010005A94F6CFF801808189830E5F1F4FE4CF89
:101020002801F2E04F0E511CF801C080D180692DDB
:1010300070E036FC02C06FEF7FEFC6010E943E09F0
:101040004C018201D5CFB70180E290E00E944909AE
:101050002A942814190409F0B0F7CECFF60137FC12
:10106000859137FE81916F01B70190E00E94490997
:1010700051105A94F1E08F1A9108BFCF843619F0BD
:10108000893609F077C0F80137FE6BC06081718145
:10109000828193810C5F1F4FF32DFF763F2E97FFC8
:1010A00009C090958095709561957F4F8F4F9F4FA8
:1010B000689437F82AE030E0A5010E947909C82E2B
:1010C000CA188C2C432C36FE0CC0E89440F8C91486
:1010D00040F434FE05C032FC03C0F32DFE7E4F2EDB
:1010E000892C44FE95C0FE01EC0DF11D80818033FA
:1010F00009F087C0242D297E422E842D8870582E19
:1011000043FC95C040FE8FC09C2C821418F42C0C1C
:10111000922C981844FE91C0B70180E390E00E94A1
:10112000490942FE09C088E790E041FE02C088E517
:1011300090E0B7010E944909C91408F48AC0CA9412
:10114000D12C9FEFC91AD90ACA0CDB1CF601829177
:101150006F01B70190E00E944909AC14BD04B1F7DA
:101160004FCF60817181072E000C880B990B0E5FA9
:101170001F4F92CFD32CE894D4F82AE030E0853783
:1011800039F1232D297FD22E8F3601F148F488358D
:10119000A9F0F701868197812B96E2E10C94F3097F
:1011A000803749F08837A9F7D4FE02C06894D2F896
:1011B00020E130E00DC06894D4F8F6CF34FE03C0CF
:1011C000822F8660D82E20E132E002C028E030E095
:1011D000F801D7FE0FC060817181828193810C5F1D
:1011E0001F4FA5010E947909C82ECA183D2CE8940A
:1011F00037F867CF6081718190E080E00E5F1F4F0C
:10120000F0CF42FC02C0839478CF8394839475CF4F
:10121000842D867809F471CFF6CFB70180E290E093
:101220000E94490983948214C0F3512C73CF522C2D
:101230005818821408F46ECFF8CF842D867809F4FC
:101240007BCF8BE241FE80E247FC8DE2B70190E06C
:1012500071CFB70180E390E00E9449099A946CCF66
:101260008FEF9FEF99CFFC01059061507040011006
:10127000D8F7809590958E0F9F1F0895FC016150BF
:10128000704001900110D8F7809590958E0F9F1FA8
:1012900008950F931F93CF93DF93182F092FEB011E
:1012A0008B8181FD09C01FEF0FEF812F902FDF9100
:1012B000CF911F910F91089582FF14C02E813F811D
:1012C0008C819D81281739073CF4E881F981CF0191
:1012D00001969983888310838E819F8101969F83D5
:1012E0008E83E3CFE885F985812F0995892BA1F3BA
:1012F000DACFFA01AA27283051F1203181F1E894A0
:101300006F936E7F6E5F7F4F8F4F9F4FAF4FB1E0F8
:101310003ED0B4E03CD0670F781F891F9A1FA11DF3
:10132000680F791F8A1F911DA11D6A0F711D811DF4
:10133000911DA11D20D009F468943F912AE0269FB9
:1013400011243019305D3193DEF6CF010895462F18
:101350004770405D4193B3E00FD0C9F7F6CF462FF9
:101360004F70405D4A3318F0495D31FD4052419362
:1013700002D0A9F7EACFB4E0A6959795879577951F
:101380006795BA95C9F700976105710508959B01A6
:10139000AC010A2E06945795479537952795BA952F
:1013A000C9F7620F731F841F951FA01D08952F9208
:1013B0003F924F925F926F927F928F929F92AF92E5
:1013C000BF92CF92DF92EF92FF920F931F93CF9332
:1013D000DF93CDB7DEB7CA1BDB0B0FB6F894DEBFC9
:1013E0000FBECDBF09942A88398848885F846E84EF
:1013F0007D848C849B84AA84B984C884DF80EE8039
:10140000FD800C811B81AA81B981CE0FD11D0FB641
:10141000F894DEBF0FBECDBFED010895F894FFCF65
:10142000016400960046504141004D0050726F6AC1
:1014300065746F204C414253490053656D205365DC
:101440006E736F72657300312053656E736F722017
:1014500050726F6E746F00322053656E736F7265D9
:10146000730050726F6E746F73004D4F444F3A2586
:1014700073205345543A253475004C75783A253419
:0C14800075204D6F746F723A25630000F8
:107E8000112424B614BE80E079D021FEEBC08EE030
:107E900075D0E0ECF0E0AFE7BFEF4899FECF9096E9
:107EA000489BFDCFB4831197F1F7B2E0B083B8E1FE
:107EB000B18352D0C82F823569F466D0E0E0FEE786
:107EC000A89583E093D091D0E058F109C8F787E7EF
:107ED0003CD0EFCF8D7FD9F44CD0D82FA0E0B1E0CB
:107EE0003BD08D93DA13FCCFA0E0B1E04DD0C111AF
:107EF0000CC0F2BDE1BD8D9180BDFA9AF99A319620
:107F0000F999FECFD150A9F7E2CF48D0E0CFC330E6
:107F100041F42FD0C82F38D0859117D0C150E1F748
:107F2000D6CFC13061F425D0C82F2ED0F2BDE1BD2F
:107F3000F89A80B50AD03196C150C1F7C8CFC13583
:107F400011F488E01BD020D0C2CF9091C00095FFE3
:107F5000FCCF8093C60008952D9A259A8091C00089
:107F600087FFFCCF84FD13C0A8958091C6002D9893
:107F70000895F2DFE82FF0DFF82FEECF98E190932D
:107F80006000809360000895E7DF803219F088E098
:107F9000F5DFFFCF80EAD9CFFB01DC01E07870E8A4
:107FA0007A0F9F01E0388EE7F80728F5309629F41C
:107FB0008FE38D938FEC8C93119790E045915D91B9
:107FC00045139160A713FACFF901A058B10990FFAA
:107FD00012C083E00BD081E00D901D9007D0329647
:107FE000A713FACFF90185E001D081E187BFE895B9
:107FF00017B610FCFDCF112408950319CDCFE7402B
:00000001FF
