:100000000C9434000C9451000C9451000C94510049
:100010000C943D010C9451000C9451000C9451002F
:100020000C9451000C9451000C9451000C9451000C
:100030000C9451000C9451000C9481010C945100CB
:100040000C9451000C9451000C9451000C945100EC
:100050000C9451000C9451000C9451000C945100DC
:100060000C9451000C94510011241FBECFEFD8E026
:10007000DEBFCDBF11E0A0E0B1E0E6E3F2E102C0F7
:1000800005900D92AC36B107D9F721E0ACE6B1E0AE
:1000900001C01D92A739B207E1F70E94E2010C945A
:1000A00019090C94000088EC90E024E000000000A6
:1000B0000000000000000000000000000000000040
:1000C000000000000000000000000000215071F757
:1000D000019759F708958093BB0084E88093BC0092
:1000E00081E29EE42091BC0027FD02C00197D1F778
:1000F000089584EA8093BC0081E29EE42091BC00D4
:1001000027FD02C00197D1F70895CF93C82F0E9411
:1001100079008091B900887F883039F084E9809334
:10012000BC0090E080E0CF9108958C2F880F816013
:100130000E946B008091B900887F803479F784EC4D
:100140008093BC0081E29EE42091BC0027FD02C0A8
:100150000197D1F76091BB0084E88093BC0081E2F5
:100160009EE42091BC0027FD02C00197D1F7809149
:10017000BB0094E99093BC00762F682F90E080E05C
:100180000E9457052AE939E949E95FE30E94B6046C
:100190000E942805CB01C7CFCF93DF93D82FC62F5E
:1001A0000E9479008D2F880F0E946B008091B9000A
:1001B000887F883139F084E98093BC0080E0DF914A
:1001C000CF9108958C2F0E946B008091B900887F99
:1001D000883289F784E98093BC0081E0F0CFCF9327
:1001E000DF9383FBCC27C0F982FDC26081FDC46030
:1001F00080FDC8606111C0680E94790080E40E949F
:100200006B008C2F80640E946B00D4E9D093BC00FB
:100210000E9453000E94790080E40E946B008C2FA2
:100220000E946B00D093BC00DF91CF910C945300DF
:10023000CF93DF93C82FD62F82958F700E94EF0047
:100240006D2F8C2F8F70DF91CF910C94EF00CF9397
:10025000DF93EC018991882321F061E00E9418016D
:10026000F9CFDF91CF91089520916F013091700106
:1002700081E0232B09F080E008951F920F920FB6C2
:100280000F9211242F933F938F939F9386B1827087
:1002900090916E01981770F590916D0191111CC0AD
:1002A00090919201911123C091E09093920191E07D
:1002B00090930001909391012CEB30E030938900F2
:1002C0002093880090918801911103C098EC90933D
:1002D000880191E090936D0180936E019F918F91C1
:1002E0003F912F910F900FBE0F901F901895109275
:1002F0009201DDCF90916E01891770F710926D0118
:10030000EBCF1F920F920FB60F9211246F937F9332
:100310008F939F9381E08093950180916F019091DD
:100320007001892B49F080916F01909170010197C4
:100330009093700180936F0180918F01823079F4E6
:100340008091890190918A01892B49F080918901DE
:1003500090918A01019790938A01809389018091FD
:100360008801882369F180918801815080938801F8
:100370008091880169E10E94E505911104C088B16E
:1003800091E0892788B980916C018F5F80936C011F
:1003900080916C018A3F30F08BB190E489278BB952
:1003A00010926C01809190018F5F809390019F91DA
:1003B0008F917F916F910F900FBE0F901F901895A6
:1003C0004098E1CFCF93DF93CDB7DEB7A1970FB6BB
:1003D000F894DEBF0FBECDBF569A5E9882E084BD12
:1003E00095E095BD9FE197BD80936E00219A809125
:1003F0008000826880938000809181008361809377
:10040000810088E893E190938700809386008CEBCD
:1004100090E09093890080938800399841988AB140
:100420008F768AB98BB18F768BB9809168008260A4
:100430008093680080916C00826080936C00389A91
:10044000409878946AE0C62ED12C7AE0272E312C81
:10045000412C512C9E012F5F3F4F7901ECEBAE2ECA
:10046000B12CF4E18F2E912CA8EE6A2EA3E07A2E07
:10047000809196018111EFC0E0918D01E830C0F7C5
:10048000F0E0EB5BFD4F0C9427064D02670277020C
:1004900088029902C202F4021D038091BC008460AC
:1004A0008093BC001092B90088E48093B80087B1B3
:1004B0008F7C87B988B1806388B98AE190E0909396
:1004C000700180936F0181E080938D01D1CF0E94F4
:1004D0003401813069F660E083E00E94EF0083E040
:1004E00090E09093700180936F0182E0EDCF0E94C5
:1004F0003401813009F0BCCF60E083E00E94EF005E
:1005000081E090E09093700180936F0183E0DCCFF5
:100510000E943401813009F0ABCF60E083E00E949B
:10052000EF0081E090E09093700180936F0184E090
:10053000CBCF0E943401813009F09ACF60E082E095
:100540000E94EF0060E088E20E94180160E08CE009
:100550000E94180160E081E00E94180160E086E0DE
:100560000E94180160E080E80E9418018CE091E090
:100570000E9427018FEE92E09093700180936F01AB
:1005800085E0A2CF0E943401813009F071CF60E094
:100590000E94180161E083E20E94CC00882339F0B8
:1005A00061E183E20E94CC0011E0811101C010E002
:1005B0001093720161E08CE50E94CC00882339F031
:1005C00061E18CE50E94CC0091E0811101C090E0D6
:1005D00090937101190F10938E0186E090E0909333
:1005E000700180936F0170CF0E943401813009F057
:1005F0003FCF60E080E80E94180180918E01811158
:100600000CC08AE191E00E9427018FEE92E0909366
:10061000700180936F0187E057CF813019F487E232
:1006200091E0F1CF87E391E00E94270160E080EC48
:100630000E94180182E491E0E6CF0E943401182F55
:10064000813009F015CF60E081E00E94180110931D
:1006500096018FEF39CF80919501882309F408CF57
:10066000109295018091720110E000E0882321F042
:1006700083E20E9485008C0180917101882309F436
:10068000E9C08CE50E94850030918E0139A331309C
:1006900009F0E3C00115110509F0C8012091870197
:1006A00030E0F901EE0FFF1FED58FE4F918380837C
:1006B000C9010196B6010E94F10580938701E3E725
:1006C000F1E060E070E0CB0121913191620F731F86
:1006D000811D911D27E831E02E173F07A9F7A201E0
:1006E00091010E940506309394012093930180911B
:1006F000920180919201811157C04C9BE2C0809180
:100700008C018111B5C08AE080938C014F9BFDC0A4
:1007100080918B018111D8C08AE080938B018091F8
:100720008C01882319F0815080938C0180918B017A
:10073000882309F4EDC0815080938B0180918F0153
:100740008230B9F48091890190918A01892B89F4D2
:100750008091010190910201909304018093030123
:1007600080918801811103C080E9809388011092F3
:100770008F01809103019091040169A16623A1F08A
:1007800060918D016F3F81F4821B930B9C01225E6F
:100790003F4F2D33310508F0C8C081E080939101AF
:1007A000B0928900A0928800E091910115E4E330B5
:1007B00020F4F0E0EB5FFE4F1081809190018436D1
:1007C00008F456CE1092900120910301309104015B
:1007D00080918F01882321F0209101013091020145
:1007E000809192018111BDC088E091E03F932F93E9
:1007F0009F938F938AE491E09F938F93FF92EF9260
:100800000E94410660E080E80E941801C7010E9432
:100810002701812F012E000C990B9F931F9380912C
:1008200094018F93809193018F938AE591E09F9338
:100830008F93FF92EF920E94410660E080EC0E944D
:100840001801C7010E9427010FB6F894DEBF0FBE42
:10085000CDBF0ECE90E080E017CF69A1623029F4C1
:10086000800F911F9695879519CF90E080E016CF65
:10087000813009F04BCF80918F01823011F180914E
:10088000010190910201883E9340A0F48091010102
:1008900090910201C2969093020180930101809190
:1008A000010190910201893E934020F07092020173
:1008B0006092010180918F01811103C081E08093DA
:1008C0008F0110928C0122CF813009F028CF8091C6
:1008D0008F018230D1F08091010190910201892B2A
:1008E00069F08091010190910201C29790930201F9
:1008F00080930101809101019091020180918F010B
:10090000811103C081E080938F0110928B0107CF8A
:1009100080918F01813009F011CF90928A018092ED
:10092000890182E080938F0109CF209191014F9737
:100930006CF0223008F038CF82E0809391018AEF8A
:1009400090E090938900809388002ECF222361F05D
:10095000109291012DE730E03093890020938800B8
:1009600023CF8AE091E042CFE0E023CF0E94CA0487
:100970000C94AB050E94A40558F00E949D0540F020
:1009800029F45F3F29F00C94940551110C94DF0574
:100990000C949A050E94BC0568F39923B1F3552382
:1009A00091F3951B550BBB27AA2762177307840782
:1009B00038F09F5F5F4F220F331F441FAA1FA9F318
:1009C00035D00E2E3AF0E0E832D091505040E69506
:1009D000001CCAF72BD0FE2F29D0660F771F881F67
:1009E000BB1F261737074807AB07B0E809F0BB0B5A
:1009F000802DBF01FF2793585F4F3AF09E3F51056E
:100A000078F00C9494050C94DF055F3FE4F3983E76
:100A1000D4F3869577956795B795F7959F5FC9F756
:100A2000880F911D9695879597F90895E1E0660FD7
:100A3000771F881FBB1F621773078407BA0720F050
:100A4000621B730B840BBA0BEE1F88F7E0950895B9
:100A50000E94C40588F09F5798F0B92F9927B75185
:100A6000B0F0E1F0660F771F881F991F1AF0BA9552
:100A7000C9F714C0B13091F00E94DE05B1E00895CD
:100A80000C94DE05672F782F8827B85F39F0B93FBF
:100A9000CCF3869577956795B395D9F73EF4909505
:100AA0008095709561957F4F8F4F9F4F0895E89483
:100AB00009C097FB3EF490958095709561957F4FA6
:100AC0008F4F9F4F9923A9F0F92F96E9BB27939554
:100AD000F695879577956795B795F111F8CFFAF464
:100AE000BB0F11F460FF1BC06F5F7F4F8F4F9F4F95
:100AF00016C0882311F096E911C0772321F09EE8F3
:100B0000872F762F05C0662371F096E8862F70E058
:100B100060E02AF09A95660F771F881FDAF7880F32
:100B20009695879597F9089597F99F6780E870E003
:100B300060E008959FEF80EC089500240A94161653
:100B4000170618060906089500240A9412161306BB
:100B5000140605060895092E0394000C11F4882349
:100B600052F0BB0F40F4BF2B11F460FF04C06F5F65
:100B70007F4F8F4F9F4F089557FD9058440F551F3B
:100B800059F05F3F71F04795880F97FB991F61F00F
:100B90009F3F79F087950895121613061406551F86
:100BA000F2CF4695F1DF08C0161617061806991FF2
:100BB000F1CF86957105610508940895E894BB27E7
:100BC00066277727CB0197F90895991B79E004C030
:100BD000991F961708F0961B881F7A95C9F780957C
:100BE000089597FB072E16F4009407D077FD09D0DF
:100BF0000E942D0607FC05D03EF4909581959F4FED
:100C00000895709561957F4F0895A1E21A2EAA1B51
:100C1000BB1BFD010DC0AA1FBB1FEE1FFF1FA217AC
:100C2000B307E407F50720F0A21BB30BE40BF50BA9
:100C3000661F771F881F991F1A9469F76095709532
:100C4000809590959B01AC01BD01CF010895EE0FF9
:100C5000FF1F0590F491E02D0994AA1BBB1B51E1E5
:100C600007C0AA1FBB1FA617B70710F0A61BB70B1C
:100C7000881F991F5A95A9F780959095BC01CD01C1
:100C80000895AEE0B0E0E7E4F6E00C94F0080D89DA
:100C90001E8986E08C831A8309838FEF9FE79E83EA
:100CA0008D83AE01475E5F4F6F89788DCE010196CF
:100CB0000E9464062F813885020F131FF8011082ED
:100CC0002E96E4E00C940C09ABE0B0E0EAE6F6E026
:100CD0000C94E2087C013B018A01FC011782168218
:100CE000838181FFC8C1CE0101965C01F701938128
:100CF000F30193FD859193FF81913F01882309F4CE
:100D000053C1853239F493FD859193FF81913F0161
:100D1000853229F4B70190E00E945408E7CF912C66
:100D2000212C312CFFE1F31538F08B3211F190F4C6
:100D3000803209F1833229F137FC3CC020ED280FC5
:100D40002A3050F536FE20C08AE0989E200D1124EE
:100D5000922E06C08D3291F0803371F7689430F88E
:100D6000F30193FD859193FF81913F018111DACFCA
:100D700021C0689431F8689432F8F2CF689433F85F
:100D8000EFCF689434F8ECCFEAE02E9E200D1124CA
:100D9000222E689435F8E4CF8E3229F436FC04C153
:100DA000689436F8DDCF8C3619F4689437F8D8CFCC
:100DB0008836B1F2982F9F7D95549330E0F08336BA
:100DC000A1F18337C1F1833509F063C02801F2E056
:100DD0004F0E511CF801C080D180692D70E036FCA7
:100DE00002C06FEF7FEFC6010E943E084C0168947D
:100DF00037F882010AC00C5F1F4FFFE3F983882494
:100E00008394912C6501E89437F833FE2DC0522C61
:100E10008114910471F5552009F468CFB70180E27F
:100E200090E00E9454085A94F6CFF801808189839B
:100E30000E5F1F4FE4CF2801F2E04F0E511CF80166
:100E4000C080D180692D70E036FC02C06FEF7FEF6B
:100E5000C6010E9449084C018201D5CFB70180E24A
:100E600090E00E9454082A942814190409F0B0F75D
:100E7000CECFF60137FC859137FE81916F01B70126
:100E800090E00E94540851105A94F1E08F1A910892
:100E9000BFCF843619F0893609F077C0F80137FEE4
:100EA0006BC060817181828193810C5F1F4FF32D34
:100EB000FF763F2E97FF09C09095809570956195BC
:100EC0007F4F8F4F9F4F689437F82AE030E0A5019D
:100ED0000E948408C82ECA188C2C432C36FE0CC0E5
:100EE000E89440F8C91440F434FE05C032FC03C055
:100EF000F32DFE7E4F2E892C44FE95C0FE01EC0D95
:100F0000F11D8081803309F087C0242D297E422E77
:100F1000842D8870582E43FC95C040FE8FC09C2CB9
:100F2000821418F42C0C922C981844FE91C0B7012E
:100F300080E390E00E94540842FE09C088E790E0F8
:100F400041FE02C088E590E0B7010E945408C91430
:100F500008F48AC0CA94D12C9FEFC91AD90ACA0CC6
:100F6000DB1CF60182916F01B70190E00E945408EA
:100F7000AC14BD04B1F74FCF60817181072E000C16
:100F8000880B990B0E5F1F4F92CFD32CE894D4F8A7
:100F90002AE030E0853739F1232D297FD22E8F3694
:100FA00001F148F48835A9F0F701868197812B96E5
:100FB000E2E10C94FE08803749F08837A9F7D4FEA7
:100FC00002C06894D2F820E130E00DC06894D4F8F3
:100FD000F6CF34FE03C0822F8660D82E20E132E0A7
:100FE00002C028E030E0F801D7FE0FC060817181B7
:100FF000828193810C5F1F4FA5010E948408C82E37
:10100000CA183D2CE89437F867CF6081718190E071
:1010100080E00E5F1F4FF0CF42FC02C0839478CF78
:101020008394839475CF842D867809F471CFF6CF9D
:10103000B70180E290E00E94540883948214C0F3C8
:10104000512C73CF522C5818821408F46ECFF8CF5D
:10105000842D867809F47BCF8BE241FE80E247FC49
:101060008DE2B70190E071CFB70180E390E00E947C
:1010700054089A946CCF8FEF9FEF99CFFC010590A5
:10108000615070400110D8F7809590958E0F9F1F8A
:101090000895FC016150704001900110D8F78095CF
:1010A00090958E0F9F1F08950F931F93CF93DF93FB
:1010B000182F092FEB018B8181FD09C01FEF0FEF66
:1010C000812F902FDF91CF911F910F91089582FF73
:1010D00014C02E813F818C819D81281739073CF4F3
:1010E000E881F981CF0101969983888310838E81ED
:1010F0009F8101969F838E83E3CFE885F985812FB9
:101100000995892BA1F3DACFFA01AA27283051F1EA
:10111000203181F1E8946F936E7F6E5F7F4F8F4F28
:101120009F4FAF4FB1E03ED0B4E03CD0670F781F87
:10113000891F9A1FA11D680F791F8A1F911DA11D6C
:101140006A0F711D811D911DA11D20D009F46894A5
:101150003F912AE0269F11243019305D3193DEF64D
:10116000CF010895462F4770405D4193B3E00FD003
:10117000C9F7F6CF462F4F70405D4A3318F0495DEE
:1011800031FD4052419302D0A9F7EACFB4E0A695D1
:101190009795879577956795BA95C9F700976105F3
:1011A000710508959B01AC010A2E06945795479549
:1011B00037952795BA95C9F7620F731F841F951F3E
:1011C000A01D08952F923F924F925F926F927F924F
:1011D0008F929F92AF92BF92CF92DF92EF92FF9247
:1011E0000F931F93CF93DF93CDB7DEB7CA1BDB0BF3
:1011F0000FB6F894DEBF0FBECDBF09942A88398898
:1012000048885F846E847D848C849B84AA84B9849E
:10121000C884DF80EE80FD800C811B81AA81B981AA
:10122000CE0FD11D0FB6F894DEBF0FBECDBFED01BE
:061230000895F894FFCFC1
:10123600019600960046504141004D0050726F6A7B
:1012460065746F204C414253490053656D205365C8
:101256006E736F72657300312053656E736F722003
:1012660050726F6E746F00322053656E736F7265C5
:10127600730050726F6E746F73004D4F444F3A2572
:1012860073205345543A253475004C75783A253405
:0C12960075204D6F746F723A25630000E4
:00000001FF
