:100000000C9434000C9451000C9451000C94510049
:100010000C94B2010C9451000C9451000C945100BA
:100020000C9451000C9451000C9451000C9451000C
:100030000C9451000C9451000C9409020C94510042
:100040000C9451000C9451000C9451000C945100EC
:100050000C9451000C9451000C9451000C945100DC
:100060000C9451000C94510011241FBECFEFD8E026
:10007000DEBFCDBF11E0A0E0B1E0E6E8F6E102C0EE
:1000800005900D92AE37B107D9F721E0AEE7B1E0A8
:1000900001C01D92A13BB207E1F70E9479020C94C6
:1000A000410B0C9400008093BB0084E88093BC005B
:1000B00081E29EE42091BC0027FD02C00197D1F7A8
:1000C000089584EA8093BC0081E29EE42091BC0004
:1000D00027FD02C00197D1F70895CF93C82F0E9442
:1000E00061008091B900887F883039F084E980937D
:1000F000BC0090E080E0CF9108958C2F880F816044
:100100000E9453008091B900887F803479F784EC95
:100110008093BC0081E29EE42091BC0027FD02C0D8
:100120000197D1F76091BB0084E88093BC0081E225
:100130009EE42091BC0027FD02C00197D1F7809179
:10014000BB0094E99093BC00762F682F90E080E08C
:100150000E947F072AE939E949E95FE30E94DE0648
:100160000E945007CB016D3D7F4F28F28CED9FEF31
:10017000C2CFCF93DF93D82FC62F0E9461008D2F5F
:10018000880F0E9453008091B900887F883139F030
:1001900084E98093BC0080E0DF91CF9108958C2F9B
:1001A0000E9453008091B900887F883289F784E9E2
:1001B0008093BC0081E0F0CF90917F01911106C047
:1001C00098EC899F802D112480937F0108952091C0
:1001D00082013091830181E0232B09F080E00895B2
:1001E000AC0130E020E094E00000000000000000DE
:1001F00000000000000000000000000000000000FF
:100200000000000000000000915071F72F5F3F4F89
:100210004217530741F708951F93CF93DF93389AFE
:10022000509892E0813009F093E088B1C1E0D0E0CD
:1002300002C0CC0FDD1F9A95E2F71C2F1095812389
:1002400088B982E090E00E94F00088B18C2B88B9D8
:100250008AE090E00E94F00088B1812388B930E004
:1002600020E089B190E08C239D23892B39F4283834
:1002700083E1380749F12F5F3F4FF3CF28383341EF
:1002800019F1409184005091850029E833E189B14A
:1002900090E08C239D23892B19F021503109B9F767
:1002A00080918400909185009C018417950730F41B
:1002B0002091860030918700280F391F241B350BB1
:1002C00081E02C32314008F080E0DF91CF911F9126
:1002D0000895CF93DF9383FBCC27C0F982FDC260E2
:1002E00081FDC46080FDC8606111C0680E9461002A
:1002F00080E40E9453008C2F80640E945300D4E954
:10030000D093BC0088EC90E00E94F0000E94610055
:1003100080E40E9453008C2F0E945300D093BC00B5
:1003200088EC90E0DF91CF910C94F000CF93DF93B5
:10033000C82FD62F82958F700E9469016D2F8C2F48
:100340008F70DF91CF910C946901CF93DF93EC0113
:100350008991882321F061E00E949601F9CFDF9115
:10036000CF9108951F920F920FB60F9211242F93E1
:100370003F934F935F936F937F938F939F93AF932D
:10038000BF93CF93DF93EF93FF93C6B1C270809179
:1003900081018C17B8F58091800181111BC080917B
:1003A000AC0181112CC081E08093AC01D1E0D093ED
:1003B0000001D093AA018CEB90E090938900809388
:1003C000880090938B0080938A0081E00E94DC007B
:1003D000D0938001C0938101FF91EF91DF91CF9184
:1003E000BF91AF919F918F917F916F915F914F914D
:1003F0003F912F910F900FBE0F901F901895109264
:10040000AC01D4CF80918101C81720F710928001F0
:10041000E1CF1F920F920FB60F9211246F937F932B
:100420008F939F9381E08093AF018091820190919F
:100430008301892B49F0809182019091830101977A
:1004400090938301809382018091A801823079F496
:1004500080919B0190919C01892B49F080919B0197
:1004600090919C01019790939C0180939B018091B6
:10047000A6019091A701892B49F08091A601909146
:10048000A70101979093A7018093A60180917F0116
:10049000882369F180917F01815080937F01809151
:1004A0007F0169E10E940D08911104C088B191E0BB
:1004B000892788B980917E018F5F80937E0180912A
:1004C0007E018A3F30F08BB190E489278BB910927E
:1004D0007E018091A9018F5F8093A9019F918F91E7
:1004E0007F916F910F900FBE0F901F9018954098BD
:1004F000E1CFCF93DF93CDB7DEB7A0970FB6F894D7
:10050000DEBF0FBECDBF1092C50087E68093C4004A
:1005100088E18093C10086E08093C200569A5E987D
:1005200082E084BD95E095BD9FE197BD80936E000C
:10053000239A2B9881E88093B00083E08093B100E8
:100540001092B30084B1866084B980918000826A81
:10055000809380008091810083698093810084EC86
:1005600099E090938700809386008CEB90E09093C5
:1005700089008093880090938B0080938A0039983B
:1005800041988AB18F768AB98BB18F768BB9389AB8
:10059000409887B18C6087B98AB1837F8AB98BB163
:1005A000837F8BB98091680082608093680080911E
:1005B0006C00826080936C0078940CEB10E062ED2C
:1005C000462E512C7CED672E712CE0EAAE2EB12C1C
:1005D000F6E98F2E912C9E012F5F3F4F6901ADE60A
:1005E0002A2EA1E03A2E8091B001811101C1E09143
:1005F0009F01E830C0F7F0E0E050FD4F0C944F0849
:10060000080322033203430354037D03B003D903D9
:100610008091BC0084608093BC001092B90088E493
:100620008093B80087B18F7C87B988B1806388B91F
:100630008AE190E0909383018093820181E080932E
:100640009F01D1CF0E94E700813069F660E083E02E
:100650000E94690183E090E090938301809382017E
:1006600082E0EDCF0E94E700813009F0BCCF60E06E
:1006700083E00E94690181E090E090938301809380
:10068000820183E0DCCF0E94E700813009F0ABCF2C
:1006900060E083E00E94690181E090E09093830133
:1006A0008093820184E0CBCF0E94E700813009F083
:1006B0009ACF60E082E00E94690160E088E20E94D7
:1006C000960160E08CE00E94960160E081E00E946B
:1006D000960160E086E00E94960160E080E80E945A
:1006E00096018CE091E00E94A5018FEE92E090933C
:1006F00083018093820185E0A2CF0E94E7008130D0
:1007000009F071CF60E00E94960161E083E20E94EF
:10071000B900882341F061E183E20E94B900FF241F
:10072000F394811101C0F12CF092850161E08CE518
:100730000E94B900882339F061E18CE50E94B9007C
:1007400091E0811101C090E090938401F90EF09244
:10075000A00186E090E090938301809382016FCFA7
:100760000E94E700813009F03ECF60E080E80E94FF
:1007700096018091A00181110CC08AE191E00E9454
:10078000A5018FEE92E0909383018093820187E030
:1007900056CF813019F487E291E0F1CF87E391E001
:1007A0000E94A50160E080EC0E94960182E491E045
:1007B000E6CF0E94E700F82E31E0831314CF60E00B
:1007C00081E00E949601F092B0018FEF80939F012B
:1007D00083E00E94DC00EAE4F1E08191882309F4DF
:1007E00002CF9091C00095FFFCCF8093C600F5CF5B
:1007F0008091AF01882309F4F6CE1092AF01809169
:100800008501F12CE12C882321F083E20E946D0008
:100810007C0180918401882309F460C08CE50E94EA
:100820006D002091A001213009F05BC0E114F104BA
:1008300009F0C70120919A0130E0F901EE0FFF1F86
:10084000EA57FE4F91838083C90101966AE070E008
:100850000E94190880939A01E6E8F1E060E070E0F8
:10086000CB0121913191620F731F811D911D2AE9E6
:1008700031E02E173F07A9F72AE030E040E050E0D2
:100880000E942D083093AE012093AD018091C000ED
:1008900087FF8AC08091C00087FFFCCFE091C6002F
:1008A000E154E53108F080C0F0E0E75AFB4F0C94CA
:1008B0004F087B04D404EA05C205D404D404D4044C
:1008C000D404D404D404D404D4049C04D404DA0599
:1008D000D404D404D404FB05D404B80490E080E02C
:1008E000A0CF223029F48E0D9F1D96958795A2CF1B
:1008F00090E080E09FCF8091AC01882309F454C040
:100900008091C00085FFFCCF88E091E08093C60015
:100910001092AC01FF24F394F092000181E00E9458
:10092000DC00F092AA0110938900009388001093D4
:100930008B0000938A0038C08091AC018130A1F116
:10094000FF24F394F092AC01F092000181E00E9448
:10095000DC00F092AA0110938900009388001093A4
:100960008B0000938A001092B3001092A1011CC06A
:100970008091AC018111FCC0809103019091040130
:10098000883E934048F48091030190910401C296FF
:1009900090930401809303018091030190910401DD
:1009A00090930201809301018091AC01811172C189
:1009B0004C9B29C180919E018B3018F48F5F8093EE
:1009C0009E0180919E018A30F1F48BE080939E011C
:1009D0008091A8018230B9F08091010190910201CB
:1009E000883E934048F48091010190910201C296A3
:1009F00090930201809301018091A801811103C0AD
:100A000081E08093A8014F9B01C180919D018B30B3
:100A100018F48F5F80939D0180919D018A30E9F4E5
:100A20008BE080939D018091A8018230B1F080918C
:100A3000010190910201892B49F08091010190916F
:100A40000201C29790930201809301018091A80155
:100A5000811103C081E08093A8018091A8018130B9
:100A600009F0D7C04C990BC04F9909C088EE93E0AC
:100A700090939C0180939B0182E08093A8018091D8
:100A80000301909104012091A0012223E1F0209123
:100A90009F012F3FC1F42091AD013091AE01821B27
:100AA000930B9C01225E3F4F2D33310508F0D1C0DE
:100AB00081E08093AA01109389000093880010932D
:100AC0008B0000938A00E091AA0185E4F82EE330C0
:100AD00020F4F0E0EB5FFE4FF0808091A9018436B6
:100AE00008F481CD1092A9012091030130910401F5
:100AF0008091A801882321F0209101013091020109
:100B00008091AC01811157C188E091E03F932F9310
:100B10009F938F938DE591E09F938F93DF92CF9278
:100B20000E94690860E080E80E949601C6010E9468
:100B3000A5018F2D0F2C000C990B9F93FF92809194
:100B4000AE018F938091AD018F933F922F92DF92F0
:100B5000CF920E94690860E080EC0E949601C60175
:100B60000E94A5010FB6F894DEBF0FBECDBF3BCDEE
:100B70008091A1018F3F09F0865F8093B30080933D
:100B8000A10112CF8091AC0181110DC080910301B0
:100B900090910401892B09F4FFCE8091030190917B
:100BA0000401C297F5CE8091A1018A3108F4DBCE11
:100BB0008A50E3CF8091AC01813009F0F5CE1092DC
:100BC000AA01B0928900A092880090928B00809236
:100BD0008A00EACE8091AC01813009F0E5CE82E056
:100BE0008093AA01509289004092880070928B00F5
:100BF00060928A00D9CE8091AC01813009F0D4CEC8
:100C00008093AA0190CE10929E01DBCE10929D019E
:100C100003CF8091A801823009F031CF4C9917C0E1
:100C20004F9915C080919B0190919C01892B09F0EF
:100C300026CF80910101909102019093040180934D
:100C4000030182E00E94DC001092A80118CF81E02D
:100C500014CFE091AA014F977CF0E23009F439CF2C
:100C600082E08093AA01509289004092880070929D
:100C70008B0060928A0027CFEE2309F42ACF1092CE
:100C8000AA01B0928900A092880090928B00809275
:100C90008A0019CF8091A201882359F08150809356
:100CA000A2018091AB018F5F893140F58093AB0148
:100CB0000ACF4C9B0CC08091A1018F3FA9F08B5FA4
:100CC0008093B3008093A10183E08093A2014F9BA6
:100CD000E8CF8091A101882361F085508093B30013
:100CE0008093A10183E0DBCF8093B3008093A101C7
:100CF000EECF1092B3001092A101D3CF1092AB01AE
:100D000081E00E940C01F82E82E00E940C012091EB
:100D1000A6013091A701232B29F49091A5019111EF
:100D20001092A5019091A50191111CC0FF2091F096
:100D30009091A40191110EC091E09093A50124EF30
:100D400031E03093A7012093A601F092A401809393
:100D5000A301B9CE8823C9F39091A3019111F5CFD6
:100D600092E0EBCF9091A5019130A1F4882369F333
:100D700092E09093AA01509289004092880070926C
:100D80008B0060928A001092A5011092A701109228
:100D9000A601DBCF9091A5019230B9F6FF20A9F210
:100DA0001092AA01B0928900A092880090928B00C4
:100DB00080928A00E8CF8AE091E0A8CE0E94F206F5
:100DC0000C94D3070E94CC0758F00E94C50740F04E
:100DD00029F45F3F29F00C94BC0751110C940708CB
:100DE0000C94C2070E94E40768F39923B1F35523DA
:100DF00091F3951B550BBB27AA276217730784072E
:100E000038F09F5F5F4F220F331F441FAA1FA9F3C3
:100E100035D00E2E3AF0E0E832D091505040E695B1
:100E2000001CCAF72BD0FE2F29D0660F771F881F12
:100E3000BB1F261737074807AB07B0E809F0BB0B05
:100E4000802DBF01FF2793585F4F3AF09E3F510519
:100E500078F00C94BC070C9407085F3FE4F3983ECD
:100E6000D4F3869577956795B795F7959F5FC9F702
:100E7000880F911D9695879597F90895E1E0660F83
:100E8000771F881FBB1F621773078407BA0720F0FC
:100E9000621B730B840BBA0BEE1F88F7E095089565
:100EA0000E94EC0788F09F5798F0B92F9927B75107
:100EB000B0F0E1F0660F771F881F991F1AF0BA95FE
:100EC000C9F714C0B13091F00E940608B1E008954E
:100ED0000C940608672F782F8827B85F39F0B93F40
:100EE000CCF3869577956795B395D9F73EF49095B1
:100EF0008095709561957F4F8F4F9F4F0895E8942F
:100F000009C097FB3EF490958095709561957F4F51
:100F10008F4F9F4F9923A9F0F92F96E9BB279395FF
:100F2000F695879577956795B795F111F8CFFAF40F
:100F3000BB0F11F460FF1BC06F5F7F4F8F4F9F4F40
:100F400016C0882311F096E911C0772321F09EE89E
:100F5000872F762F05C0662371F096E8862F70E004
:100F600060E02AF09A95660F771F881FDAF7880FDE
:100F70009695879597F9089597F99F6780E870E0AF
:100F800060E008959FEF80EC089500240A941616FF
:100F9000170618060906089500240A941216130667
:100FA000140605060895092E0394000C11F48823F5
:100FB00052F0BB0F40F4BF2B11F460FF04C06F5F11
:100FC0007F4F8F4F9F4F089557FD9058440F551FE7
:100FD00059F05F3F71F04795880F97FB991F61F0BB
:100FE0009F3F79F087950895121613061406551F32
:100FF000F2CF4695F1DF08C0161617061806991F9E
:10100000F1CF86957105610508940895E894BB2792
:1010100066277727CB0197F90895991B79E004C0DB
:10102000991F961708F0961B881F7A95C9F7809527
:10103000089597FB072E16F4009407D077FD09D08A
:101040000E94550807FC05D03EF4909581959F4F6E
:101050000895709561957F4F0895A1E21A2EAA1BFD
:10106000BB1BFD010DC0AA1FBB1FEE1FFF1FA21758
:10107000B307E407F50720F0A21BB30BE40BF50B55
:10108000661F771F881F991F1A9469F760957095DE
:10109000809590959B01AC01BD01CF010895EE0FA5
:1010A000FF1F0590F491E02D0994AA1BBB1B51E191
:1010B00007C0AA1FBB1FA617B70710F0A61BB70BC8
:1010C000881F991F5A95A9F780959095BC01CD016D
:1010D0000895AEE0B0E0EFE6F8E00C94180B0D894F
:1010E0001E8986E08C831A8309838FEF9FE79E8396
:1010F0008D83AE01475E5F4F6F89788DCE0101967B
:101100000E948C082F813885020F131FF80110826E
:101110002E96E4E00C94340BABE0B0E0E2E9F8E0AA
:101120000C940A0B7C013B018A01FC011782168298
:10113000838181FFC8C1CE0101965C01F7019381D3
:10114000F30193FD859193FF81913F01882309F479
:1011500053C1853239F493FD859193FF81913F010D
:10116000853229F4B70190E00E947C0AE7CF912CE8
:10117000212C312CFFE1F31538F08B3211F190F472
:10118000803209F1833229F137FC3CC020ED280F71
:101190002A3050F536FE20C08AE0989E200D11249A
:1011A000922E06C08D3291F0803371F7689430F83A
:1011B000F30193FD859193FF81913F018111DACF76
:1011C00021C0689431F8689432F8F2CF689433F80B
:1011D000EFCF689434F8ECCFEAE02E9E200D112476
:1011E000222E689435F8E4CF8E3229F436FC04C1FF
:1011F000689436F8DDCF8C3619F4689437F8D8CF78
:101200008836B1F2982F9F7D95549330E0F0833665
:10121000A1F18337C1F1833509F063C02801F2E001
:101220004F0E511CF801C080D180692D70E036FC52
:1012300002C06FEF7FEFC6010E94660A4C016894FE
:1012400037F882010AC00C5F1F4FFFE3F98388243F
:101250008394912C6501E89437F833FE2DC0522C0D
:101260008114910471F5552009F468CFB70180E22B
:1012700090E00E947C0A5A94F6CFF801808189831D
:101280000E5F1F4FE4CF2801F2E04F0E511CF80112
:10129000C080D180692D70E036FC02C06FEF7FEF17
:1012A000C6010E94710A4C018201D5CFB70180E2CC
:1012B00090E00E947C0A2A942814190409F0B0F7DF
:1012C000CECFF60137FC859137FE81916F01B701D2
:1012D00090E00E947C0A51105A94F1E08F1A910814
:1012E000BFCF843619F0893609F077C0F80137FE90
:1012F0006BC060817181828193810C5F1F4FF32DE0
:10130000FF763F2E97FF09C0909580957095619567
:101310007F4F8F4F9F4F689437F82AE030E0A50148
:101320000E94AC0AC82ECA188C2C432C36FE0CC066
:10133000E89440F8C91440F434FE05C032FC03C000
:10134000F32DFE7E4F2E892C44FE95C0FE01EC0D40
:10135000F11D8081803309F087C0242D297E422E23
:10136000842D8870582E43FC95C040FE8FC09C2C65
:10137000821418F42C0C922C981844FE91C0B701DA
:1013800080E390E00E947C0A42FE09C088E790E07A
:1013900041FE02C088E590E0B7010E947C0AC914B2
:1013A00008F48AC0CA94D12C9FEFC91AD90ACA0C72
:1013B000DB1CF60182916F01B70190E00E947C0A6C
:1013C000AC14BD04B1F74FCF60817181072E000CC2
:1013D000880B990B0E5F1F4F92CFD32CE894D4F853
:1013E0002AE030E0853739F1232D297FD22E8F3640
:1013F00001F148F48835A9F0F701868197812B9691
:10140000E2E10C94260B803749F08837A9F7D4FE27
:1014100002C06894D2F820E130E00DC06894D4F89E
:10142000F6CF34FE03C0822F8660D82E20E132E052
:1014300002C028E030E0F801D7FE0FC06081718162
:10144000828193810C5F1F4FA5010E94AC0AC82EB8
:10145000CA183D2CE89437F867CF6081718190E01D
:1014600080E00E5F1F4FF0CF42FC02C0839478CF24
:101470008394839475CF842D867809F471CFF6CF49
:10148000B70180E290E00E947C0A83948214C0F34A
:10149000512C73CF522C5818821408F46ECFF8CF09
:1014A000842D867809F47BCF8BE241FE80E247FCF5
:1014B0008DE2B70190E071CFB70180E390E00E9428
:1014C0007C0A9A946CCF8FEF9FEF99CFFC01059027
:1014D000615070400110D8F7809590958E0F9F1F36
:1014E0000895FC016150704001900110D8F780957B
:1014F00090958E0F9F1F08950F931F93CF93DF93A7
:10150000182F092FEB018B8181FD09C01FEF0FEF11
:10151000812F902FDF91CF911F910F91089582FF1E
:1015200014C02E813F818C819D81281739073CF49E
:10153000E881F981CF0101969983888310838E8198
:101540009F8101969F838E83E3CFE885F985812F64
:101550000995892BA1F3DACFFA01AA27283051F196
:10156000203181F1E8946F936E7F6E5F7F4F8F4FD4
:101570009F4FAF4FB1E03ED0B4E03CD0670F781F33
:10158000891F9A1FA11D680F791F8A1F911DA11D18
:101590006A0F711D811D911DA11D20D009F4689451
:1015A0003F912AE0269F11243019305D3193DEF6F9
:1015B000CF010895462F4770405D4193B3E00FD0AF
:1015C000C9F7F6CF462F4F70405D4A3318F0495D9A
:1015D00031FD4052419302D0A9F7EACFB4E0A6957D
:1015E0009795879577956795BA95C9F7009761059F
:1015F000710508959B01AC010A2E069457954795F5
:1016000037952795BA95C9F7620F731F841F951FE9
:10161000A01D08952F923F924F925F926F927F92FA
:101620008F929F92AF92BF92CF92DF92EF92FF92F2
:101630000F931F93CF93DF93CDB7DEB7CA1BDB0B9E
:101640000FB6F894DEBF0FBECDBF09942A88398843
:1016500048885F846E847D848C849B84AA84B9844A
:10166000C884DF80EE80FD800C811B81AA81B98156
:10167000CE0FD11D0FB6F894DEBF0FBECDBFED016A
:061680000895F894FFCF6D
:10168600016400960046504141004D0050726F6A59
:1016960065746F204C414253490053656D20536574
:1016A6006E736F72657300312053656E736F7220AF
:1016B60050726F6E746F00322053656E736F726571
:1016C600730050726F6E746F7300496E6963732096
:1016D60066696E616C697A616461730A004D4F4494
:1016E6004F3A2573205345543A253475004C757886
:0E16F6003A253475204D6F746F723A256300EB
:00000001FF
