:020000040000FA
:100000000C9434000C9451000C9451000C94510049
:100010000C9466020C9451000C9451000C94510005
:100020000C9451000C9451000C9451000C9451000C
:100030000C9451000C9451000C94C6020C94510085
:100040000C9451000C9451000C9451000C945100EC
:100050000C9451000C9451000C9451000C945100DC
:100060000C9451000C94510011241FBECFEFD8E026
:10007000DEBFCDBF13E0A0E0B1E0E4E6FCE102C0EA
:1000800005900D92AC3FB107D9F724E0ACEFB3E097
:1000900001C01D92A138B207E1F70E944D030C94F4
:1000A000300E0C9400008093BB0084E88093BC0069
:1000B00081E29EE42091BC0027FD02C00197D1F7A8
:1000C000089584EA8093BC0081E29EE42091BC0004
:1000D00027FD02C00197D1F70895CF93C82F0E9442
:1000E00061008091B900887F883039F084E980937D
:1000F000BC0090E080E0CF9108958C2F880F816044
:100100000E9453008091B900887F803479F784EC95
:100110008093BC0081E29EE42091BC0027FD02C0D8
:100120000197D1F76091BB0084E88093BC0081E225
:100130009EE42091BC0027FD02C00197D1F7809179
:10014000BB0094E99093BC00762F682F90E080E08C
:100150000E945E0A2AE939E949E95FE30E94BD0984
:100160000E942F0ACB016D3D7F4F28F28CED9FEF4F
:10017000C2CFCF93DF93D82FC62F0E9461008D2F5F
:10018000880F0E9453008091B900887F883139F030
:1001900084E98093BC0080E0DF91CF9108958C2F9B
:1001A0000E9453008091B900887F883289F784E9E2
:1001B0008093BC0081E0F0CFCF93C82F0E946100F4
:1001C00088E70E94530080E40E9453008C2F0E9415
:1001D000530084E98093BC00CF910895EF92FF9281
:1001E0000F931F93CF93DF937C01F701C1917F01A0
:1001F000CC23B9F0C0320CF4CFE3F6E0CF02E0013B
:10020000112410E000E0F801EC0FFD1FE55BFF4F4B
:1002100080810E94DC000F5F1F4F0630110599F7A7
:10022000E4CFDF91CF911F910F91FF90EF90089550
:10023000CF93C82F0E94610088E70E94530080E09E
:100240000E9453008C2F0E94530084E98093BC00CD
:10025000CF91089580550E94180180E00E941801F6
:1002600080E10C941801CF93DF93C0EB8C2F0E9498
:10027000180180E00E94180180E10E941801D0E07E
:1002800080E00E94DC00DF5FD038D1F7CF5FC83B51
:1002900069F7DF91CF9108959091FD03911106C008
:1002A00098EC899F802D11248093FD030895AC0163
:1002B00030E020E094E000000000000000000000BA
:1002C000000000000000000000000000000000002E
:1002D000000000000000915071F72F5F3F4F421760
:1002E000530741F70895CF92DF92EF92FF920F9359
:1002F0001F93CF93DF93813041F5409106045091D5
:100300000704609108047091090401E014E0E6E03C
:10031000F4E022E080910A0490910B04A0910C0477
:10032000B0910D04841B950BA60BB70BCC97A105C0
:10033000B105C8F4F8018081DF91CF911F910F9131
:10034000FF90EF90DF90CF9008954091020450917C
:100350000304609104047091050400E014E0E2E0FD
:10036000F4E023E0D7CF80910A0490910B04A09190
:100370000C04B0910D0480839183A283B383C1E008
:10038000D0E002C0CC0FDD1F2A95E2F7CC2EDC2E88
:10039000D09483E0E82EF12C88B18D2188B982E0D9
:1003A00090E00E94570188B18C2988B98AE090E0DA
:1003B0000E94570188B18D2188B988EC90E00E9495
:1003C0005701F89430E020E089B190E08C239D2320
:1003D000892B39F42C34FDE13F0731F02F5F3F4F7B
:1003E000F3CF2C343D4159F47894EA94E110D4CF02
:1003F00041E0F8014F15C8F1108280E09DCF2091B7
:1004000084003091850050E040E089B190E08C2379
:100410009D23892B21F0403385E7580719F560911A
:10042000840070918500789440335547F1F2CB01F8
:100430006217730730F48091860090918700860FD1
:10044000971F821B930B9C01245131092D383F408B
:1004500060F68232914008F4F39484EF91E00E94B8
:100460005701C3CF4F5F5F4FD0CF8081813009F4F8
:1004700063CF81E08083C1CFEF92FF921F93CF9330
:10048000DF93182FEB017A01BA01CE010E94480BCD
:10049000892BB1F0BE01C7010E94510B812F0E9430
:1004A0002A0182EC93E00E94EE00812F0E942A0133
:1004B000CE01DF91CF911F91FF90EF900C94EE0051
:1004C000DF91CF911F91FF90EF9008951F920F92AF
:1004D0000FB60F9211242F933F934F935F936F9317
:1004E0007F938F939F93AF93BF93CF93DF93EF93BC
:1004F000FF93C6B1C2708091FF038C1708F03FC014
:100500008091FE03811123C080910601811134C0C6
:1005100081E080930601D1E0D093000121E030E03A
:1005200030930A01209309018CEB90E090938B00AB
:1005300080938A00309308012093070190938900EB
:100540008093880081E00E944C01D093FE03C09309
:10055000FF03FF91EF91DF91CF91BF91AF919F91F9
:100560008F917F916F915F914F913F912F910F905C
:100570000FBE0F901F90189510920601CCCF80915E
:10058000FF03C81720F71092FE03E1CF1F920F92CE
:100590000FB60F9211246F937F938F939F93AF9316
:1005A000BF9381E080937F0480910A0490910B04B3
:1005B000A0910C04B0910D040296A11DB11D809371
:1005C0000A0490930B04A0930C04B0930D04809143
:1005D0000E0490910F04892B49F080910E049091A4
:1005E0000F04019790930F0480930E04809172047E
:1005F000823079F48091270490912804892B49F066
:100600008091270490912804019790932804809367
:1006100027048091340490913504892B49F080910E
:1006200034049091350401979093350480933404F9
:100630008091FD03882379F18091FD03815080939F
:10064000FD038091FD0369E10E94EC0A911104C051
:1006500088B191E0892788B98091FC038F5F8093EE
:10066000FC038091FC038A3F30F08BB190E4892732
:100670008BB91092FC03809173048F5F8093730495
:10068000BF91AF919F918F917F916F910F900FBE0E
:100690000F901F9018954098DFCFCF93DF93CDB781
:1006A000DEB7A8970FB6F894DEBF0FBECDBF10928D
:1006B000C50087E68093C40088E18093C10086E08E
:1006C0008093C200569A5E9882E084BD95E095BD05
:1006D0009FE197BD80936E00239A2B9881E88093C9
:1006E000B00083E08093B1001092B30084B18660C3
:1006F00084B980918000826A80938000809181001B
:1007000083698093810084EC99E0909387008093C3
:1007100086008CEB90E09093890080938800909302
:100720008B0080938A00399841988AB18F768AB974
:100730008BB18F768BB9389A409887B18C6087B926
:100740008AB1837F8AB98BB1837F8BB9809168002E
:1007500082608093680080916C00826080936C005E
:100760007894EE24E394F12C0CEB10E072E0C72EA9
:10077000D12CEFEA2E2E312C9E012F5F3F4F5901D5
:10078000809180048111C6C080912D04813091F147
:10079000B8F0823009F479C0833091F780910E046B
:1007A00090910F04892B61F70E94330181E08093BF
:1007B00080048FEF80932D0483E00E944C01E0CFF2
:1007C0008091BC0084608093BC001092B9008CE0E2
:1007D0008093B80087B18F7C87B988B1806388B96E
:1007E00086E090E090930F0480930E0481E0809364
:1007F0002D04C6CF80910E0490910F04892B09F02F
:10080000BFCF8EEA0E94180180E20E94180182E0A8
:100810000E94180180EB0E94180188EC0E941801C8
:1008200080E00E94180180E10E94180180E40E948B
:10083000180181E80E9418018FEC0E94180181EADA
:100840000E94180186EA0E94180188EA0E94180195
:100850008FE30E9418018DE80E94180184E10E9434
:1008600018018FEA0E9418010E94330180E00E9463
:100870002A0188E593E00E94EE008FEE92E09093CB
:100880000F0480930E0482E0B2CF80910E04909109
:100890000F04892B09F074CF61E083E20E94B90054
:1008A000882341F061E183E20E94B9009924939486
:1008B000811101C0912C9092110461E08CE50E949D
:1008C000B900882339F061E18CE50E94B90091E01C
:1008D000811101C090E090931004990E90922E0423
:1008E0000E94330180E00E942A0186E693E099206D
:1008F00039F031E083E793E0931611F083E893E059
:100900000E94EE008FEE92E090930F0480930E040D
:1009100083E06DCF80917F04882309F431CF10925A
:100920007F0480911104912C812C882321F083E293
:100930000E946D004C0180911004882309F463C06B
:100940008CE50E946D0020912E04213009F05EC0DC
:100950008114910409F0C4012091260430E0F901CA
:10096000EE0FFF1FEE5EFB4F91838083C90101965E
:100970006AE070E00E94F80A80932604E2E1F4E065
:1009800060E070E0CB0121913191620F731F811DF6
:10099000911D26E234E02E173F07A9F72AE030E048
:1009A00040E050E00E940C0B30937E0420937D04C5
:1009B0008091C00087FF8DC08091C00087FFFCCF71
:1009C000E091C600E154E83108F083C0F0E0E55161
:1009D000FB4F0C942E0B100569057D065706690523
:1009E000AB066905690569056905690569052D0590
:1009F00069056F06BB06690569058D0669054D0524
:100A0000690569059B0690E080E09DCF223029F4BE
:100A1000880D991D969587959FCF90E080E09CCF9B
:100A200080910601882309F454C01092060181E0E8
:100A3000809300010E944C01F0920A01E0920901AA
:100A400010938B0000938A00F0920801E092070156
:100A500010938900009388003CC08091060181308A
:100A6000C1F181E080930601809300010E944C0156
:100A7000F0920A01E092090110938B0000938A0022
:100A8000F0920801E092070110938900009388001A
:100A90001092B30010922F041CC0809106018111A6
:100AA000FCC08091020190910301883E934048F47C
:100AB0008091020190910301C2969093030180936B
:100AC00002018091020190910301909305018093AE
:100AD00004012091090130910A01809179049091DB
:100AE0007A04A0917B04B0917C042230310509F096
:100AF00048C1883328E19207A105B1055CF40D9641
:100B0000A11DB11D8093790490937A04A0937B0476
:100B1000B0937C0480910701909108018230910587
:100B200009F03CC18091750490917604A0917704FE
:100B3000B0917804843E3CE09307A105B1055CF4D4
:100B40000D96A11DB11D8093750490937604A0931A
:100B50007704B09378046091790470917A0490E0FE
:100B600080E00E94A509609175047091760482E08E
:100B700090E00E94A50980910601811123C34C9B3E
:100B800022C180912A048B3018F48F5F80932A044D
:100B900080912A048A30F1F48BE080932A048091BA
:100BA00072048230B9F08091040190910501883E71
:100BB000934048F48091040190910501C29690936E
:100BC00005018093040180917204811103C081E0CA
:100BD000809372044F9BFAC0809129048B3018F4E3
:100BE0008F5F80932904809129048A30E9F48BE097
:100BF00080932904809172048230B1F080910401C5
:100C000090910501892B49F0809104019091050193
:100C1000C297909305018093040180917204811121
:100C200003C081E08093720480917204813009F0E6
:100C3000D0C04C990BC04F9909C088EE93E09093B7
:100C400028048093270482E080937204209102019B
:100C50003091030180912E04882309F46BC18091A7
:100C60002D048F3F09F066C140917D0450917E04B0
:100C70004090790450907A0460907B0470907C04DA
:100C800088E3481688E15806610471040CF4C1C079
:100C900010938B0000938A00C2C080912F048F3F75
:100CA00009F0865F8093B30080932F0412CF809168
:100CB000060181110DC08091020190910301892BE1
:100CC00009F4FFCE8091020190910301C297F5CE05
:100CD00080912F048A3108F4DBCE8A50E3CF8091D3
:100CE0000601813009F0F5CED0920A01C0920901C7
:100CF00030928B0020928A00ECCE809106018130E8
:100D000009F0E7CE10920A011092090184EC90E0FC
:100D100090938B0080938A00DCCE80910601813015
:100D200009F0D7CEF0920A01E092090110938B00EE
:100D300000938A00CECE80910601813009F0C9CEA1
:100D4000D0920801C092070129EA30E0309389006F
:100D500020938800BECE80910601813009F0B9CE83
:100D6000109208011092070185EC90E090938900A1
:100D700080938800AECE80910601813009F0A9CE23
:100D800063CE232B09F0C6CE181619061A061B06C9
:100D90000CF0C0CE0A97A109B109B4CE892B09F095
:100DA000DACE8091750490917604A0917704B09189
:100DB0007804181619061A061B060CF0CCCE0A97F2
:100DC000A109B109C0CE10922A04E2CE10922904E2
:100DD0000ACF80917204823009F038CF4C9917C045
:100DE0004F9915C08091270490912804892B09F010
:100DF0002DCF809104019091050190930301809380
:100E0000020182E00E944C01109272041FCF81E027
:100E10001BCF14141504160417040CF039CF80915D
:100E2000750490917604A0917704B0917804843E83
:100E30006CE09607A105B1052CF010938900009392
:100E4000880005C0181619061A061B06B4F7241BDD
:100E5000350BA901485D5F4F4135510588F4F0928B
:100E60000A01E092090110938B0000938A00F0922E
:100E70000801E092070110938900009388005AC08E
:100E8000293231050CF44BC128E3421628E1520601
:100E900061047104ACF4D0920A01C092090130924D
:100EA0008B0020928A00F0920801E09207011093D3
:100EB0008900009388001092B30010922F043AC06A
:100EC000F0920A01E092090110938B0000938A00CE
:100ED000843E9C40A105B1055CF4D0920801C0920B
:100EE000070189EA90E09093890080938800E3CF1E
:100EF000F0920801E09207011093890000938800A6
:100F000080912B0490912C0401968436910528F44D
:100F100090932C0480932B040DC010922C041092FB
:100F20002B0480912F048F3F29F0865F8093B300BC
:100F300080932F04809173048A3008F421CC10929E
:100F4000730480917E048F9380917D048F9386E952
:100F500093E09F938F93BF92AF920E94580B4EE500
:100F600054E0B50180E00E943C02809106010F90A0
:100F70000F900F900F900F900F904AE454E062EAA8
:100F800073E0882311F063EB73E081E00E943C0280
:100F900080910701909108012BE433E0009731F034
:100FA00025E433E0029711F022E533E08091090156
:100FB00090910A01009709F4BCC1029709F0B6C1EB
:100FC00085E493E03F932F939F938F9384EC93E07A
:100FD0009F938F93BF92AF920E94580B46E354E0C9
:100FE000B50182E00E943C0283E00E942A0180ED6C
:100FF00093E00E94EE0080907D0490907E04B40106
:1010000090E080E027E0660F771F881F991F2A95E0
:10101000D1F70FB6F894DEBF0FBECDBF28EE33E098
:1010200040E050E00E940C0B722E27FF02C08FE7B9
:10103000782E80910101871589F07092010184E07A
:101040000E942A01612C81E0671408F080E08195FC
:101050000E94DC00639430E86312F5CF80910601B2
:1010600041E481114DE480917204882309F464C144
:1010700080910401909105012091090130910A01AC
:101080002230310509F45DC1232B09F05CC126E44F
:10109000609107017091080131E46230710521F01F
:1010A00036E4672B09F030E5509178045F93509156
:1010B00077045F93509176045F93509175045F932A
:1010C00050917C045F9350917B045F9350917A041C
:1010D0005F93509179045F931F923F931F922F93D8
:1010E0009F928F929F938F931F924F9381EE93E0E5
:1010F0009F938F93BF92AF920E94580BF5010FB64A
:10110000F894DEBF0FBECDBF8191882309F438CBA0
:101110009091C00095FFFCCF8093C600F5CF209141
:101120002F04222331F1F0920A01E0920901109379
:101130008B0000938A00F0920801E092070110935F
:1011400089000093880080912B0490912C040196D3
:101150008436910508F4DCCE10922C0410922B04F6
:101160002A3008F4A8CE2A502093B30020932F04ED
:10117000E1CE14141504160417045CF410920A014D
:101180001092090124EC30E030938B0020938A0008
:101190006ECEF0920A01E092090110938B00009349
:1011A0008A00181619061A061B060CF060CE10925B
:1011B00008011092070185EC90E0909389008093DC
:1011C0008800B8CE80913004882359F081508093F4
:1011D0003004809174048F5F823340F580937404EF
:1011E000A9CE4C9B0CC080912F048F3FA9F08B5F40
:1011F0008093B30080932F0483E0809330044F9B4F
:10120000E8CF80912F04882361F085508093B3004C
:1012100080932F0483E0DBCF8093B30080932F046F
:10122000EECF1092B30010922F04D3CF109274041B
:1012300081E00E947301982E82E00E947301209148
:10124000340430913504232B51F4909133049923C5
:1012500031F01092330410923204109231049091C4
:10126000330491110FC02091340430913504232BA5
:1012700049F4911002C0882329F09092320480939F
:10128000310458CE90913304911118C0992071F017
:101290009091320491110AC091E09093330424EFAD
:1012A00031E03093350420933404E7CF882329F3C9
:1012B000909131049111E1CF92E0EFCF90913304FE
:1012C0009130D9F48823C9F2D0920A01C092090161
:1012D00030928B0020928A00D0920801C0920701C0
:1012E00029EA30E03093890020938800109233047B
:1012F0001092350410923404C0CF90913304923090
:1013000009F0BBCF992009F4B8CF10920A011092CE
:10131000090124EC30E030938B0020938A00109276
:1013200008011092070125EC30E0DCCF82E593E064
:1013300049CE8BE493E046CE809102019091030167
:101340009BCE21E4A5CE20E5A3CE0196272F0E94B7
:10135000AC090C94AB09262FF999FECF92BD81BD43
:10136000F89A019700B4021639F01FBA20BD0FB6E3
:10137000F894FA9AF99A0FBE08950E94D1090C9434
:10138000B20A0E94AB0A58F00E94A40A40F029F465
:101390005F3F29F00C949B0A51110C94E60A0C94BF
:1013A000A10A0E94C30A68F39923B1F3552391F36C
:1013B000951B550BBB27AA2762177307840738F0C4
:1013C0009F5F5F4F220F331F441FAA1FA9F335D021
:1013D0000E2E3AF0E0E832D091505040E695001CD5
:1013E000CAF72BD0FE2F29D0660F771F881FBB1F8F
:1013F000261737074807AB07B0E809F0BB0B802D6D
:10140000BF01FF2793585F4F3AF09E3F510578F098
:101410000C949B0A0C94E60A5F3FE4F3983ED4F3E5
:10142000869577956795B795F7959F5FC9F7880F6C
:10143000911D9695879597F90895E1E0660F771FBE
:10144000881FBB1F621773078407BA0720F0621B4F
:10145000730B840BBA0BEE1F88F7E09508950E947A
:10146000CB0A88F09F5798F0B92F9927B751B0F061
:10147000E1F0660F771F881F991F1AF0BA95C9F718
:1014800014C0B13091F00E94E50AB1E008950C94C7
:10149000E50A672F782F8827B85F39F0B93FCCF37A
:1014A000869577956795B395D9F73EF49095809595
:1014B000709561957F4F8F4F9F4F0895E89409C0B5
:1014C00097FB3EF490958095709561957F4F8F4F77
:1014D0009F4F9923A9F0F92F96E9BB279395F6958D
:1014E000879577956795B795F111F8CFFAF4BB0F0B
:1014F00011F460FF1BC06F5F7F4F8F4F9F4F16C06F
:10150000882311F096E911C0772321F09EE8872FF8
:10151000762F05C0662371F096E8862F70E060E0B4
:101520002AF09A95660F771F881FDAF7880F96952D
:10153000879597F9089597F99F6780E870E060E0D4
:1015400008959FEF80EC089500240A94161617065C
:1015500018060906089500240A94121613061406A4
:1015600005060895092E0394000C11F4882352F007
:10157000BB0F40F4BF2B11F460FF04C06F5F7F4FBF
:101580008F4F9F4F089557FD9058440F551F59F0A6
:101590005F3F71F04795880F97FB991F61F09F3F60
:1015A00079F087950895121613061406551FF2CF89
:1015B0004695F1DF08C0161617061806991FF1CFD9
:1015C00086957105610508940895E894BB27662700
:1015D0007727CB0197F90895991B79E004C0991FEB
:1015E000961708F0961B881F7A95C9F7809508957D
:1015F00097FB072E16F4009407D077FD09D00E94C0
:10160000340B07FC05D03EF4909581959F4F0895CB
:10161000709561957F4F0895A1E21A2EAA1BBB1BFE
:10162000FD010DC0AA1FBB1FEE1FFF1FA217B307AE
:10163000E407F50720F0A21BB30BE40BF50B661FC4
:10164000771F881F991F1A9469F760957095809588
:1016500090959B01AC01BD01CF010895EE0FFF1FD6
:101660000590F491E02D0994AA1BBB1B51E107C022
:10167000AA1FBB1FA617B70710F0A61BB70B881F22
:10168000991F5A95A9F780959095BC01CD010895B1
:10169000FB01DC018D91019080190110D9F3990BA8
:1016A0000895FB01DC0101900D920020E1F70895FF
:1016B000AEE0B0E0EEE5FBE00C94070E0D891E896C
:1016C00086E08C831A8309838FEF9FE79E838D8347
:1016D000AE01475E5F4F6F89788DCE0101960E9403
:1016E0007B0B2F813885020F131FF80110822E9675
:1016F000E4E00C94230EABE0B0E0E1E8FBE00C94F6
:10170000F90D7C013B018A01FC011782168283815D
:1017100081FFC8C1CE0101965C01F7019381F301FD
:1017200093FD859193FF81913F01882309F453C173
:10173000853239F493FD859193FF81913F01853284
:1017400029F4B70190E00E946B0DE7CF912C212C7A
:10175000312CFFE1F31538F08B3211F190F4803227
:1017600009F1833229F137FC3CC020ED280F2A30E3
:1017700050F536FE20C08AE0989E200D1124922E4E
:1017800006C08D3291F0803371F7689430F8F30120
:1017900093FD859193FF81913F018111DACF21C0A3
:1017A000689431F8689432F8F2CF689433F8EFCF48
:1017B000689434F8ECCFEAE02E9E200D1124222EFE
:1017C000689435F8E4CF8E3229F436FC04C168946D
:1017D00036F8DDCF8C3619F4689437F8D8CF8836D0
:1017E000B1F2982F9F7D95549330E0F08336A1F1AC
:1017F0008337C1F1833509F063C02801F2E04F0E51
:10180000511CF801C080D180692D70E036FC02C007
:101810006FEF7FEFC6010E94550D4C01689437F8B9
:1018200082010AC00C5F1F4FFFE3F9838824839471
:10183000912C6501E89437F833FE2DC0522C8114A9
:10184000910471F5552009F468CFB70180E290E06A
:101850000E946B0D5A94F6CFF801808189830E5F48
:101860001F4FE4CF2801F2E04F0E511CF801C08059
:10187000D180692D70E036FC02C06FEF7FEFC601AA
:101880000E94600D4C018201D5CFB70180E290E04B
:101890000E946B0D2A942814190409F0B0F7CECFDA
:1018A000F60137FC859137FE81916F01B70190E019
:1018B0000E946B0D51105A94F1E08F1A9108BFCF1E
:1018C000843619F0893609F077C0F80137FE6BC00D
:1018D00060817181828193810C5F1F4FF32DFF76B0
:1018E0003F2E97FF09C090958095709561957F4F29
:1018F0008F4F9F4F689437F82AE030E0A5010E948F
:101900009B0DC82ECA188C2C432C36FE0CC0E894B4
:1019100040F8C91440F434FE05C032FC03C0F32D76
:10192000FE7E4F2E892C44FE95C0FE01EC0DF11D6C
:101930008081803309F087C0242D297E422E842D9A
:101940008870582E43FC95C040FE8FC09C2C82149A
:1019500018F42C0C922C981844FE91C0B70180E327
:1019600090E00E946B0D42FE09C088E790E041FEC6
:1019700002C088E590E0B7010E946B0DC91408F41D
:101980008AC0CA94D12C9FEFC91AD90ACA0CDB1C91
:10199000F60182916F01B70190E00E946B0DAC14CB
:1019A000BD04B1F74FCF60817181072E000C880B09
:1019B000990B0E5F1F4F92CFD32CE894D4F82AE0F6
:1019C00030E0853739F1232D297FD22E8F3601F172
:1019D00048F48835A9F0F701868197812B96E2E1DA
:1019E0000C94150E803749F08837A9F7D4FE02C051
:1019F0006894D2F820E130E00DC06894D4F8F6CFB6
:101A000034FE03C0822F8660D82E20E132E002C06F
:101A100028E030E0F801D7FE0FC06081718182813B
:101A200093810C5F1F4FA5010E949B0DC82ECA1801
:101A30003D2CE89437F867CF6081718190E080E0B9
:101A40000E5F1F4FF0CF42FC02C0839478CF839487
:101A5000839475CF842D867809F471CFF6CFB701C2
:101A600080E290E00E946B0D83948214C0F3512CAD
:101A700073CF522C5818821408F46ECFF8CF842DEF
:101A8000867809F47BCF8BE241FE80E247FC8DE251
:101A9000B70190E071CFB70180E390E00E946B0D39
:101AA0009A946CCF8FEF9FEF99CFFC010590615016
:101AB00070400110D8F7809590958E0F9F1F089564
:101AC000FC016150704001900110D8F7809590950D
:101AD0008E0F9F1F08950F931F93CF93DF93182F9F
:101AE000092FEB018B8181FD09C01FEF0FEF812FC3
:101AF000902FDF91CF911F910F91089582FF14C015
:101B00002E813F818C819D81281739073CF4E88123
:101B1000F981CF0101969983888310838E819F81FB
:101B200001969F838E83E3CFE885F985812F099500
:101B3000892BA1F3DACFFA01AA27283051F12031FD
:101B400081F1E8946F936E7F6E5F7F4F8F4F9F4F51
:101B5000AF4FB1E03ED0B4E03CD0670F781F891F93
:101B60009A1FA11D680F791F8A1F911DA11D6A0F61
:101B7000711D811D911DA11D20D009F468943F9114
:101B80002AE0269F11243019305D3193DEF6CF0113
:101B90000895462F4770405D4193B3E00FD0C9F7D9
:101BA000F6CF462F4F70405D4A3318F0495D31FD46
:101BB0004052419302D0A9F7EACFB4E0A695979599
:101BC000879577956795BA95C9F70097610571056F
:101BD00008959B01AC010A2E0694579547953795B9
:101BE0002795BA95C9F7620F731F841F951FA01D13
:101BF00008952F923F924F925F926F927F928F92B1
:101C00009F92AF92BF92CF92DF92EF92FF920F938B
:101C10001F93CF93DF93CDB7DEB7CA1BDB0B0FB695
:101C2000F894DEBF0FBECDBF09942A883988488852
:101C30005F846E847D848C849B84AA84B984C884E8
:101C4000DF80EE80FD800C811B81AA81B981CE0FDF
:101C5000D11D0FB6F894DEBF0FBECDBFED010895C4
:101C6000F894FFCF01FF3200640001010001000081
:101C7000000000000000005F0000000007000700F7
:101C800000147F147F1400242A7F2A1200231308D3
:101C90006462003649552250000005030000000030
:101CA0001C224100000041221C000014083E0814C0
:101CB0000008083E0808000050300000000808082E
:101CC0000808000060600000002010080402003EC8
:101CD0005149453E0000427F400000426151494663
:101CE000002141454B31001814127F100027454553
:101CF0004539003C4A494930000171090503003665
:101D00004949493600064949291E00003636000077
:101D1000000056360000000814224100001414147C
:101D20001414000041221408000201510906003E6B
:101D3000415D594E007E1111117E007F494949369F
:101D4000003E41414122007F4141221C007F494920
:101D50004941007F09090901003E4149497A007F54
:101D60000808087F0000417F4100002040413F01FA
:101D7000007F08142241007F40404040007F020C59
:101D8000027F007F0408107F003E4141413E007FFA
:101D900009090906003E4151215E007F09192946C3
:101DA0000046494949310001017F0101003F40409F
:101DB000403F001F2040201F007F2018207F00632D
:101DC000140814630007087008070061514945436F
:101DD00000007F4141000002040810200000414142
:101DE0007F000004020102040080808080800000E7
:101DF00003050000002054545478007F48444438C0
:101E000000384444442000384444487F0038545447
:101E1000541800087E090102000C5252523E007F05
:101E2000080404780000447D4000002040443D0048
:101E3000007F102844000000417F4000007C04180F
:101E4000047C007C08040478003844444438007C56
:101E50001414140800081414147C007C08040408EA
:101E600000485454542000043F444020003C40406B
:101E7000207C001C2040201C003C4030403C0044A2
:101E800028102844000C5050503C004464544C44EA
:101E90000000083641000000007F000000004136CD
:101EA0000800000804081008004142524952004648
:101EB00045434841520050415241520050726F6AAE
:101EC00065746F204C414253490053656D20536542
:101ED0006E736F72657300312053656E736F72207D
:101EE00050726F6E746F00322053656E736F72653F
:101EF000732050726F6E746F73004C55583A2025E2
:101F00003475206C78004D4F444F3A204155544F62
:101F10004D415449434F004D4F444F3A204D414E9F
:101F200055414C20202020004D313A2573204D3260
:101F30003A2573002D2D2D2D2D2D2D2D2D2D2D2DB3
:101F40002D2D2D2D00443A25632C25752C25752C1F
:101F500025632C25632C256C642C256C640A0000F9
:107E8000112424B614BE80E079D021FEEBC08EE030
:107E900075D0E0ECF0E0AFE7BFEF4899FECF9096E9
:107EA000489BFDCFB4831197F1F7B2E0B083B8E1FE
:107EB000B18352D0C82F823569F466D0E0E0FEE786
:107EC000A89583E093D091D0E058F109C8F787E7EF
:107ED0003CD0EFCF8D7FD9F44CD0D82FA0E0B1E0CB
:107EE0003BD08D93DA13FCCFA0E0B1E04DD0C111AF
:107EF0000CC0F2BDE1BD8D9180BDFA9AF99A319620
:107F0000F999FECFD150A9F7E2CF48D0E0CFC330E6
:107F100041F42FD0C82F38D0859117D0C150E1F748
:107F2000D6CFC13061F425D0C82F2ED0F2BDE1BD2F
:107F3000F89A80B50AD03196C150C1F7C8CFC13583
:107F400011F488E01BD020D0C2CF9091C00095FFE3
:107F5000FCCF8093C60008952D9A259A8091C00089
:107F600087FFFCCF84FD13C0A8958091C6002D9893
:107F70000895F2DFE82FF0DFF82FEECF98E190932D
:107F80006000809360000895E7DF803219F088E098
:107F9000F5DFFFCF80EAD9CFFB01DC01E07870E8A4
:107FA0007A0F9F01E0388EE7F80728F5309629F41C
:107FB0008FE38D938FEC8C93119790E045915D91B9
:107FC00045139160A713FACFF901A058B10990FFAA
:107FD00012C083E00BD081E00D901D9007D0329647
:107FE000A713FACFF90185E001D081E187BFE895B9
:107FF00017B610FCFDCF112408950319CDCFE7402B
:00000001FF
