:100000000C9434000C9451000C9451000C94510049
:100010000C94B2010C9451000C9451000C945100BA
:100020000C9451000C9451000C9451000C9451000C
:100030000C9451000C9451000C9405020C94510046
:100040000C9451000C9451000C9451000C945100EC
:100050000C9451000C9451000C9451000C945100DC
:100060000C9451000C94510011241FBECFEFD8E026
:10007000DEBFCDBF11E0A0E0B1E0EEE1F6E102C0ED
:1000800005900D92AE37B107D9F721E0AEE7B1E0A8
:1000900001C01D92A13BB207E1F70E9475020C94CA
:1000A0000D0B0C9400008093BB0084E88093BC008F
:1000B00081E29EE42091BC0027FD02C00197D1F7A8
:1000C000089584EA8093BC0081E29EE42091BC0004
:1000D00027FD02C00197D1F70895CF93C82F0E9442
:1000E00061008091B900887F883039F084E980937D
:1000F000BC0090E080E0CF9108958C2F880F816044
:100100000E9453008091B900887F803479F784EC95
:100110008093BC0081E29EE42091BC0027FD02C0D8
:100120000197D1F76091BB0084E88093BC0081E225
:100130009EE42091BC0027FD02C00197D1F7809179
:10014000BB0094E99093BC00762F682F90E080E08C
:100150000E944B072AE939E949E95FE30E94AA06B0
:100160000E941C07CB016D3D7F4F28F28CED9FEF65
:10017000C2CFCF93DF93D82FC62F0E9461008D2F5F
:10018000880F0E9453008091B900887F883139F030
:1001900084E98093BC0080E0DF91CF9108958C2F9B
:1001A0000E9453008091B900887F883289F784E9E2
:1001B0008093BC0081E0F0CF90917F01911106C047
:1001C00098EC899F802D112480937F0108952091C0
:1001D00082013091830181E0232B09F080E00895B2
:1001E000AC0130E020E094E00000000000000000DE
:1001F00000000000000000000000000000000000FF
:100200000000000000000000915071F72F5F3F4F89
:100210004217530741F708951F93CF93DF93389AFE
:10022000509892E0813009F093E088B1C1E0D0E0CD
:1002300002C0CC0FDD1F9A95E2F71C2F1095812389
:1002400088B982E090E00E94F00088B18C2B88B9D8
:100250008AE090E00E94F00088B1812388B930E004
:1002600020E089B190E08C239D23892B39F4283834
:1002700083E1380749F12F5F3F4FF3CF28383341EF
:1002800019F1409184005091850029E833E189B14A
:1002900090E08C239D23892B19F021503109B9F767
:1002A00080918400909185009C018417950730F41B
:1002B0002091860030918700280F391F241B350BB1
:1002C00081E02C32314008F080E0DF91CF911F9126
:1002D0000895CF93DF9383FBCC27C0F982FDC260E2
:1002E00081FDC46080FDC8606111C0680E9461002A
:1002F00080E40E9453008C2F80640E945300D4E954
:10030000D093BC0088EC90E00E94F0000E94610055
:1003100080E40E9453008C2F0E945300D093BC00B5
:1003200088EC90E0DF91CF910C94F000CF93DF93B5
:10033000C82FD62F82958F700E9469016D2F8C2F48
:100340008F70DF91CF910C946901CF93DF93EC0113
:100350008991882321F061E00E949601F9CFDF9115
:10036000CF9108951F920F920FB60F9211242F93E1
:100370003F934F935F936F937F938F939F93AF932D
:10038000BF93CF93DF93EF93FF93C6B1C270809179
:1003900081018C1798F580918001811117C080919F
:1003A000AC01811128C081E08093AC01D1E0D093F1
:1003B0000001D093AA018CEB90E090938900809388
:1003C000880081E00E94DC00D0938001C09381010D
:1003D000FF91EF91DF91CF91BF91AF919F918F915D
:1003E0007F916F915F914F913F912F910F900FBE31
:1003F0000F901F9018951092AC01D8CF8091810179
:10040000C81720F710928001E1CF1F920F920FB60C
:100410000F9211246F937F938F939F9381E080932A
:10042000AF018091820190918301892B49F08091E5
:1004300082019091830101979093830180938201BF
:100440008091A801823079F480919B0190919C0168
:10045000892B49F080919B0190919C010197909389
:100460009C0180939B018091A6019091A701892B0B
:1004700049F08091A6019091A70101979093A7015F
:100480008093A60180917F01882369F180917F018B
:10049000815080937F0180917F0169E10E94D9079B
:1004A000911104C088B191E0892788B980917E01BB
:1004B0008F5F80937E0180917E018A3F30F08BB107
:1004C00090E489278BB910927E018091A9018F5FFA
:1004D0008093A9019F918F917F916F910F900FBE93
:1004E0000F901F9018954098E1CFCF93DF93CDB731
:1004F000DEB7A0970FB6F894DEBF0FBECDBF109247
:10050000C50087E68093C40088E18093C10086E03F
:100510008093C200569A5E9882E084BD95E095BDB6
:100520009FE197BD80936E00239A2B9881E880937A
:10053000B00083E08093B1001092B300219A8091C3
:10054000800082688093800080918100836980931D
:10055000810084EC99E090938700809386008CEB77
:1005600090E09093890080938800399841988AB1EF
:100570008F768AB98BB18F768BB9389A409887B1CC
:100580008C6087B98AB1837F8AB98BB1837F8BB93D
:100590008091680082608093680080916C00826026
:1005A00080936C0078946AE0462E512C612C712C5B
:1005B0007CEBE72EF12CEDE7AE2EB12CFAEF8F2E6F
:1005C000912C9E012F5F3F4F6901A4EF2A2E332407
:1005D00033948091B001811100C1E0919F01E83016
:1005E000C0F7F0E0EA50FD4F0C941B08FE02180320
:1005F000280339034A037303A503CE038091BC008B
:1006000084608093BC001092B90088E48093B800A5
:1006100087B18F7C87B988B1806388B98AE190E01F
:10062000909383018093820181E080939F01D1CFD9
:100630000E94E700813069F660E083E00E94690172
:1006400083E090E0909383018093820182E0EDCF7C
:100650000E94E700813009F0BCCF60E083E00E9497
:10066000690181E090E0909383018093820183E0AF
:10067000DCCF0E94E700813009F0ABCF60E083E07F
:100680000E94690181E090E0909383018093820150
:1006900084E0CBCF0E94E700813009F09ACF60E080
:1006A00082E00E94690160E088E20E94960160E0B9
:1006B0008CE00E94960160E081E00E94960160E07B
:1006C00086E00E94960160E080E80E9496018CE03E
:1006D00091E00E94A5018FEE92E0909383018093B8
:1006E000820185E0A2CF0E94E700813009F071CF3E
:1006F00060E00E94960161E083E20E94B9008823D5
:1007000039F061E183E20E94B90011E0811101C07A
:1007100010E01093850161E08CE50E94B900882308
:1007200039F061E18CE50E94B90091E0811101C0CE
:1007300090E090938401190F1093A00186E090E05F
:10074000909383018093820170CF0E94E7008130F3
:1007500009F03FCF60E080E80E9496018091A001FF
:1007600081110CC08AE191E00E94A5018FEE92E018
:10077000909383018093820187E057CF813019F4F1
:1007800087E291E0F1CF87E391E00E94A50160E06C
:1007900080EC0E94960182E491E0E6CF0E94E7009F
:1007A000182F813009F015CF60E081E00E9496019A
:1007B0001093B0018FEF80939F0183E00E94DC00D3
:1007C000EAE4F1E08191882309F403CF9091C0001D
:1007D00095FFFCCF8093C600F5CF8091AF018823B1
:1007E00009F4F7CE1092AF018091850110E000E08E
:1007F000882321F083E20E946D008C0180918401A6
:10080000882309F45EC08CE50E946D002091A00150
:10081000213009F059C00115110509F0C8012091D6
:100820009A0130E0F901EE0FFF1FEA57FE4F918366
:100830008083C90101966AE070E00E94E507809319
:100840009A01E6E8F1E060E070E0CB01219131919E
:10085000620F731F811D911D2AE931E02E173F079A
:10086000A9F7A30192010E94F9073093AE012093EA
:10087000AD018091C00087FF80C08091C00087FFDC
:10088000FCCFE091C600E154E53108F076C0F0E01D
:10089000E45BFB4F0C941B086E04BD04CD05A8055A
:1008A000BD04BD04BD04BD04BD04BD04BD04BD0440
:1008B0008A04BD04C005BD04BD04BD04D905BD0442
:1008C000A10490E080E0A2CF223029F4800F911F94
:1008D00096958795A4CF90E080E0A1CF8091AC0160
:1008E000882309F44AC08091C00085FFFCCF88E0CE
:1008F00091E08093C6001092AC0111E010930001CA
:1009000081E00E94DC001093AA01F0928900E0923D
:10091000880033C08091AC01813079F111E01093EF
:10092000AC011093000181E00E94DC001093AA0149
:10093000F0928900E09288001092B3001092A10119
:100940001CC08091AC018111F9C08091030190918C
:100950000401883E934048F4809103019091040182
:10096000C2969093040180930301809103019091BA
:10097000040190930201809301018091AC018111E7
:100980005FC14C9B1EC180919E018B3018F48F5F1C
:1009900080939E0180919E018A30F1F48BE08093D8
:1009A0009E018091A8018230B9F08091010190915F
:1009B0000201883E934048F4809101019091020128
:1009C000C29690930201809301018091A801811148
:1009D00003C081E08093A8014F9BF6C080919D01E8
:1009E0008B3018F48F5F80939D0180919D018A3038
:1009F000E9F48BE080939D018091A8018230B1F0F1
:100A00008091010190910201892B49F080910101AF
:100A100090910201C297909302018093010180910D
:100A2000A801811103C081E08093A8018091A801F1
:100A3000813009F0CCC04C990BC04F9909C088EEA9
:100A400093E090939C0180939B0182E08093A801A6
:100A500080910301909104012091A0012223C1F013
:100A600020919F012F3FA1F42091AD013091AE0163
:100A7000821B930B9C01225E3F4F2D33310508F002
:100A8000C6C081E08093AA01F0928900E0928800BC
:100A9000E091AA0115E4E33020F4F0E0EB5FFE4FB3
:100AA00010818091A901843608F493CD1092A90198
:100AB00020910301309104018091A801882321F045
:100AC00020910101309102018091AC0181113FC15F
:100AD00088E091E03F932F939F938F932DE531E032
:100AE0003F932F93DF92CF920E94350860E080E819
:100AF0000E949601C6010E94A501812F012E000CC3
:100B0000990B9F931F938091AE018F938091AD01BC
:100B10008F932DE631E03F932F93DF92CF920E9487
:100B2000350860E080EC0E949601C6010E94A50194
:100B30000FB6F894DEBF0FBECDBF4BCD8091A101A3
:100B40008F3F09F0865F8093B3008093A10115CF9A
:100B50008091AC0181110DC080910301909104013D
:100B6000892B09F402CF8091030190910401C2976F
:100B7000F8CE8091A1018A3108F4DECE8A50E3CF0D
:100B80008091AC01813009F0F8CE82E08093AA0117
:100B90009092890080928800F0CE8091AC018130E3
:100BA00009F0EBCE1092AA01B0928900A0928800C1
:100BB000E4CE8091AC01813009F0DFCE8093AA01B0
:100BC000A4CE10929E01E6CE10929D010ECF809190
:100BD000A801823009F03CCF4C9917C04F9915C03D
:100BE00080919B0190919C01892B09F031CF8091DC
:100BF000010190910201909304018093030182E02E
:100C00000E94DC001092A80123CF81E01FCFE09169
:100C1000AA014F975CF0E23009F43FCF82E0809365
:100C2000AA01909289008092880032CFEE2309F4C5
:100C300034CF1092AA01B0928900A092880028CFE8
:100C40008091A201882359F081508093A201809164
:100C5000AB018F5F893140F58093AB0119CF4C9B7D
:100C60000CC08091A1018F3FA9F08B5F8093B300EE
:100C70008093A10183E08093A2014F9BE8CF8091F4
:100C8000A101882361F085508093B3008093A10176
:100C900083E0DBCF8093B3008093A101EECF10926D
:100CA000B3001092A101D3CF1092AB0181E00E945A
:100CB0000C01182F82E00E940C012091A6013091B6
:100CC000A701232B29F49091A50191111092A50160
:100CD0009091A50191111AC0112381F09091A40166
:100CE00091110CC091E09093A5013092A701209240
:100CF000A6011093A4018093A301CACE8823C9F34F
:100D00009091A3019111F5CF92E0EDCF9091A501C3
:100D1000913081F4882369F392E09093AA01909234
:100D20008900809288001092A5011092A70110926C
:100D3000A601DFCF9091A5019230D9F61123C9F217
:100D40001092AA01B0928900A0928800ECCF8AE0AC
:100D500091E0C0CE0E94BE060C949F070E949807A7
:100D600058F00E94910740F029F45F3F29F00C945D
:100D7000880751110C94D3070C948E070E94B0077A
:100D800068F39923B1F3552391F3951B550BBB27BA
:100D9000AA2762177307840738F09F5F5F4F220FFF
:100DA000331F441FAA1FA9F335D00E2E3AF0E0E8F6
:100DB00032D091505040E695001CCAF72BD0FE2F40
:100DC00029D0660F771F881FBB1F261737074807D4
:100DD000AB07B0E809F0BB0B802DBF01FF2793588C
:100DE0005F4F3AF09E3F510578F00C9488070C94C1
:100DF000D3075F3FE4F3983ED4F3869577956795E4
:100E0000B795F7959F5FC9F7880F911D96958795C0
:100E100097F90895E1E0660F771F881FBB1F6217DF
:100E200073078407BA0720F0621B730B840BBA0B9D
:100E3000EE1F88F7E09508950E94B80788F09F5745
:100E400098F0B92F9927B751B0F0E1F0660F771FEE
:100E5000881F991F1AF0BA95C9F714C0B13091F0E4
:100E60000E94D207B1E008950C94D207672F782F23
:100E70008827B85F39F0B93FCCF3869577956795A9
:100E8000B395D9F73EF490958095709561957F4F15
:100E90008F4F9F4F0895E89409C097FB3EF49095BB
:100EA0008095709561957F4F8F4F9F4F9923A9F043
:100EB000F92F96E9BB279395F695879577956795D2
:100EC000B795F111F8CFFAF4BB0F11F460FF1BC016
:100ED0006F5F7F4F8F4F9F4F16C0882311F096E9A9
:100EE00011C0772321F09EE8872F762F05C0662357
:100EF00071F096E8862F70E060E02AF09A95660F10
:100F0000771F881FDAF7880F9695879597F90895C8
:100F100097F99F6780E870E060E008959FEF80ECAC
:100F2000089500240A94161617061806090608954F
:100F300000240A9412161306140605060895092EB5
:100F40000394000C11F4882352F0BB0F40F4BF2B24
:100F500011F460FF04C06F5F7F4F8F4F9F4F089564
:100F600057FD9058440F551F59F05F3F71F047955A
:100F7000880F97FB991F61F09F3F79F0879508953F
:100F8000121613061406551FF2CF4695F1DF08C05E
:100F9000161617061806991FF1CF8695710561057B
:100FA00008940895E894BB2766277727CB0197F923
:100FB0000895991B79E004C0991F961708F0961BB5
:100FC000881F7A95C9F78095089597FB072E16F428
:100FD000009407D077FD09D00E94210807FC05D0B6
:100FE0003EF4909581959F4F0895709561957F4F40
:100FF0000895A1E21A2EAA1BBB1BFD010DC0AA1F5A
:10100000BB1FEE1FFF1FA217B307E407F50720F071
:10101000A21BB30BE40BF50B661F771F881F991FEC
:101020001A9469F760957095809590959B01AC0135
:10103000BD01CF010895EE0FFF1F0590F491E02D43
:101040000994AA1BBB1B51E107C0AA1FBB1FA6170F
:10105000B70710F0A61BB70B881F991F5A95A9F761
:1010600080959095BC01CD010895AEE0B0E0EBE332
:10107000F8E00C94E40A0D891E8986E08C831A83BB
:1010800009838FEF9FE79E838D83AE01475E5F4F9D
:101090006F89788DCE0101960E9458082F8138857E
:1010A000020F131FF80110822E96E4E00C94000B3F
:1010B000ABE0B0E0EEE5F8E00C94D60A7C013B0131
:1010C0008A01FC0117821682838181FFC8C1CE018B
:1010D00001965C01F7019381F30193FD859193FFE4
:1010E00081913F01882309F453C1853239F493FD7E
:1010F000859193FF81913F01853229F4B70190E0FA
:101100000E94480AE7CF912C212C312CFFE1F315E6
:1011100038F08B3211F190F4803209F1833229F1E9
:1011200037FC3CC020ED280F2A3050F536FE20C099
:101130008AE0989E200D1124922E06C08D3291F0E7
:10114000803371F7689430F8F30193FD859193FF34
:1011500081913F018111DACF21C0689431F8689400
:1011600032F8F2CF689433F8EFCF689434F8ECCFCC
:10117000EAE02E9E200D1124222E689435F8E4CF4B
:101180008E3229F436FC04C1689436F8DDCF8C36F3
:1011900019F4689437F8D8CF8836B1F2982F9F7D2C
:1011A00095549330E0F08336A1F18337C1F1833554
:1011B00009F063C02801F2E04F0E511CF801C08015
:1011C000D180692D70E036FC02C06FEF7FEFC60161
:1011D0000E94320A4C01689437F882010AC00C5F01
:1011E0001F4FFFE3F98388248394912C6501E894D1
:1011F00037F833FE2DC0522C8114910471F555201F
:1012000009F468CFB70180E290E00E94480A5A943E
:10121000F6CFF801808189830E5F1F4FE4CF28014C
:10122000F2E04F0E511CF801C080D180692D70E0B2
:1012300036FC02C06FEF7FEFC6010E943D0A4C01F1
:101240008201D5CFB70180E290E00E94480A2A943B
:101250002814190409F0B0F7CECFF60137FC8591B8
:1012600037FE81916F01B70190E00E94480A51104A
:101270005A94F1E08F1A9108BFCF843619F089365D
:1012800009F077C0F80137FE6BC0608171818281FF
:1012900093810C5F1F4FF32DFF763F2E97FF09C000
:1012A00090958095709561957F4F8F4F9F4F689473
:1012B00037F82AE030E0A5010E94780AC82ECA1843
:1012C0008C2C432C36FE0CC0E89440F8C91440F432
:1012D00034FE05C032FC03C0F32DFE7E4F2E892C58
:1012E00044FE95C0FE01EC0DF11D8081803309F0B4
:1012F00087C0242D297E422E842D8870582E43FCD1
:1013000095C040FE8FC09C2C821418F42C0C922C9B
:10131000981844FE91C0B70180E390E00E94480A0B
:1013200042FE09C088E790E041FE02C088E590E0F7
:10133000B7010E94480AC91408F48AC0CA94D12C83
:101340009FEFC91AD90ACA0CDB1CF60182916F0102
:10135000B70190E00E94480AAC14BD04B1F74FCF2A
:1013600060817181072E000C880B990B0E5F1F4F57
:1013700092CFD32CE894D4F82AE030E0853739F1C5
:10138000232D297FD22E8F3601F148F48835A9F01C
:10139000F701868197812B96E2E10C94F20A80375F
:1013A00049F08837A9F7D4FE02C06894D2F820E14A
:1013B00030E00DC06894D4F8F6CF34FE03C0822F1D
:1013C0008660D82E20E132E002C028E030E0F8014B
:1013D000D7FE0FC060817181828193810C5F1F4FA6
:1013E000A5010E94780AC82ECA183D2CE89437F847
:1013F00067CF6081718190E080E00E5F1F4FF0CF7A
:1014000042FC02C0839478CF8394839475CF842D5B
:10141000867809F471CFF6CFB70180E290E00E94A0
:10142000480A83948214C0F3512C73CF522C58185D
:10143000821408F46ECFF8CF842D867809F47BCF20
:101440008BE241FE80E247FC8DE2B70190E071CF74
:10145000B70180E390E00E94480A9A946CCF8FEF26
:101460009FEF99CFFC010590615070400110D8F7B3
:10147000809590958E0F9F1F0895FC0161507040DC
:1014800001900110D8F7809590958E0F9F1F0895B9
:101490000F931F93CF93DF93182F092FEB018B81AD
:1014A00081FD09C01FEF0FEF812F902FDF91CF91AA
:1014B0001F910F91089582FF14C02E813F818C816E
:1014C0009D81281739073CF4E881F981CF01019605
:1014D0009983888310838E819F8101969F838E8359
:1014E000E3CFE885F985812F0995892BA1F3DACF20
:1014F000FA01AA27283051F1203181F1E8946F9345
:101500006E7F6E5F7F4F8F4F9F4FAF4FB1E03ED0EA
:10151000B4E03CD0670F781F891F9A1FA11D680F88
:10152000791F8A1F911DA11D6A0F711D811D911DBB
:10153000A11D20D009F468943F912AE0269F112430
:101540003019305D3193DEF6CF010895462F477094
:10155000405D4193B3E00FD0C9F7F6CF462F4F70EF
:10156000405D4A3318F0495D31FD4052419302D04D
:10157000A9F7EACFB4E0A6959795879577956795F3
:10158000BA95C9F700976105710508959B01AC01F3
:101590000A2E06945795479537952795BA95C9F71A
:1015A000620F731F841F951FA01D08952F923F92F5
:1015B0004F925F926F927F928F929F92AF92BF9263
:1015C000CF92DF92EF92FF920F931F93CF93DF930F
:1015D000CDB7DEB7CA1BDB0B0FB6F894DEBF0FBE6C
:1015E000CDBF09942A88398848885F846E847D84B9
:1015F0008C849B84AA84B984C884DF80EE80FD80BB
:101600000C811B81AA81B981CE0FD11D0FB6F89430
:0E161000DEBF0FBECDBFED010895F894FFCFF1
:10161E00016400960046504141004D0050726F6AC1
:10162E0065746F204C414253490053656D205365DC
:10163E006E736F72657300312053656E736F722017
:10164E0050726F6E746F00322053656E736F7265D9
:10165E00730050726F6E746F7300496E69637320FE
:10166E0066696E616C697A616461730A004D4F44FC
:10167E004F3A2573205345543A253475004C7578EE
:0E168E003A253475204D6F746F723A25630053
:00000001FF
