:100000000C9434000C9451000C9451000C94510049
:100010000C946F020C9451000C9451000C945100FC
:100020000C9451000C9451000C9451000C9451000C
:100030000C9451000C9451000C94CF020C9451007C
:100040000C9451000C9451000C9451000C945100EC
:100050000C9451000C9451000C9451000C945100DC
:100060000C9451000C94510011241FBECFEFD8E026
:10007000DEBFCDBF14E0A0E0B1E0E2E7FEE102C0E8
:1000800005900D92AC30B107D9F724E0ACE0B4E0B4
:1000900001C01D92A93AB207E1F70E9428030C940F
:1000A000370F0C9400008093BB0084E88093BC0061
:1000B00081E29EE42091BC0027FD02C00197D1F7A8
:1000C000089584EA8093BC0081E29EE42091BC0004
:1000D00027FD02C00197D1F70895CF93C82F0E9442
:1000E00061008091B900887F883039F084E980937D
:1000F000BC0090E080E0CF9108958C2F880F816044
:100100000E9453008091B900887F803479F784EC95
:100110008093BC0081E29EE42091BC0027FD02C0D8
:100120000197D1F76091BB0084E88093BC0081E225
:100130009EE42091BC0027FD02C00197D1F7809179
:10014000BB0094E99093BC00762F682F90E080E08C
:100150000E94650B2AE939E949E95FE30E94C40A74
:100160000E94360BCB016D3D7F4F28F28CED9FEF47
:10017000C2CFCF93DF93D82FC62F0E9461008D2F5F
:10018000880F0E9453008091B900887F883139F030
:1001900084E98093BC0080E0DF91CF9108958C2F9B
:1001A0000E9453008091B900887F883289F784E9E2
:1001B0008093BC0081E0F0CFCF93C82F0E946100F4
:1001C00088E70E94530080E40E9453008C2F0E9415
:1001D000530084E98093BC00CF910895EF92FF9281
:1001E0000F931F93CF93DF937C01F701C1917F01A0
:1001F000CC23B9F0C0320CF4CFE3F6E0CF02E0013B
:10020000112410E000E0F801EC0FFD1FE15BFF4F4F
:1002100080810E94DC000F5F1F4F0630110599F7A7
:10022000E4CFDF91CF911F910F91FF90EF90089550
:10023000CF93C82F0E94610088E70E94530080E09E
:100240000E9453008C2F0E94530084E98093BC00CD
:10025000CF91089580550E94180180E00E941801F6
:1002600080E10C941801CF93DF93C0EB8C2F0E9498
:10027000180180E00E94180180E10E941801D0E07E
:1002800080E00E94DC00DF5FD038D1F7CF5FC83B51
:1002900069F7DF91CF91089590919704911106C06D
:1002A00098EC899F802D11248093970408950F93D3
:1002B0001F93813011F500911804109119042091B9
:1002C0001A0430911B04E3E1F4E0A8E1B4E092E009
:1002D00040910E0450910F0460911004709111042C
:1002E000401B510B620B730B4C33510561057105BB
:1002F00090F480811F910F91089500911404109142
:1003000015042091160430911704E2E1F4E0A4E111
:10031000B4E093E0DDCF40910E0450910F04609162
:100320001004709111044D935D936D937C9313971A
:1003300028B141E050E002C0440F551F9A95E2F702
:10034000342F3095232328B99AE09A95F1F700C00D
:1003500028B1242B28B995E39A95F1F7000098B1BC
:10036000932398B961E87EE329B130E02423352353
:10037000232B21F461507109B9F7BBCF30E020E0A5
:1003800069B170E064237523672B59F02F5F3F4FED
:10039000213197E23907A1F730934A0420934904A9
:1003A00005C08130C9F325363105B0F72353310933
:1003B00081E02D39374008F080E080839BCF809129
:1003C000A4049091A504A091A604B091A704B7FF3E
:1003D00008C01092A4041092A5041092A6041092D2
:1003E000A7048091A4049091A504A091A604B091C3
:1003F000A70481389D48AB45B10564F080E89DE8CD
:10040000ABE5B0E08093A4049093A504A093A60468
:10041000B093A7048091A0049091A104A091A2049C
:10042000B091A304B7FF08C01092A0041092A104D9
:100430001092A2041092A3048091A0049091A104B0
:10044000A091A204B091A304813A9A45A243B105B8
:1004500064F080EA9AE5A2E3B0E08093A004909370
:10046000A104A093A204B093A3046091A40470918A
:10047000A50490E080E00E949C0A6091A004709125
:10048000A10482E090E00C949C0AEF92FF921F93EB
:10049000CF93DF93182FEB017A01BA01CE010E94AE
:1004A0004F0C892BB1F0BE01C7010E94580C812F5F
:1004B0000E942A0186EC93E00E94EE00812F0E94A8
:1004C0002A01CE01DF91CF911F91FF90EF900C9404
:1004D000EE00DF91CF911F91FF90EF9008951F9252
:1004E0000F920FB60F9211242F933F934F935F9368
:1004F0006F937F938F939F93AF93BF93CF93DF932C
:10050000EF93FF93C6B1C27080910D048C1708F071
:100510003FC080910C04811123C08091060181119C
:1005200034C081E080930601D1E0D093010121E045
:1005300030E030930E0120930D018CEB90E090930E
:100540008B0080938A0030930C0120930B019093D1
:1005500089008093880081E00E944C01D0930C04B4
:10056000C0930D04FF91EF91DF91CF91BF91AF91B7
:100570009F918F917F916F915F914F913F912F91BB
:100580000F900FBE0F901F90189510920601CCCFC0
:1005900080910D04C81720F710920C04E1CF1F9230
:1005A0000F920FB60F9211248F939F93AF93BF9327
:1005B00081E080939B0480910E0490910F04A091A0
:1005C0001004B09111040296A11DB11D80930E0478
:1005D00090930F04A0931004B093110480911C0415
:1005E00090911D04892B49F080911C0490911D0469
:1005F000019790931D0480931C0480919C04823089
:1006000079F48091870490918804892B49F0809136
:1006100087049091880401979093880480938704BD
:100620008091940490919504892B49F080919404D1
:100630009091950401979093950480939404BF91B1
:10064000AF919F918F910F900FBE0F901F901895B3
:10065000CF93DF93CDB7DEB7A8970FB6F894DEBF80
:100660000FBECDBF90E080E00E94960AB0E0A0E00F
:100670008093A4049093A504A093A604B093A70428
:1006800082E090E00E94960AB0E0A0E08093A0048F
:100690009093A104A093A204B093A3041092C50068
:1006A00087E68093C40088E18093C10086E0809350
:1006B000C200569A5E9882E084BD95E095BD9FE1A8
:1006C00097BD80936E00239A2B9881E88093B000A9
:1006D00083E08093B1001092B30084B1866084B946
:1006E00080918000826A809380008091810083697C
:1006F0008093810084EC99E090938700809386003A
:100700008CEB90E0909389008093880090938B000D
:1007100080938A00399841988AB18F768AB98BB1D3
:100720008F768BB9389A409887B18C6087B98AB137
:10073000837F8AB98BB1837F8BB980916800826097
:100740008093680080916C00826080936C00789444
:10075000EE24E394F12C0CEB10E072E0A72EB12C08
:10076000E4EF6E2E772473949E012F5F3F4F690153
:100770008091A8048111C6C080918D04813091F1CF
:10078000B8F0823009F479C0833091F780911C046D
:1007900090911D04892B61F70E94330181E08093C1
:1007A000A8048FEF80938D0483E00E944C01E0CF7A
:1007B0008091BC0084608093BC001092B9008CE0F2
:1007C0008093B80087B18F7C87B988B1806388B97E
:1007D00086E090E090931D0480931C0481E0809358
:1007E0008D04C6CF80911C0490911D04892B09F0C3
:1007F000BFCF8EEA0E94180180E20E94180182E0B9
:100800000E94180180EB0E94180188EC0E941801D8
:1008100080E00E94180180E10E94180180E40E949B
:10082000180181E80E9418018FEC0E94180181EAEA
:100830000E94180186EA0E94180188EA0E941801A5
:100840008FE30E9418018DE80E94180184E10E9444
:1008500018018FEA0E9418010E94330180E00E9473
:100860002A018CE593E00E94EE008FEE92E09093D7
:100870001D0480931C0482E0B2CF80911C049091EF
:100880001D04892B09F074CF61E083E20E94B90056
:10089000882341F061E183E20E94B9009924939496
:1008A000811101C0912C90921F0461E08CE50E949F
:1008B000B900882339F061E18CE50E94B90091E02C
:1008C000811101C090E090931E04990E90928E04C5
:1008D0000E94330180E00E942A018AE693E0992079
:1008E00039F031E087E793E0931611F087E893E061
:1008F0000E94EE008FEE92E090931D0480931C0402
:1009000083E06DCF20910D0130910E018091A40400
:100910009091A504A091A604B091A70422303105BE
:1009200009F04BC080386DE896076BE5A607B10566
:100930005CF40D96A11DB11D8093A4049093A504B1
:10094000A093A604B093A70420910B0130910C0151
:100950008091A0049091A104A091A204B091A3045D
:1009600022303105B1F5803A2AE5920722E3A20749
:10097000B1055CF40D96A11DB11D8093A004909368
:10098000A104A093A204B093A3048091A404909125
:10099000A504A091A604B091A70480383DE8930770
:1009A0003BE5A307B10504F1F0920E01E0920D01C1
:1009B00010938B0000938A001CC0232B29F6181675
:1009C00019061A061B060CF0BFCF0A97A109B10938
:1009D000B3CF232BD1F6181619061A061B06ACF650
:1009E0000A97A109B109C9CF181619061A061B06DC
:1009F000DCF64091A0045091A1046091A204709192
:100A0000A304403A2AE5520722E3620771054CF03D
:100A1000F0920C01E0920B01109389000093880082
:100A200005C0141615061606170694F720910D0139
:100A300030910E012130310561F52091090130918D
:100A40000A012130310529F1B7FF08C01092A40432
:100A50001092A5041092A6041092A7048091A404F9
:100A60009091A504A091A604B091A70481389D4857
:100A7000AB45B10564F080E89DE8ABE5B0E080935C
:100A8000A4049093A504A093A604B093A7040E9485
:100A9000DF0180910B0190910C01019799F58091F4
:100AA000070190910801019769F18091A00490914C
:100AB000A104A091A204B091A304B7FF08C01092B2
:100AC000A0041092A1041092A2041092A304809199
:100AD000A0049091A104A091A204B091A304813A32
:100AE0009A45A243B10564F080EA9AE5A2E3B0E03A
:100AF0008093A0049093A104A093A204B093A304B4
:100B00000E94DF0180910D0190910E0190930A01E6
:100B10008093090180910B0190910C019093080141
:100B20008093070180919F04882309F46BC1109280
:100B30009F0480911F04912C812C882321F083E253
:100B40000E946D004C0180911E04882309F43EC16F
:100B50008CE50E946D0020918E04213009F039C18E
:100B60008114910409F0C4012091340430E0F901AA
:100B7000EE0FFF1FE05EFB4F91838083C90101965A
:100B80006AE070E00E94FF0B80933404E0E2F4E03E
:100B900044E354E060E070E0CB0121913191620FB9
:100BA000731F811D911D4E175F07B9F72AE030E0D2
:100BB00040E050E00E94130C20939D0430939E046B
:100BC0003F932F938AE993E09F938F93DF92CF9285
:100BD0000E945F0C43E754E0B60180E00E944502AA
:100BE000809106010F900F900F900F900F900F9033
:100BF0004FE554E066EA73E0882311F067EB73E099
:100C000081E00E94450280910B0190910C012FE43C
:100C100033E0009731F029E433E0029711F026E544
:100C200033E080910D0190910E01009709F4DEC030
:100C3000029709F0D8C089E493E03F932F939F93E4
:100C40008F9388EC93E09F938F93DF92CF920E94D3
:100C50005F0C4BE454E0B60182E00E94450283E061
:100C60000E942A0184ED93E00E94EE0060919D04B1
:100C700070919E0490E080E027E0660F771F881F48
:100C8000991F2A95D1F70FB6F894DEBF0FBECDBFDE
:100C900028EE33E040E050E00E94130C922E27FF34
:100CA00002C08FE7982E80910001891589F09092FB
:100CB000000185E00E942A01812C81E0891408F05E
:100CC00080E081950E94DC008394B0E88B12F5CF20
:100CD0008091490490914A049F938F9385EE93E00D
:100CE0009F938F93DF92CF920E945F0C45E354E075
:100CF000B60184E00E944502809106010F900F909A
:100D00000F900F900F900F9041E481114DE480916E
:100D10009C04882309F46DC0809104019091050121
:100D200020910D0130910E012230310509F466C089
:100D3000232B09F065C026E460910B0170910C0132
:100D400031E46230710521F036E4672B09F030E5BB
:100D50005091A3045F935091A2045F935091A1041A
:100D60005F935091A0045F935091A7045F935091BB
:100D7000A6045F935091A5045F935091A4045F93E0
:100D80001F923F931F922F9320919E042F932091A7
:100D90009D042F939F938F931F924F9381EF93E026
:100DA0009F938F93DF92CF920E945F0CF6010FB654
:100DB000F894DEBF0FBECDBF8191882319F19091C9
:100DC000C00095FFFCCF8093C600F6CF90E080E096
:100DD000C2CE223029F4880D991D96958795C4CEF0
:100DE00090E080E0C1CE86E593E027CF8FE493E0EA
:100DF00024CF809102019091030192CF21E49CCFF6
:100E000020E59ACF80919B04882309F4B1CC1092FD
:100E10009B0480919A048F5F80939A048091990437
:100E20008F5F80939904809199048A3F30F08BB151
:100E300090E489278BB910929904809198048F5F70
:100E40008093980480919804893128F081E0809300
:100E50009F041092980480919704882309F43BC062
:100E6000809197048150809397048091970469E161
:100E70000E94F30B911104C088B191E0892788B9D1
:100E80008091C00087FF82C08091C00087FFFCCFA7
:100E9000E091C600E154E83108F078C0F0E0ED5A86
:100EA000F84F0C94350C6D07C6078B086308C6070E
:100EB000B908C607C607C607C607C607C6078A0712
:100EC000C6077B08C908C607C6079B08C607AA0746
:100ED000C607C607A9084098D3CF8091060188238A
:100EE00009F454C01092060181E0809301010E9430
:100EF0004C01F0920E01E0920D0110938B000093D3
:100F00008A00F0920C01E0920B011093890000938B
:100F100088003CC0809106018130C1F181E080935E
:100F20000601809301010E944C01F0920E01E092B3
:100F30000D0110938B0000938A00F0920C01E09257
:100F40000B0110938900009388001092B300109257
:100F50008F041CC0809106018111ABC080910201F9
:100F600090910301883E934048F480910201909152
:100F70000301C296909303018093020180910201C4
:100F800090910301909305018093040180910601E3
:100F9000811114C24C9B03C180918A048B3018F4D8
:100FA0008F5F80938A0480918A048A30F1F48BE009
:100FB00080938A0480919C048230B9F0809104016E
:100FC00090910501883E934048F4809104019091EE
:100FD0000501C296909305018093040180919C04C1
:100FE000811103C081E080939C044F9BDBC0809102
:100FF00089048B3018F48F5F809389048091890471
:101000008A30E9F48BE08093890480919C048230DB
:10101000B1F08091040190910501892B49F08091F4
:10102000040190910501C2979093050180930401FA
:1010300080919C04811103C081E080939C04809185
:101040009C04813009F0B1C04C990BC04F9909C084
:1010500088EE93E0909388048093870482E08093E5
:101060009C04209102013091030180918E04882319
:1010700009F47ECB80918D048F3F09F079CB4091AC
:101080009D0450919E042090A4043090A5044090AB
:10109000A6045090A704B0E82B16BDE83B06BBE5BC
:1010A0004B0651040CF4A1C010938B0000938A00EE
:1010B000A2C080918F048F3F09F0865F8093B300B8
:1010C00080938F0463CF8091060181110DC08091C0
:1010D000020190910301892B09F450CF8091020104
:1010E00090910301C29746CF80918F048A3108F412
:1010F0002CCF8A50E3CF80910601813009F046CF92
:10110000B0920E01A0920D018FEA90E090938B00B7
:1011100080938A003BCF80910601813009F036CF61
:1011200010920E0110920D01A4ECB0E0B0938B0070
:10113000A0938A002BCF80910601813009F026CF41
:10114000F0920E01E0920D0110938B0000938A0043
:101150001DCF80910601813009F018CFB0920C01AB
:10116000A0920B0129EA30E0309389002093880097
:101170000DCF80910601813009F008CF10920C014B
:1011800010920B0185EC90E0909389008093880089
:10119000FDCE80910601813009F0F8CEB2CE1092DA
:1011A0008A0401CF1092890429CF80919C04823057
:1011B00009F057CF4C9917C04F9915C080918704FB
:1011C00090918804892B09F04CCF80910401909173
:1011D0000501909303018093020182E00E944C017B
:1011E00010929C043ECF81E03ACF121413041404F1
:1011F00015040CF059CF8091A0049091A104A09106
:10120000A204B091A304803A6AE5960762E3A607B8
:10121000B1052CF0109389000093880005C01816C2
:1012200019061A061B06B4F7241B350BA901485DE5
:101230005F4F4135510548F4F0920E01E0920D01E7
:1012400010938B0000938A0097C0293231050CF46B
:101250005BC020E822162DE832062BE54206510439
:10126000BCF4B0920E01A0920D018FEA90E0909331
:101270008B0080938A00F0920C01E0920B01109396
:101280008900009388001092B30010928F0470CAF6
:10129000F0920E01E0920D0110938B0000938A00F2
:1012A000803A9A45A243B1055CF4B0920C01A09239
:1012B0000B0189EA90E09093890080938800E3CF46
:1012C000F0920C01E0920B011093890000938800CA
:1012D00080918B0490918C0401968436910528F4BA
:1012E00090938C0480938B0443CA10928C041092C8
:1012F0008B0480918F048F3F09F43ACA865F8093F4
:10130000B30080938F0434CA20918F04222329F1E3
:10131000F0920E01E0920D0110938B0000938A0071
:10132000F0920C01E0920B01109389000093880069
:1013300080918B0490918C0401968436910580F203
:1013400010928C0410928B042A3008F49CCF2A50FF
:101350002093B30020938F040BCA121413041404B7
:1013600015049CF410920E0110920D01A4ECB0E053
:10137000B0938B00A0938A00F0920C01E0920B01D5
:101380001093890000938800F3C9181619061A06ED
:101390001B060CF051CFF0920E01E0920D0110935C
:1013A0008B0000938A0010920C0110920B0125EC27
:1013B00030E03093890020938800DAC9809190044E
:1013C000882359F0815080939004809196048F5F18
:1013D000823340F580939604CBC94C9B0CC080911E
:1013E0008F048F3FA9F08B5F8093B30080938F04AD
:1013F00083E0809390044F9BE8CF80918F048823F3
:1014000061F085508093B30080938F0483E0DBCF3D
:101410008093B30080938F04EECF1092B3001092AC
:101420008F04D3CF1092960481E00E945701982E2A
:1014300082E00E9457012091940430919504232B5F
:10144000F9F02091940430919504215031093093A2
:101450009504209394042091940430919504232BB7
:1014600079F490919304992359F0909193049330D7
:1014700039F010929304909292048093910478C969
:1014800090919304913031F178F09230D9F193300A
:1014900091F79110F0CF8111EECF1092930410923A
:1014A000950410929404E7CF992061F090919204F2
:1014B000911108C091E0909393047092950460920A
:1014C0009404D9CF8823B9F2909191049111D3CF8C
:1014D00092E0F1CF882379F2B0920E01A0920D0133
:1014E000AFEAB0E0B0938B00A0938A00B0920C01F9
:1014F000A0920B0129EA30E0309389002093880004
:1015000093E0D9CF992009F4B6CF10920E01109232
:101510000D01A4ECB0E0B0938B00A0938A00109270
:101520000C0110920B0125EC30E0E6CFA8E1B0E011
:1015300042E050E00C94A40A0196272F0E94B30ABF
:101540000C94B20ADC01CB01FC01F999FECF06C074
:10155000F2BDE1BDF89A319600B40D924150504071
:10156000B8F70895262FF999FECF92BD81BDF89A5C
:10157000019700B4021639F01FBA20BD0FB6F894D7
:10158000FA9AF99A0FBE08950E94D80A0C94B90BE2
:101590000E94B20B58F00E94AB0B40F029F45F3F61
:1015A00029F00C94A20B51110C94ED0B0C94A80B88
:1015B0000E94CA0B68F39923B1F3552391F3951B4D
:1015C000550BBB27AA2762177307840738F09F5F64
:1015D0005F4F220F331F441FAA1FA9F335D00E2ED1
:1015E0003AF0E0E832D091505040E695001CCAF73E
:1015F0002BD0FE2F29D0660F771F881FBB1F261701
:1016000037074807AB07B0E809F0BB0B802DBF01D7
:10161000FF2793585F4F3AF09E3F510578F00C94A6
:10162000A20B0C94ED0B5F3FE4F3983ED4F3869548
:1016300077956795B795F7959F5FC9F7880F911DC7
:101640009695879597F90895E1E0660F771F881FB3
:10165000BB1F621773078407BA0720F0621B730B66
:10166000840BBA0BEE1F88F7E09508950E94D20B09
:1016700088F09F5798F0B92F9927B751B0F0E1F053
:10168000660F771F881F991F1AF0BA95C9F714C003
:10169000B13091F00E94EC0BB1E008950C94EC0B8A
:1016A000672F782F8827B85F39F0B93FCCF386953C
:1016B00077956795B395D9F73EF490958095709599
:1016C00061957F4F8F4F9F4F0895E89409C097FB16
:1016D0003EF490958095709561957F4F8F4F9F4F09
:1016E0009923A9F0F92F96E9BB279395F69587954D
:1016F00077956795B795F111F8CFFAF4BB0F11F410
:1017000060FF1BC06F5F7F4F8F4F9F4F16C08823B6
:1017100011F096E911C0772321F09EE8872F762FEC
:1017200005C0662371F096E8862F70E060E02AF02D
:101730009A95660F771F881FDAF7880F9695879519
:1017400097F9089597F99F6780E870E060E0089541
:101750009FEF80EC089500240A94161617061806C9
:101760000906089500240A941216130614060506A5
:101770000895092E0394000C11F4882352F0BB0F36
:1017800040F4BF2B11F460FF04C06F5F7F4F8F4F99
:101790009F4F089557FD9058440F551F59F05F3FD4
:1017A00071F04795880F97FB991F61F09F3F79F083
:1017B00087950895121613061406551FF2CF469505
:1017C000F1DF08C0161617061806991FF1CF869587
:1017D0007105610508940895E894BB27662777276B
:1017E000CB0197F90895991B79E004C0991F9617CA
:1017F00008F0961B881F7A95C9F78095089597FB86
:10180000072E16F4009407D077FD09D00E943B0CF8
:1018100007FC05D03EF4909581959F4F08957095F3
:1018200061957F4F0895A1E21A2EAA1BBB1BFD01F3
:101830000DC0AA1FBB1FEE1FFF1FA217B307E407AF
:10184000F50720F0A21BB30BE40BF50B661F771F07
:10185000881F991F1A9469F76095709580959095E7
:101860009B01AC01BD01CF010895EE0FFF1F059054
:10187000F491E02D0994AA1BBB1B51E107C0AA1FDC
:10188000BB1FA617B70710F0A61BB70B881F991F21
:101890005A95A9F780959095BC01CD010895FB015B
:1018A000DC018D91019080190110D9F3990B0895F5
:1018B000FB01DC0101900D920020E1F70895AEE0FC
:1018C000B0E0E5E6FCE00C940E0F0D891E8986E081
:1018D0008C831A8309838FEF9FE79E838D83AE01EC
:1018E000475E5F4F6F89788DCE0101960E94820C12
:1018F0002F813885020F131FF80110822E96E4E025
:101900000C942A0FABE0B0E0E8E8FCE00C94000F88
:101910007C013B018A01FC0117821682838181FFD1
:10192000C8C1CE0101965C01F7019381F30193FDDB
:10193000859193FF81913F01882309F453C185323A
:1019400039F493FD859193FF81913F01853229F40C
:10195000B70190E00E94720EE7CF912C212C312C20
:10196000FFE1F31538F08B3211F190F4803209F178
:10197000833229F137FC3CC020ED280F2A3050F586
:1019800036FE20C08AE0989E200D1124922E06C0BB
:101990008D3291F0803371F7689430F8F30193FD44
:1019A000859193FF81913F018111DACF21C0689425
:1019B00031F8689432F8F2CF689433F8EFCF689436
:1019C00034F8ECCFEAE02E9E200D1124222E6894EC
:1019D00035F8E4CF8E3229F436FC04C1689436F829
:1019E000DDCF8C3619F4689437F8D8CF8836B1F249
:1019F000982F9F7D95549330E0F08336A1F1833783
:101A0000C1F1833509F063C02801F2E04F0E511C8B
:101A1000F801C080D180692D70E036FC02C06FEF04
:101A20007FEFC6010E945C0E4C01689437F882017A
:101A30000AC00C5F1F4FFFE3F98388248394912C25
:101A40006501E89437F833FE2DC0522C81149104BF
:101A500071F5552009F468CFB70180E290E00E944B
:101A6000720E5A94F6CFF801808189830E5F1F4F62
:101A7000E4CF2801F2E04F0E511CF801C080D18064
:101A8000692D70E036FC02C06FEF7FEFC6010E9447
:101A9000670E4C018201D5CFB70180E290E00E9431
:101AA000720E2A942814190409F0B0F7CECFF6016B
:101AB00037FC859137FE81916F01B70190E00E945C
:101AC000720E51105A94F1E08F1A9108BFCF8436EC
:101AD00019F0893609F077C0F80137FE6BC06081D4
:101AE0007181828193810C5F1F4FF32DFF763F2E12
:101AF00097FF09C090958095709561957F4F8F4FA6
:101B00009F4F689437F82AE030E0A5010E94A20EAA
:101B1000C82ECA188C2C432C36FE0CC0E89440F812
:101B2000C91440F434FE05C032FC03C0F32DFE7E20
:101B30004F2E892C44FE95C0FE01EC0DF11D8081D5
:101B4000803309F087C0242D297E422E842D887091
:101B5000582E43FC95C040FE8FC09C2C821418F474
:101B60002C0C922C981844FE91C0B70180E390E0B1
:101B70000E94720E42FE09C088E790E041FE02C05A
:101B800088E590E0B7010E94720EC91408F48AC07B
:101B9000CA94D12C9FEFC91AD90ACA0CDB1CF601D2
:101BA00082916F01B70190E00E94720EAC14BD04E7
:101BB000B1F74FCF60817181072E000C880B990B14
:101BC0000E5F1F4F92CFD32CE894D4F82AE030E078
:101BD000853739F1232D297FD22E8F3601F148F434
:101BE0008835A9F0F701868197812B96E2E10C9464
:101BF0001C0F803749F08837A9F7D4FE02C06894DB
:101C0000D2F820E130E00DC06894D4F8F6CF34FE6D
:101C100003C0822F8660D82E20E132E002C028E087
:101C200030E0F801D7FE0FC060817181828193811D
:101C30000C5F1F4FA5010E94A20EC82ECA183D2C92
:101C4000E89437F867CF6081718190E080E00E5FA3
:101C50001F4FF0CF42FC02C0839478CF83948394CB
:101C600075CF842D867809F471CFF6CFB70180E265
:101C700090E00E94720E83948214C0F3512C73CFB3
:101C8000522C5818821408F46ECFF8CF842D867821
:101C900009F47BCF8BE241FE80E247FC8DE2B70185
:101CA00090E071CFB70180E390E00E94720E9A94A9
:101CB0006CCF8FEF9FEF99CFFC0105906150704082
:101CC0000110D8F7809590958E0F9F1F0895FC0105
:101CD0006150704001900110D8F7809590958E0F5B
:101CE0009F1F08950F931F93CF93DF93182F092FF2
:101CF000EB018B8181FD09C01FEF0FEF812F902F2A
:101D0000DF91CF911F910F91089582FF14C02E8112
:101D10003F818C819D81281739073CF4E881F98146
:101D2000CF0101969983888310838E819F810196CC
:101D30009F838E83E3CFE885F985812F0995892BD1
:101D4000A1F3DACFFA01AA27283051F1203181F12D
:101D5000E8946F936E7F6E5F7F4F8F4F9F4FAF4FB3
:101D6000B1E03ED0B4E03CD0670F781F891F9A1FC6
:101D7000A11D680F791F8A1F911DA11D6A0F711D7A
:101D8000811D911DA11D20D009F468943F912AE086
:101D9000269F11243019305D3193DEF6CF0108956E
:101DA000462F4770405D4193B3E00FD0C9F7F6CF9F
:101DB000462F4F70405D4A3318F0495D31FD405267
:101DC000419302D0A9F7EACFB4E0A69597958795FD
:101DD00077956795BA95C9F70097610571050895DC
:101DE0009B01AC010A2E0694579547953795279588
:101DF000BA95C9F7620F731F841F951FA01D089520
:101E00002F923F924F925F926F927F928F929F920A
:101E1000AF92BF92CF92DF92EF92FF920F931F93F8
:101E2000CF93DF93CDB7DEB7CA1BDB0B0FB6F894A9
:101E3000DEBF0FBECDBF09942A88398848885F84E9
:101E40006E847D848C849B84AA84B984C884DF805A
:101E5000EE80FD800C811B81AA81B981CE0FD11D3E
:101E60000FB6F894DEBF0FBECDBFED010895F89414
:021E7000FFCFA2
:101E7200FF013200640001010001000100010000C5
:101E8200000000000000005F0000000007000700E3
:101E920000147F147F1400242A7F2A1200231308BF
:101EA200646200364955225000000503000000001C
:101EB2001C224100000041221C000014083E0814AC
:101EC2000008083E0808000050300000000808081A
:101ED2000808000060600000002010080402003EB4
:101EE2005149453E0000427F40000042615149464F
:101EF200002141454B31001814127F10002745453F
:101F02004539003C4A494930000171090503003650
:101F12004949493600064949291E00003636000063
:101F22000000563600000008142241000014141468
:101F32001414000041221408000201510906003E57
:101F4200415D594E007E1111117E007F494949368B
:101F5200003E41414122007F4141221C007F49490C
:101F62004941007F09090901003E4149497A007F40
:101F72000808087F0000417F4100002040413F01E6
:101F8200007F08142241007F40404040007F020C45
:101F9200027F007F0408107F003E4141413E007FE6
:101FA20009090906003E4151215E007F09192946AF
:101FB2000046494949310001017F0101003F40408B
:101FC200403F001F2040201F007F2018207F006319
:101FD200140814630007087008070061514945435B
:101FE20000007F414100000204081020000041412E
:101FF2007F000004020102040080808080800000D3
:1020020003050000002054545478007F48444438AB
:1020120000384444442000384444487F0038545433
:10202200541800087E090102000C5252523E007FF1
:10203200080404780000447D4000002040443D0034
:10204200007F102844000000417F4000007C0418FB
:10205200047C007C08040478003844444438007C42
:102062001414140800081414147C007C08040408D6
:1020720000485454542000043F444020003C404057
:10208200207C001C2040201C003C4030403C00448E
:1020920028102844000C5050503C004464544C44D6
:1020A2000000083641000000007F000000004136B9
:1020B2000800000804081008004142524952004634
:1020C20045434841520050415241520050726F6A9A
:1020D20065746F204C414253490053656D2053652E
:1020E2006E736F72657300312053656E736F722069
:1020F20050726F6E746F00322053656E736F72652B
:10210200732050726F6E746F73004C55583A2025CD
:102112003475206C78004D4F444F3A204155544F4E
:102122004D415449434F004D4F444F3A204D414E8B
:1021320055414C20202020004D313A2573204D324C
:102142003A2573002D2D2D2D2D2D2D2D2D2D2D2D9F
:102152002D2D2D2D004369636C6F733A2025347544
:1021620000443A25632C25752C25752C25632C25D6
:0C217200632C256C642C256C640A0000B2
:00000001FF
