:100000000C9434000C9451000C9451000C94510049
:100010000C943D010C9451000C9451000C9451002F
:100020000C9451000C9451000C9451000C9451000C
:100030000C9451000C9451000C9475010C945100D7
:100040000C9451000C9451000C9451000C945100EC
:100050000C9451000C9451000C9451000C945100DC
:100060000C9451000C94510011241FBECFEFD8E026
:10007000DEBFCDBF11E0A0E0B1E0EAEFF1E102C0E8
:1000800005900D92AC36B107D9F721E0ACE6B1E0AE
:1000900001C01D92A639B207E1F70E94E5010C9458
:1000A000FB080C94000088EC90E024E000000000C5
:1000B0000000000000000000000000000000000040
:1000C000000000000000000000000000215071F757
:1000D000019759F708958093BB0084E88093BC0092
:1000E00081E29EE42091BC0027FD02C00197D1F778
:1000F000089584EA8093BC0081E29EE42091BC00D4
:1001000027FD02C00197D1F70895CF93C82F0E9411
:1001100079008091B900887F883039F084E9809334
:10012000BC0090E080E0CF9108958C2F880F816013
:100130000E946B008091B900887F803479F784EC4D
:100140008093BC0081E29EE42091BC0027FD02C0A8
:100150000197D1F76091BB0084E88093BC0081E2F5
:100160009EE42091BC0027FD02C00197D1F7809149
:10017000BB0094E99093BC00762F682F90E080E05C
:100180000E9439052AE939E949E95FE30E949804A8
:100190000E940A05CB01C7CFCF93DF93D82FC62F7C
:1001A0000E9479008D2F880F0E946B008091B9000A
:1001B000887F883139F084E98093BC0080E0DF914A
:1001C000CF9108958C2F0E946B008091B900887F99
:1001D000883289F784E98093BC0081E0F0CFCF9327
:1001E000DF9383FBCC27C0F982FDC26081FDC46030
:1001F00080FDC8606111C0680E94790080E40E949F
:100200006B008C2F80640E946B00D4E9D093BC00FB
:100210000E9453000E94790080E40E946B008C2FA2
:100220000E946B00D093BC00DF91CF910C945300DF
:10023000CF93DF93C82FD62F82958F700E94EF0047
:100240006D2F8C2F8F70DF91CF910C94EF00CF9397
:10025000DF93EC018991882321F061E00E9418016D
:10026000F9CFDF91CF91089520916F013091700106
:1002700081E0232B09F080E008951F920F920FB6C2
:100280000F9211248F939F9386B1827090916E018B
:10029000981720F590916D01911114C090919101E2
:1002A000911119C091E09093910191E09093000118
:1002B00090918801911103C098EC9093880191E08E
:1002C00090936D0180936E019F918F910F900FBE5F
:1002D0000F901F90189510929101E7CF90916E01A9
:1002E000891780F710926D01EDCF1F920F920FB614
:1002F0000F9211246F937F938F939F9381E080934C
:10030000940180916F0190917001892B49F0809147
:100310006F019091700101979093700180936F012C
:1003200080916F0190917001892B49F080916F014C
:100330009091700101979093700180936F0180916B
:100340008F01823079F48091890190918A01892B03
:1003500049F08091890190918A01019790938A01D7
:100360008093890180918801882369F180918801B7
:100370008150809388018091880169E10E94C705BE
:10038000911104C088B191E0892788B980916C01EE
:100390008F5F80936C0180916C018A3F30F08BB14C
:1003A00090E489278BB910926C01809190018F5F46
:1003B000809390019F918F917F916F910F900FBECD
:1003C0000F901F9018954098E1CFCF93DF93CDB752
:1003D000DEB7A1970FB6F894DEBF0FBECDBF569A19
:1003E0005E9882E084BD95E095BD9FE197BD8093C6
:1003F0006E00219A809180008268809380008091B5
:10040000810083618093810084EC99E09093870060
:10041000809386008CEB90E0909389008093880015
:1004200080E480937C0087E880937A0081E0809369
:100430007E00399841988AB18F768AB98BB18F76D0
:100440008BB98091680082608093680080916C0015
:10045000826080936C00389A409878946AE0262EE7
:10046000312C412C512C9E012F5F3F4F79017BE5B0
:10047000C72E71E0D72EEDE7AE2EB12CFAEF8F2EFE
:10048000912CACEB6A2E712C809195018111EFC0FB
:10049000E0918C01E830C0F7F0E0EF5AFD4F0C948A
:1004A00009065902730283029402A502CE020003D8
:1004B00029038091BC0084608093BC001092B90035
:1004C00088E48093B80087B18F7C87B988B1806356
:1004D00088B98AE190E09093700180936F0181E088
:1004E00080938C01D1CF0E943401813069F660E0A5
:1004F00083E00E94EF0083E090E09093700180938E
:100500006F0182E0EDCF0E943401813009F0BCCF51
:1005100060E083E00E94EF0081E090E09093700142
:1005200080936F0183E0DCCF0E943401813009F0B9
:10053000ABCF60E083E00E94EF0081E090E0909319
:10054000700180936F0184E0CBCF0E943401813031
:1005500009F09ACF60E082E00E94EF0060E088E25C
:100560000E94180160E08CE00E94180160E081E0C8
:100570000E94180160E086E00E94180160E080E8B7
:100580000E94180189E091E00E9427018FEE92E01D
:100590009093700180936F0185E0A2CF0E94340197
:1005A000813009F071CF60E00E94180161E083E2C0
:1005B0000E94CC00882339F061E183E20E94CC00E4
:1005C00011E0811101C010E01093720161E08CE52F
:1005D0000E94CC00882339F061E18CE50E94CC00B8
:1005E00091E0811101C090E090937101190F109377
:1005F0008D0186E090E09093700180936F0170CF41
:100600000E943401813009F03FCF60E080E80E9411
:10061000180180918D0181110CC087E191E00E9449
:1006200027018FEE92E09093700180936F0187E035
:1006300057CF813019F484E291E0F1CF84E391E067
:100640000E94270160E080EC0E9418018FE391E096
:10065000E6CF0E943401182F813009F015CF60E0F9
:1006600081E00E941801109395018FEF39CF80919E
:100670009401882309F408CF1092940180917201AB
:1006800010E000E0882321F083E20E9485008C01C5
:1006900080917101882309F4D3C08CE50E94850004
:1006A00030918D0139A3313009F0CDC0011511050C
:1006B00009F0C8012091870130E0F901EE0FFF1F1A
:1006C000ED58FE4F91838083C90101966AE070E086
:1006D0000E94D30580938701E3E7F1E060E070E0DA
:1006E000CB0121913191620F731F811D911D27E86C
:1006F00031E02E173F07A9F7A20191010E94E705FB
:100700003093930120939201809191018091910106
:10071000811149C04C9BA2C080918F01823021F190
:100720008091010190910201883E9340B0F4809144
:10073000010190910201C296909302018093010100
:100740008091010190910201893E934030F088EE42
:1007500093E0909302018093010180918F018111B8
:1007600003C081E080938F01809103019091040187
:1007700069A16623C1F060918C016F3FA1F4821BD7
:10078000930B9C01225E3F4F2D33310508F0ACC026
:1007900081E080938B0187E491E080938E017092D9
:1007A00089006092880080919001843608F46CCEB4
:1007B00010929001209103013091040180918F01EA
:1007C000882321F020910101309102018091910153
:1007D0008111ABC085E091E03F932F939F938F935E
:1007E0002BE431E03F932F93FF92EF920E94230678
:1007F00060E080E80E941801C7010E9427018091F3
:100800008E01282F082E000C330B3F938F9380917D
:1008100093018F93809192018F93DF92CF92FF92F9
:10082000EF920E94230660E080EC0E941801C7014D
:100830000E9427010FB6F894DEBF0FBECDBF24CEB5
:1008400090E080E02DCF69A1623029F4800F911FE4
:10085000969587952FCF90E080E02CCF4F9B1AC0C4
:1008600080918F01823009F47FCF809101019091B6
:100870000201892B09F471CF80910101909102014D
:10088000C2979093020180930101809101019091A0
:10089000020163CF80918F01813041F484E190E0C7
:1008A00090938A018093890182E05CCF80918F01CF
:1008B000823009F059CF8091890190918A01892B6A
:1008C00009F052CF809101019091020190930401AF
:1008D0008093030180918801811103C080E9809396
:1008E000880110928F0140CF20918B014F977CF0AF
:1008F000223008F058CF82E080938B0125E031E070
:1009000020938E0190928900809288004CCF222300
:1009100009F449CF10928B0189E491E080938E0114
:10092000B0928900A09288003ECF87E091E054CF3A
:100930000E94AC040C948D050E94860558F00E941C
:100940007F0540F029F45F3F29F00C9476055111A2
:100950000C94C1050C947C050E949E0568F39923B4
:10096000B1F3552391F3951B550BBB27AA276217AB
:100970007307840738F09F5F5F4F220F331F441FB8
:10098000AA1FA9F335D00E2E3AF0E0E832D09150EC
:100990005040E695001CCAF72BD0FE2F29D0660FD9
:1009A000771F881FBB1F261737074807AB07B0E81C
:1009B00009F0BB0B802DBF01FF2793585F4F3AF022
:1009C0009E3F510578F00C9476050C94C1055F3F6D
:1009D000E4F3983ED4F3869577956795B795F795A8
:1009E0009F5FC9F7880F911D9695879597F9089590
:1009F000E1E0660F771F881FBB1F6217730784072C
:100A0000BA0720F0621B730B840BBA0BEE1F88F73A
:100A1000E09508950E94A60588F09F5798F0B92F99
:100A20009927B751B0F0E1F0660F771F881F991F23
:100A30001AF0BA95C9F714C0B13091F00E94C00500
:100A4000B1E008950C94C005672F782F8827B85F10
:100A500039F0B93FCCF3869577956795B395D9F77B
:100A60003EF490958095709561957F4F8F4F9F4F85
:100A70000895E89409C097FB3EF490958095709591
:100A800061957F4F8F4F9F4F9923A9F0F92F96E9DA
:100A9000BB279395F695879577956795B795F1114F
:100AA000F8CFFAF4BB0F11F460FF1BC06F5F7F4FEC
:100AB0008F4F9F4F16C0882311F096E911C07723FE
:100AC00021F09EE8872F762F05C0662371F096E807
:100AD000862F70E060E02AF09A95660F771F881FD6
:100AE000DAF7880F9695879597F9089597F99F6794
:100AF00080E870E060E008959FEF80EC08950024A6
:100B00000A941616170618060906089500240A9472
:100B100012161306140605060895092E0394000CF8
:100B200011F4882352F0BB0F40F4BF2B11F460FF87
:100B300004C06F5F7F4F8F4F9F4F089557FD9058B0
:100B4000440F551F59F05F3F71F04795880F97FB91
:100B5000991F61F09F3F79F087950895121613064B
:100B60001406551FF2CF4695F1DF08C0161617067A
:100B70001806991FF1CF86957105610508940895AF
:100B8000E894BB2766277727CB0197F90895991B2F
:100B900079E004C0991F961708F0961B881F7A9574
:100BA000C9F78095089597FB072E16F4009407D097
:100BB00077FD09D00E940F0607FC05D03EF4909502
:100BC00081959F4F0895709561957F4F0895A1E29B
:100BD0001A2EAA1BBB1BFD010DC0AA1FBB1FEE1FB7
:100BE000FF1FA217B307E407F50720F0A21BB30B02
:100BF000E40BF50B661F771F881F991F1A9469F77E
:100C000060957095809590959B01AC01BD01CF01D9
:100C10000895EE0FFF1F0590F491E02D0994AA1B93
:100C2000BB1B51E107C0AA1FBB1FA617B70710F0D7
:100C3000A61BB70B881F991F5A95A9F78095909509
:100C4000BC01CD010895AEE0B0E0E9E2F6E00C941D
:100C5000D2080D891E8986E08C831A8309838FEF61
:100C60009FE79E838D83AE01475E5F4F6F89788DCE
:100C7000CE0101960E9446062F813885020F131F70
:100C8000F80110822E96E4E00C94EE08ABE0B0E0A0
:100C9000ECE4F6E00C94C4087C013B018A01FC0101
:100CA00017821682838181FFC8C1CE0101965C0143
:100CB000F7019381F30193FD859193FF81913F01AA
:100CC000882309F453C1853239F493FD859193FF4C
:100CD00081913F01853229F4B70190E00E943608E6
:100CE000E7CF912C212C312CFFE1F31538F08B321A
:100CF00011F190F4803209F1833229F137FC3CC0C4
:100D000020ED280F2A3050F536FE20C08AE0989E4C
:100D1000200D1124922E06C08D3291F0803371F790
:100D2000689430F8F30193FD859193FF81913F0121
:100D30008111DACF21C0689431F8689432F8F2CF8B
:100D4000689433F8EFCF689434F8ECCFEAE02E9E45
:100D5000200D1124222E689435F8E4CF8E3229F428
:100D600036FC04C1689436F8DDCF8C3619F46894EB
:100D700037F8D8CF8836B1F2982F9F7D95549330AD
:100D8000E0F08336A1F18337C1F1833509F063C008
:100D90002801F2E04F0E511CF801C080D180692D6E
:100DA00070E036FC02C06FEF7FEFC6010E942008A2
:100DB0004C01689437F882010AC00C5F1F4FFFE3B3
:100DC000F98388248394912C6501E89437F833FEE5
:100DD0002DC0522C8114910471F5552009F468CF6F
:100DE000B70180E290E00E9436085A94F6CFF801ED
:100DF000808189830E5F1F4FE4CF2801F2E04F0E00
:100E0000511CF801C080D180692D70E036FC02C011
:100E10006FEF7FEFC6010E942B084C018201D5CFF6
:100E2000B70180E290E00E9436082A942814190441
:100E300009F0B0F7CECFF60137FC859137FE8191EE
:100E40006F01B70190E00E94360851105A94F1E00A
:100E50008F1A9108BFCF843619F0893609F077C010
:100E6000F80137FE6BC060817181828193810C5FD4
:100E70001F4FF32DFF763F2E97FF09C09095809569
:100E8000709561957F4F8F4F9F4F689437F82AE098
:100E900030E0A5010E946608C82ECA188C2C432C8D
:100EA00036FE0CC0E89440F8C91440F434FE05C086
:100EB00032FC03C0F32DFE7E4F2E892C44FE95C0DC
:100EC000FE01EC0DF11D8081803309F087C0242DD7
:100ED000297E422E842D8870582E43FC95C040FEFA
:100EE0008FC09C2C821418F42C0C922C981844FE61
:100EF00091C0B70180E390E00E94360842FE09C02D
:100F000088E790E041FE02C088E590E0B7010E94CA
:100F10003608C91408F48AC0CA94D12C9FEFC91AA4
:100F2000D90ACA0CDB1CF60182916F01B70190E06F
:100F30000E943608AC14BD04B1F74FCF60817181B7
:100F4000072E000C880B990B0E5F1F4F92CFD32CEE
:100F5000E894D4F82AE030E0853739F1232D297F51
:100F6000D22E8F3601F148F48835A9F0F701868139
:100F700097812B96E2E10C94E008803749F088379E
:100F8000A9F7D4FE02C06894D2F820E130E00DC089
:100F90006894D4F8F6CF34FE03C0822F8660D82E32
:100FA00020E132E002C028E030E0F801D7FE0FC0B7
:100FB00060817181828193810C5F1F4FA5010E9426
:100FC0006608C82ECA183D2CE89437F867CF6081B0
:100FD000718190E080E00E5F1F4FF0CF42FC02C0B5
:100FE000839478CF8394839475CF842D867809F485
:100FF00071CFF6CFB70180E290E00E94360883946B
:101000008214C0F3512C73CF522C5818821408F458
:101010006ECFF8CF842D867809F47BCF8BE241FE2A
:1010200080E247FC8DE2B70190E071CFB70180E329
:1010300090E00E9436089A946CCF8FEF9FEF99CF83
:10104000FC010590615070400110D8F78095909593
:101050008E0F9F1F0895FC01615070400190011098
:10106000D8F7809590958E0F9F1F08950F931F932B
:10107000CF93DF93182F092FEB018B8181FD09C0DE
:101080001FEF0FEF812F902FDF91CF911F910F91C5
:10109000089582FF14C02E813F818C819D81281785
:1010A00039073CF4E881F981CF010196998388835F
:1010B00010838E819F8101969F838E83E3CFE88585
:1010C000F985812F0995892BA1F3DACFFA01AA2797
:1010D000283051F1203181F1E8946F936E7F6E5F7B
:1010E0007F4F8F4F9F4FAF4FB1E03ED0B4E03CD029
:1010F000670F781F891F9A1FA11D680F791F8A1F0C
:10110000911DA11D6A0F711D811D911DA11D20D072
:1011100009F468943F912AE0269F11243019305D2C
:101120003193DEF6CF010895462F4770405D41931D
:10113000B3E00FD0C9F7F6CF462F4F70405D4A336A
:1011400018F0495D31FD4052419302D0A9F7EACF32
:10115000B4E0A6959795879577956795BA95C9F761
:1011600000976105710508959B01AC010A2E069454
:101170005795479537952795BA95C9F7620F731F0D
:10118000841F951FA01D08952F923F924F925F924A
:101190006F927F928F929F92AF92BF92CF92DF9287
:1011A000EF92FF920F931F93CF93DF93CDB7DEB7EC
:1011B000CA1BDB0B0FB6F894DEBF0FBECDBF099480
:1011C0002A88398848885F846E847D848C849B84D7
:1011D000AA84B984C884DF80EE80FD800C811B81E5
:1011E000AA81B981CE0FD11D0FB6F894DEBF0FBE14
:0A11F000CDBFED010895F894FFCF84
:1011FA00019600960041004D0050726F6A65746F47
:10120A00204C414253490053656D2053656E736FFC
:10121A0072657300312053656E736F722050726F5E
:10122A006E746F00322053656E736F72657300506F
:10123A00726F6E746F7300500046004D4F444F3A00
:10124A002573205345543A253475004C75783A2550
:0C125A003475204D6F746F723A257300DC
:00000001FF
