:100000000C9434000C9451000C9451000C94510049
:100010000C943D010C9451000C9451000C9451002F
:100020000C9451000C9451000C9451000C9451000C
:100030000C9451000C9451000C946D010C945100DF
:100040000C9451000C9451000C9451000C945100EC
:100050000C9451000C9451000C9451000C945100DC
:100060000C9451000C94510011241FBECFEFD8E026
:10007000DEBFCDBF11E0A0E0B1E0EAECF1E102C0EB
:1000800005900D92A436B107D9F721E0A4E6B1E0BE
:1000900001C01D92A93AB207E1F70E94B4010C9485
:1000A000E3080C94000088EC90E024E000000000DD
:1000B0000000000000000000000000000000000040
:1000C000000000000000000000000000215071F757
:1000D000019759F708958093BB0084E88093BC0092
:1000E00081E29EE42091BC0027FD02C00197D1F778
:1000F000089584EA8093BC0081E29EE42091BC00D4
:1001000027FD02C00197D1F70895CF93C82F0E9411
:1001100079008091B900887F883039F084E9809334
:10012000BC0090E080E0CF9108958C2F880F816013
:100130000E946B008091B900887F803479F784EC4D
:100140008093BC0081E29EE42091BC0027FD02C0A8
:100150000197D1F76091BB0084E88093BC0081E2F5
:100160009EE42091BC0027FD02C00197D1F7809149
:10017000BB0094E99093BC00762F682F90E080E05C
:100180000E9413052AE939E949E95FE30E947204F4
:100190000E94E404CB01C7CFCF93DF93D82FC62FA3
:1001A0000E9479008D2F880F0E946B008091B9000A
:1001B000887F883139F084E98093BC0080E0DF914A
:1001C000CF9108958C2F0E946B008091B900887F99
:1001D000883289F784E98093BC0081E0F0CFCF9327
:1001E000DF9383FBCC27C0F982FDC26081FDC46030
:1001F00080FDC8606111C0680E94790080E40E949F
:100200006B008C2F80640E946B00D4E9D093BC00FB
:100210000E9453000E94790080E40E946B008C2FA2
:100220000E946B00D093BC00DF91CF910C945300DF
:10023000CF93DF93C82FD62F82958F700E94EF0047
:100240006D2F8C2F8F70DF91CF910C94EF00CF9397
:10025000DF93EC018991882321F061E00E9418016D
:10026000F9CFDF91CF910895209167013091680116
:1002700081E0232B09F080E008951F920F920FB6C2
:100280000F9211248F939F9386B182709091660193
:100290009817E0F49091650191110CC09091A40120
:1002A000911111C091E09093A40191E0909300010D
:1002B00090936501809366019F918F910F900FBE7F
:1002C0000F901F9018951092A401EFCF90916601A6
:1002D000891780F710926501EDCF1F920F920FB62C
:1002E0000F9211248F939F9381E08093A7018091B7
:1002F000670190916801892B49F080916701909185
:1003000068010197909368018093670180919E0135
:10031000823079F480916B0190916C01892B49F0C6
:1003200080916B0190916C01019790936C01809387
:100330006B01809164018F5F8093640180916401FF
:100340008A3F30F08BB190E489278BB91092640119
:100350008091A3018F5F8093A3019F918F910F9054
:100360000FBE0F901F901895CF93DF93CDB7DEB7D8
:10037000A0970FB6F894DEBF0FBECDBF569A5E9819
:1003800082E084BD95E095BD9FE197BD80936E00AE
:10039000219A809180008268809380008091810002
:1003A00083618093810084EC99E09093870080932F
:1003B00086008CEB90E0909389008093880080E425
:1003C00080937C0087E880937A0081E080937E00B0
:1003D000399841988091680082608093680080918C
:1003E0006C00826080936C007894EAE08E2E912CF1
:1003F000A12CB12C44244A94F3E05F2E612C712C83
:10040000AFEE2A2EA2E03A2E8091A8018111EBC016
:10041000E0916901E830C0F7F0E0EF5EFD4F0C9429
:10042000D705190233024302540265028C02BE0250
:10043000E5028091BC0084608093BC001092B900FA
:1004400088E48093B80087B18F7C87B988B18063D6
:1004500088B98AE190E0909368018093670181E018
:1004600080936901D1CF0E943401813069F660E048
:1004700083E00E94EF0083E090E090936801809316
:10048000670182E0EDCF0E943401813009F0BCCFDA
:1004900060E083E00E94EF0081E090E090936801CB
:1004A0008093670183E0DCCF0E943401813009F042
:1004B000ABCF60E083E00E94EF0081E090E090939A
:1004C00068018093670184E0CBCF0E9434018130C2
:1004D00009F09ACF60E082E00E94EF0060E088E2DD
:1004E0000E94180160E08CE00E94180160E081E049
:1004F0000E94180160E086E00E94180160E080E838
:100500000E94180185E091E00E9427013092680165
:100510002092670185E0A4CF0E943401813009F068
:1005200073CF60E00E94180161E083E20E94CC007A
:10053000882339F061E183E20E94CC0011E081114F
:1005400001C010E01093860161E08CE50E94CC00B0
:10055000882339F061E18CE50E94CC0091E08111A3
:1005600001C090E090938501190F1093840186E0FB
:1005700090E0909368018093670172CF0E943401EC
:10058000813009F041CF60E080E80E94180180913D
:10059000840181110AC083E191E00E942701309219
:1005A00068012092670187E05BCF813019F480E217
:1005B00091E0F3CF80E391E00E94270160E080ECBE
:1005C0000E9418018BE391E0E8CF0E943401182FBC
:1005D000813009F019CF60E081E00E94180110938A
:1005E000A8018FEF3DCF8091A701882309F40CCF9C
:1005F0001092A70180916A018111B7C080917C009F
:10060000807F80937C0080917A00806480937A0060
:1006100081E080936A018091A301843608F4F4CECE
:100620001092A301C090A101D090A20180918601F7
:1006300010E000E0882321F083E20E9485008C0115
:1006400080918501882309F43DC18CE50E948500D5
:1006500020918401213009F038C10115110509F4F8
:100660008C0180919B0190E0FC01EE0FFF1FE95788
:10067000FE4F1183008301966AE070E00E94A1059D
:1006800080939B01E7E8F1E060E070E0CB0121910D
:100690003191620F731F811D911D2BE931E02E17DF
:1006A0003F07A9F7A50194010E94B5053093A00169
:1006B00020939F0180919E01813021F080919E01C5
:1006C000823091F420919C0130919D01A4E1B0E031
:1006D0000E94DD05A30192010E94B50582E3829F7D
:1006E0006001839FD00C11248091A401882309F418
:1006F000F6C083E091E0DF92CF929F938F9383E4E3
:1007000091E09F938F9381E090E08C0F9D1F9F93CA
:100710008F930E940B0660E080E80E941801CE01D2
:1007200001960E9427011F921F928091A0018F9332
:1007300080919F018F9323E531E03F932F9321E038
:1007400030E02C0F3D1F3F932F930E940B0660E07B
:1007500080EC0E941801CE0101960E9427010FB67D
:10076000F894DEBF0FBECDBF4FCE80917A0084FFDC
:1007700052CF80917A00806180937A0010926A0152
:100780008091780090917900009709F444CF90937C
:10079000A6018093A5018091A40181113CCF4091D5
:1007A000A5015091A6018091830190E0FC01EE0F1C
:1007B000FF1FE159FE4F0081118130E020E03095AC
:1007C0002095109501951F4F2F4F3F4FE0919B01B2
:1007D000F0E0EE0FFF1FE159FE4F51834083019679
:1007E0006AE070E00E94A10580938301EFE6F1E0EA
:1007F00081919191080F191F211D311D83E891E00E
:100800008E179F07A9F7C901B801A50194010E949D
:10081000B50569017A0130939D0120939C01809177
:100820006D0190916E01281B390BC90137FF03C080
:1008300091958195910920919E01213089F060F078
:100840002230F9F080919E01823009F4E4CED092FA
:100850006E01C0926D01DFCE0B97A4F381E009C059
:100860000B9754F482E390E090936C0180936B01BA
:1008700082E080939E01E6CFD0926E01C0926D011E
:10088000E1CF0B975CF780916B0190916C01892B04
:10089000C9F6A4E1B0E0A7019601442755270E94BC
:1008A000EC05A30192010E94B50562E3629FC001BD
:1008B000639F900D11249093A2018093A101109247
:1008C0009E01C0CF90E080E0C3CE223029F4080F13
:1008D000191F16950795C5CE10E000E0C2CE81E045
:1008E00091E009CF0E9486040C9467050E94600580
:1008F00058F00E94590540F029F45F3F29F00C940C
:10090000500551110C949B050C9456050E947805D6
:1009100068F39923B1F3552391F3951B550BBB272E
:10092000AA2762177307840738F09F5F5F4F220F73
:10093000331F441FAA1FA9F335D00E2E3AF0E0E86A
:1009400032D091505040E695001CCAF72BD0FE2FB4
:1009500029D0660F771F881FBB1F26173707480748
:10096000AB07B0E809F0BB0B802DBF01FF27935800
:100970005F4F3AF09E3F510578F00C9450050C946F
:100980009B055F3FE4F3983ED4F386957795679592
:10099000B795F7959F5FC9F7880F911D9695879535
:1009A00097F90895E1E0660F771F881FBB1F621754
:1009B00073078407BA0720F0621B730B840BBA0B12
:1009C000EE1F88F7E09508950E94800588F09F57F4
:1009D00098F0B92F9927B751B0F0E1F0660F771F63
:1009E000881F991F1AF0BA95C9F714C0B13091F059
:1009F0000E949A05B1E008950C949A05672F782F0C
:100A00008827B85F39F0B93FCCF38695779567951D
:100A1000B395D9F73EF490958095709561957F4F89
:100A20008F4F9F4F0895E89409C097FB3EF490952F
:100A30008095709561957F4F8F4F9F4F9923A9F0B7
:100A4000F92F96E9BB279395F69587957795679546
:100A5000B795F111F8CFFAF4BB0F11F460FF1BC08A
:100A60006F5F7F4F8F4F9F4F16C0882311F096E91D
:100A700011C0772321F09EE8872F762F05C06623CB
:100A800071F096E8862F70E060E02AF09A95660F84
:100A9000771F881FDAF7880F9695879597F908953D
:100AA00097F99F6780E870E060E008959FEF80EC21
:100AB000089500240A9416161706180609060895C4
:100AC00000240A9412161306140605060895092E2A
:100AD0000394000C11F4882352F0BB0F40F4BF2B99
:100AE00011F460FF04C06F5F7F4F8F4F9F4F0895D9
:100AF00057FD9058440F551F59F05F3F71F04795CF
:100B0000880F97FB991F61F09F3F79F087950895B3
:100B1000121613061406551FF2CF4695F1DF08C0D2
:100B2000161617061806991FF1CF869571056105EF
:100B300008940895E894BB2766277727CB0197F997
:100B4000089597FB072E16F4009407D077FD09D07F
:100B50000E94F70507FC05D03EF4909581959F4FC4
:100B60000895709561957F4F0895A1E21A2EAA1BF2
:100B7000BB1BFD010DC0AA1FBB1FEE1FFF1FA2174D
:100B8000B307E407F50720F0A21BB30BE40BF50B4A
:100B9000661F771F881F991F1A9469F760957095D3
:100BA000809590959B01AC01BD01CF010895EE0F9A
:100BB000FF1F0590F491E02D0994A29FB001B39F0F
:100BC000C001A39F700D811D1124911DB29F700D56
:100BD000811D1124911D08950E94DD05A59F900D92
:100BE000B49F900DA49F800D911D11240895AA1B00
:100BF000BB1B51E107C0AA1FBB1FA617B70710F008
:100C0000A61BB70B881F991F5A95A9F78095909539
:100C1000BC01CD010895AEE0B0E0E1E1F6E00C9456
:100C2000BA080D891E8986E08C831A8309838FEFA9
:100C30009FE79E838D83AE01475E5F4F6F89788DFE
:100C4000CE0101960E942E062F813885020F131FB8
:100C5000F80110822E96E4E00C94D608ABE0B0E0E8
:100C6000E4E3F6E00C94AC087C013B018A01FC0152
:100C700017821682838181FFC8C1CE0101965C0173
:100C8000F7019381F30193FD859193FF81913F01DA
:100C9000882309F453C1853239F493FD859193FF7C
:100CA00081913F01853229F4B70190E00E941E082E
:100CB000E7CF912C212C312CFFE1F31538F08B324A
:100CC00011F190F4803209F1833229F137FC3CC0F4
:100CD00020ED280F2A3050F536FE20C08AE0989E7D
:100CE000200D1124922E06C08D3291F0803371F7C1
:100CF000689430F8F30193FD859193FF81913F0152
:100D00008111DACF21C0689431F8689432F8F2CFBB
:100D1000689433F8EFCF689434F8ECCFEAE02E9E75
:100D2000200D1124222E689435F8E4CF8E3229F458
:100D300036FC04C1689436F8DDCF8C3619F468941B
:100D400037F8D8CF8836B1F2982F9F7D95549330DD
:100D5000E0F08336A1F18337C1F1833509F063C038
:100D60002801F2E04F0E511CF801C080D180692D9E
:100D700070E036FC02C06FEF7FEFC6010E940808EA
:100D80004C01689437F882010AC00C5F1F4FFFE3E3
:100D9000F98388248394912C6501E89437F833FE15
:100DA0002DC0522C8114910471F5552009F468CF9F
:100DB000B70180E290E00E941E085A94F6CFF80135
:100DC000808189830E5F1F4FE4CF2801F2E04F0E30
:100DD000511CF801C080D180692D70E036FC02C042
:100DE0006FEF7FEFC6010E9413084C018201D5CF3F
:100DF000B70180E290E00E941E082A94281419048A
:100E000009F0B0F7CECFF60137FC859137FE81911E
:100E10006F01B70190E00E941E0851105A94F1E052
:100E20008F1A9108BFCF843619F0893609F077C040
:100E3000F80137FE6BC060817181828193810C5F04
:100E40001F4FF32DFF763F2E97FF09C09095809599
:100E5000709561957F4F8F4F9F4F689437F82AE0C8
:100E600030E0A5010E944E08C82ECA188C2C432CD5
:100E700036FE0CC0E89440F8C91440F434FE05C0B6
:100E800032FC03C0F32DFE7E4F2E892C44FE95C00C
:100E9000FE01EC0DF11D8081803309F087C0242D07
:100EA000297E422E842D8870582E43FC95C040FE2A
:100EB0008FC09C2C821418F42C0C922C981844FE91
:100EC00091C0B70180E390E00E941E0842FE09C075
:100ED00088E790E041FE02C088E590E0B7010E94FB
:100EE0001E08C91408F48AC0CA94D12C9FEFC91AED
:100EF000D90ACA0CDB1CF60182916F01B70190E0A0
:100F00000E941E08AC14BD04B1F74FCF60817181FF
:100F1000072E000C880B990B0E5F1F4F92CFD32C1E
:100F2000E894D4F82AE030E0853739F1232D297F81
:100F3000D22E8F3601F148F48835A9F0F701868169
:100F400097812B96E2E10C94C808803749F08837E6
:100F5000A9F7D4FE02C06894D2F820E130E00DC0B9
:100F60006894D4F8F6CF34FE03C0822F8660D82E62
:100F700020E132E002C028E030E0F801D7FE0FC0E7
:100F800060817181828193810C5F1F4FA5010E9456
:100F90004E08C82ECA183D2CE89437F867CF6081F8
:100FA000718190E080E00E5F1F4FF0CF42FC02C0E5
:100FB000839478CF8394839475CF842D867809F4B5
:100FC00071CFF6CFB70180E290E00E941E088394B3
:100FD0008214C0F3512C73CF522C5818821408F489
:100FE0006ECFF8CF842D867809F47BCF8BE241FE5B
:100FF00080E247FC8DE2B70190E071CFB70180E35A
:1010000090E00E941E089A946CCF8FEF9FEF99CFCB
:10101000FC010590615070400110D8F780959095C3
:101020008E0F9F1F0895FC016150704001900110C8
:10103000D8F7809590958E0F9F1F08950F931F935B
:10104000CF93DF93182F092FEB018B8181FD09C00E
:101050001FEF0FEF812F902FDF91CF911F910F91F5
:10106000089582FF14C02E813F818C819D812817B5
:1010700039073CF4E881F981CF010196998388838F
:1010800010838E819F8101969F838E83E3CFE885B5
:10109000F985812F0995892BA1F3DACFFA01AA27C7
:1010A000283051F1203181F1E8946F936E7F6E5FAB
:1010B0007F4F8F4F9F4FAF4FB1E03ED0B4E03CD059
:1010C000670F781F891F9A1FA11D680F791F8A1F3C
:1010D000911DA11D6A0F711D811D911DA11D20D0A3
:1010E00009F468943F912AE0269F11243019305D5D
:1010F0003193DEF6CF010895462F4770405D41934E
:10110000B3E00FD0C9F7F6CF462F4F70405D4A339A
:1011100018F0495D31FD4052419302D0A9F7EACF62
:10112000B4E0A6959795879577956795BA95C9F791
:1011300000976105710508959B01AC010A2E069484
:101140005795479537952795BA95C9F7620F731F3D
:10115000841F951FA01D08952F923F924F925F927A
:101160006F927F928F929F92AF92BF92CF92DF92B7
:10117000EF92FF920F931F93CF93DF93CDB7DEB71C
:10118000CA1BDB0B0FB6F894DEBF0FBECDBF0994B0
:101190002A88398848885F846E847D848C849B8407
:1011A000AA84B984C884DF80EE80FD800C811B8115
:1011B000AA81B981CE0FD11D0FB6F894DEBF0FBE44
:0A11C000CDBFED010895F894FFCFB4
:1011CA000141004D0050726F6A65746F204C4142B4
:1011DA0053490053656D2053656E736F72657300D2
:1011EA00312053656E736F722050726F6E746F0088
:1011FA00322053656E736F7265730050726F6E742E
:10120A006F73004D4F444F3A2573205345543A2586
:10121A003475004C75783A25357520506572733AE5
:04122A002564000037
:00000001FF
